:100000000C940A010C94E3360C94B8360C948D369B
:100010000C9462360C9437360C940C360C94E13503
:100020000C94B6350C945E380C945E380C945E38A3
:100030000C9434010C9434010C9434010C9434016C
:100040000C9434010C9468380C9434010C943401F1
:100050000C9434010C9434010C9434010C946C35E0
:100060000C9434010C9434380C940A380C943401F8
:100070000C9434010C9434010C9434010C9434012C
:100080000C9434010C9434010C9434010C9434011C
:100090000C94E0370C94B6370C9434010C94B438BB
:1000A0000C9434010C9434010C9434010C943401FC
:1000B0000C9434010C9434010C9434010C943401EC
:1000C0000C9434010C9434010C9434010C948C374E
:1000D0000C9462370C9434010C9438370C940E371E
:1000E0000C9434010A0B0C0D0E0F000021002400AB
:1000F00027002A002D003000330001010000040118
:1001000007010A0100002200250028002B002E0014
:100110003100340002010000050108010B0100005C
:1001200020002300260029002C002F0032000001AF
:10013000000003010601090105050505070508087A
:100140000808020202020A0A080804040404010161
:100150000101010101010303030303030303040776
:1001600007070C0C0C0C0C0C0C0C0202020206060D
:100170000606060606060B0B0B0B0B0B0B0B010200
:1001800010202008081020401020408002010201A9
:100190000804020101020408102040808040201061
:1001A00008040201800402018040201008040201BA
:1001B0000804020101020408102040800102040822
:1001C0001020408000000A0B02090C0D0E080703E6
:1001D000040100000000000000000000000000001A
:1001E000000000000000000000000000000000000F
:1001F00012111000000000000000000000000000CC
:1002000000000000000000000000000102030405DF
:10021000503AF13911241FBECFEFD1E2DEBFCDBF7E
:1002200015E0A0E0B2E0E2E0F9E900E00BBF02C0B7
:1002300007900D92AA3EB107D9F728E1AAEEB5E0E2
:1002400001C01D92A730B207E1F711E0C9E0D1E08B
:1002500004C02197FE010E946E4BC830D107C9F738
:100260000E946F3D0C94744C0C9400000895089506
:100270000895089508950895089508950895CF93D1
:10028000DF9300D000D0CDB7DEB719821A821B826F
:100290001C8289819A81AB81BC818A3F9105A1052D
:1002A000B10568F4000089819A81AB81BC81019617
:1002B000A11DB11D89839A83AB83BC83EACF80E003
:1002C0000F900F900F900F90DF91CF9108954F9264
:1002D0005F926F927F928F929F92AF92BF92CF92D6
:1002E000DF92EF92FF920F931F93CF93F9010FEFDD
:1002F0001FEF980100831183228333834A015B013E
:10030000B3E0B694A79497948794BA95D1F76A010D
:100310007B0127E0C222DD24EE24FF249501840125
:10032000C0E0063011052105310508F041C0C111BA
:100330003FC0DC01A00FB11F6C91412C512C320148
:1003400080169106A206B30649F470E00C2C02C098
:10035000759567950A94E2F726013701462F50E01C
:1003600060FF17C0B901A801A3E0440F551F661F25
:10037000771FAA95D1F7440E551E661E771E408240
:10038000518262827382C1E00F5F1F4F2F4F3F4F38
:10039000C8CFBA01759567954FEF441A540A640A9D
:1003A000740A48E04416510461047104B9F6ECCFB4
:1003B000CF911F910F91FF90EF90DF90CF90BF9062
:1003C000AF909F908F907F906F905F904F90089527
:1003D0008150823108F058C0E82FF0E0EE50FE4F17
:1003E0000C946E4B1202160204020A020E02440220
:1003F00019021F02230229022D02310237023B0299
:1004000044023F0245024902809180008F77809329
:1004100080000895809180008F7DF9CF80918000C9
:10042000877FF5CF84B58F7784BD089584B58F7DA0
:10043000FBCF8091B0008F778093B00008958091BA
:10044000B0008F7DF9CF809190008F7780939000DE
:100450000895809190008F7DF9CF80919000877FE3
:10046000F5CF8091A0008F778093A00008958091B0
:10047000A0008F7DF9CF8091A000877FF5CF80917C
:1004800020018F77809320010895809120018F7D36
:10049000F9CF80912001877FF5CFCF93DF93282F6D
:1004A00030E0F901EC53FE4F8491F901E258FE4F20
:1004B000D491F901E85CFE4FC491CC23A1F08111E5
:1004C0000E94E801EC2FF0E0EE0FFF1FE25EFE4F0E
:1004D000A591B491EC91ED2381E090E009F480E0E6
:1004E000DF91CF91089580E090E0FACF1F93CF93F2
:1004F000DF93282F30E0F901EC53FE4F8491F9018E
:10050000E258FE4FD491F901E85CFE4FC491CC2330
:10051000A9F0162F81110E94E801EC2FF0E0EE0FF8
:10052000FF1FEC5FFE4FA591B4918FB7F894EC914B
:10053000111108C0D095DE23DC938FBFDF91CF91DE
:100540001F910895DE2BF8CF682F8091E1170E944C
:1005500076028091F9179091FA178230910538F060
:10056000880F991F880F991F05970197F1F7089534
:10057000CF93DF9390E0FC01E258FE4F2491885C1A
:100580009E4FFC0184918823D1F090E0880F991F41
:10059000FC01E651FF4FA591B491FC01EC5FFE4FC9
:1005A000C591D49161110EC09FB7F8948C91E22F40
:1005B000E0958E238C932881E223E8839FBFDF910F
:1005C000CF9108958FB7F894EC91E22BEC938FBF05
:1005D000F6CFCF93DF93EC0161E08DE00E94B8028B
:1005E000209731F460E08DE0DF91CF910C9476029A
:1005F000CF3FD10511F461E0F6CFE1EDF1E0E491F8
:10060000E150E23108F0B0C0F0E0E75FFC4F0C943D
:100610006E4B1B032203270331033B03B403450343
:100620004D0355035F036903730382038C03B40313
:100630009603A003AA0384B5806884BDC7BDDF917B
:10064000CF91089584B5806284BDC8BDF8CF8091F4
:100650008000806880938000D0938900C0938800D8
:10066000EECF80918000806280938000D0938B00D9
:10067000C0938A00E4CF80918000886080938000DE
:10068000D0938D00C0938C00DACF8091B000806849
:100690008093B000C093B300D2CF8091B00080624D
:1006A0008093B000C093B400CACF8091900080685E
:1006B00080939000D0939900C0939800C0CF809110
:1006C0009000806280939000D0939B00C0939A002A
:1006D000B6CF80919000886080939000D0939D0069
:1006E000C0939C00ACCF8091A00080688093A00054
:1006F0008091A0008F7B8093A000D093A900C0932D
:10070000A8009DCF8091A00080628093A000D0932C
:10071000AB00C093AA0093CF8091A0008860809323
:10072000A000D093AD00C093AC0089CF8091200190
:10073000806880932001D0932901C09328017FCF46
:1007400080912001806280932001D0932B01C0937F
:100750002A0175CF80912001886080932001D09379
:100760002D01C0932C016BCFC038D1050CF043CFC5
:1007700039CF863308F0865320917B00982F9870EC
:10078000277F922B90937B008770806480937C00FE
:1007900080917A00806480937A0080917A0086FD4F
:1007A000FCCF809178009091790008953FB7F8943C
:1007B0008091420B9091430BA091440BB091450B5B
:1007C00026B5A89B05C02F3F19F00196A11DB11DAC
:1007D0003FBFBA2FA92F982F8827BC01CD01620FE8
:1007E000711D811D911D42E0660F771F881F991FA3
:1007F0004A95D1F708958F929F92AF92BF92CF9270
:10080000DF92EF92FF924B015C010E94D6036B01D5
:100810007C010E94D6036C197D098E099F09683EF0
:10082000734081059105A8F321E0821A9108A1087F
:10083000B10888EEC80E83E0D81EE11CF11C8114BB
:100840009104A104B10429F7FF90EF90DF90CF90BD
:10085000BF90AF909F908F9008952FB7F8946091BC
:100860003E0B70913F0B8091400B9091410B2FBF3D
:1008700008950895AF92BF92CF92DF92EF92FF92C8
:100880000F931F93CF93DF936C017B018B01040FB8
:10089000151FEB015E01AE18BF08C017D10759F054
:1008A0006991D601ED91FC910190F081E02DC60196
:1008B0000995892B79F7C501DF91CF911F910F9190
:1008C000FF90EF90DF90CF90BF90AF900895FC0124
:1008D000A089B1898C91A689B78982FD0FC09C91AE
:1008E000818D8F5F8F73228D821749F0A18DAE0F9E
:1008F000BF2FB11D5D969C93818F08958C910895B3
:10090000FC01538D448D252F30E0842F90E0821B15
:10091000930B541710F0CF96089501970895FC019A
:10092000918D828D981761F0A28DAE0FBF2FB11DF2
:100930005D968C91928D9F5F9F73928F90E008954A
:100940008FEF9FEF0895FC01918D828D981731F004
:10095000828DE80FF11D858D90E008958FEF9FEF58
:100960000895FC01918D228D892F90E0805C9F4F2E
:10097000821B91098F73992708958EE39DE00E9451
:10098000B10421E0892B09F420E0822F08958BED3A
:100990009DE00E94B10421E0892B09F420E0822F20
:1009A000089588E79EE00E94B10421E0892B09F4B4
:1009B00020E0822F089585E19FE00E94B10421E0AC
:1009C000892B09F420E0822F0895FC01A48DA80F43
:1009D000B92FB11DA35ABF4F2C91848D90E0019681
:1009E0008F739927848FA689B7892C93A089B189A1
:1009F0008C91837080648C93938D848D981306C042
:100A00000288F389E02D80818F7D80830895EF92A5
:100A1000FF920F931F93CF93DF93EC0181E0888FB8
:100A20009B8D8C8D98131AC0E889F989808185FF88
:100A300015C09FB7F894EE89FF896083E889F9892A
:100A400080818370806480839FBF81E090E0DF912C
:100A5000CF911F910F91FF90EF900895F62E0B8D7F
:100A600010E00F5F1F4F0F731127E02E8C8D8E113A
:100A70000CC00FB607FCFACFE889F989808185FFA1
:100A8000F5CFCE010E94E504F1CFEB8DEC0FFD2FE9
:100A9000F11DE35AFF4FF0829FB7F8940B8FEA895C
:100AA000FB8980818062CFCFCF93DF93EC01888D6B
:100AB0008823B9F0AA89BB89E889F9898C9185FDD9
:100AC00003C0808186FD0DC00FB607FCF7CF8C9167
:100AD00085FFF2CF808185FFEDCFCE010E94E50436
:100AE000E9CFDF91CF91089580E090E0892B29F044
:100AF0000E94DB0481110E94000080E090E0892BBD
:100B000029F00E94D10481110E94000080E090E051
:100B1000892B29F00E94C70481110E94000080E007
:100B200090E0892B29F00E94BD0481110C940000F3
:100B30000895CF93DF93009729F1EC01C05CDF4F5C
:100B4000888199810097F1F0DC01ED91FC91019091
:100B5000F081E02D69EF099588819981DC01ED91A3
:100B6000FC910190F081E02D62E0099588819981E6
:100B7000DC01ED91FC910190F081E02D65E0DF91C9
:100B8000CF910994DF91CF910895CF92DF92EF92A8
:100B9000FF920F931F93CF93DF93009709F473C0D5
:100BA000FC01E058FF4FC080CC2009F46CC0EC0180
:100BB000C05CDF4FA881B981109709F464C0FC01C3
:100BC000EF57FF4FE080F180F70111810081ED9137
:100BD000FC9111970190F081E02D60EFCD01099516
:100BE00088819981DC01ED91FC910190F081E02DEB
:100BF00069E7099588819981DC01ED91FC9101906B
:100C0000F081E02D602F099588819981DC01ED91BB
:100C1000FC910190F081E02D612F09958701EC2D69
:100C2000E250FF0B6F0188819981DC01ED91FC910D
:100C30000190F081E02D98012E193F092C153D05FA
:100C4000C0F4D80112966C916F77099588819981CB
:100C5000F801628170E0660F672F661F770BDC0179
:100C6000ED91FC910190F081E02D09950F5F1F4FF0
:100C7000DACF67EFDF91CF911F910F91FF90EF9047
:100C8000DF90CF900994DF91CF911F910F91FF904A
:100C9000EF90DF90CF9008951F93CF93DF93EC01F7
:100CA000653B710514F064EB70E0DB0177FF02C077
:100CB000B0E0A0E0A9831C812D81211B330B032E02
:100CC000000C440B550B542F432F322F22270E9428
:100CD000DE4924EB30E040E050E00E94B449612F4F
:100CE00070E090E080E0982F872F762F6627620FC4
:100CF000731F841F951F20E430E040E050E00E9405
:100D0000B4493B832A83DF91CF911F9108950895C1
:100D100081E00C94A40261E0FC0184810E947602CF
:100D20008091630681111092630608958EBD0000C4
:100D30000DB407FEFDCF8EB508958FEF0C94960687
:100D40000F931F93CF93DF93EC010E942D048B012F
:100D50000E949D068F3F69F00E942D04601B710B5D
:100D60006C177D07A8F380E0DF91CF911F910F9161
:100D7000089581E0F9CF8CBD9DBD0895CF93DF9399
:100D8000EC0180916306811109C081E080936306C4
:100D900080918711909188110E94BB0660E08C8140
:100DA000DF91CF910C947602CF92DF92EF92FF9277
:100DB0000F931F93CF93DF93EC01162F69017A01F4
:100DC0008E81882389F08F8198859C012F5F3F4F0A
:100DD00038872F838230924018F40E949D06F3CF0B
:100DE000CE010E948B061E82CE010E94BE068CE2BE
:100DF00091E00E94A006812F80640E94960608E17F
:100E000010E0D701C601002E04C0B695A7959795AE
:100E100087950A94D2F70E94960608501109083F58
:100E20008FEF180771F78FEF0E94960610E00E946F
:100E30009D068A8787FF04C01F3F11F01F5FF7CF11
:100E4000DF91CF911F910F91FF90EF90DF90CF90A6
:100E50000895CF92DF92EF92FF920F93CF93DF939B
:100E6000EC01690182E1411551056105710599F0B7
:100E70008B85833039F089E0440F551F661F771F3B
:100E80008A95D1F79A01AB0168E1CE010E94D406A0
:100E9000882319F084E08D832DC08EEF0E94960682
:100EA00076018EEFD81AF70181917F010E94960694
:100EB000EC14FD04C1F78FEF0E9496068FEF0E949D
:100EC00096060E949D068A878F71853071F4011104
:100ED00016C0CE010E948B0681E0DF91CF910F9169
:100EE000FF90EF90DF90CF90089581E18D83CE0148
:100EF0000E948B06CE010E948B0680E0EECF88E533
:100F000092E00E94A006811102C085E1C4CF20E0DA
:100F100030E0A9016DE0CE010E94D406882311F0D3
:100F200084E1B9CF0E949D068111FACFD2CF0F93F1
:100F3000409165065091660660916706709168065B
:100F4000411551056105710589F0082F29E636E044
:100F500090E080E00E942907882349F010926506FE
:100F600010926606109267061092680681E00F9153
:100F700008950F93CF93C82F80916406811105C007
:100F8000C1E08C2FCF910F9108954091F4025091C0
:100F9000F5026091F6027091F7020C2F29E636E017
:100FA00090E080E00E942907811102C0C0E0E9CFF3
:100FB000CC2331F381E00E9497078823B9F3109284
:100FC0006406DFCFAF92BF92CF92DF92EF92FF9293
:100FD0001F93CF93DF936B017C01142F8091F40258
:100FE0009091F502A091F602B091F7028C159D0543
:100FF000AE05BF0509F4ADC081E00E94B9078823A2
:10100000E1F1809106008823A1F080910000909189
:101010000100A0910200B0910300C816D906EA06AB
:10102000FB0639F48091070090910800892B09F4A0
:101030004FC0C0920000D0920100E0920200F092F6
:10104000030080910B00A7019601833039F099E0ED
:10105000220F331F441F551F9A95D1F761E190E08D
:1010600080E00E94D406882391F083E080930500FD
:1010700090E080E00E948B0680E0DF91CF911F918D
:10108000FF90EF90DF90CF90BF90AF9008950E94B7
:101090002D04EB010E949D0680930A008F3F79F496
:1010A0000E942D046C1B7D0B6D32714098F38FE014
:1010B0008093050090E080E00E948B06D9CF8E3FA0
:1010C000C1F5109208001092070081E0809306009D
:1010D000C9E6D6E089E6A82E88E0B82E0E949D06D3
:1010E0008993AC16BD06D1F7809107009091080056
:1010F0009E5F9093080080930700209109002223AF
:1011000019F081159240E8F0809106008823C9F01B
:1011100080910700909108009C012F5F3F4F309312
:101120000800209307008230924028F40E949D0618
:10113000EFCF8DE0BDCF90E080E00E948B06109253
:101140000600C092F402D092F502E092F602F0920C
:10115000F70240916406412B4093640681E08DCFF5
:101160004F925F926F927F928F929F92AF92BF92B7
:10117000CF92DF92EF92FF920F931F93CF93DF9363
:10118000EC01423051056105710590F480E0DF917A
:10119000CF911F910F91FF90EF90DF90CF90BF9074
:1011A000AF909F908F907F906F905F904F90089539
:1011B00089859A85AB85BC850196A11DB11D8417D3
:1011C0009507A607B70710F3CB88DC88ED88FE8863
:1011D0008F89803109F042C0BB27A72F962F852F1A
:1011E000480159012A013B01C80ED91EEA1EFB1E07
:1011F0008091F4029091F502A091F602B091F7026D
:10120000C816D906EA06FB0699F58F898031C1F523
:10121000B301A201552766277727440F551F475969
:10122000594FFA0191828082809164068160809397
:1012300064068A89823080F08D819E81AF81B88575
:101240008C0D9D1DAE1DBF1D809365069093660697
:10125000A0936706B093680681E099CFDB01CA01CD
:10126000E7E0B695A79597958795EA95D1F7B8CF1A
:1012700040E0C701B6010E94E2078111C6CF86CFC8
:10128000B301A2014F77552766277727440F551FD3
:10129000440F551F4759594FFA0180829182A2820B
:1012A000B382C2CF8F929F92AF92BF92CF92DF92C2
:1012B000EF92FF920F931F93CF93DF93FC018185F1
:1012C0009285A385B4850196A11DB11D841795074C
:1012D000A607B70770F480E0DF91CF911F910F91BF
:1012E000FF90EF90DF90CF90BF90AF909F908F9046
:1012F000089583889488A588B6888789803189F580
:10130000BB27A72F962F852FE9016A017B018F014B
:10131000BC01CD01680D791D8A1D9B1D8090F402D2
:101320009090F502A090F602B090F702861697060C
:10133000A806B90601F5F8018789803111F5DD2489
:10134000EE24FF24F601EE0FFF1FE759F94F8081CD
:101350009181B0E0A0E088839983AA83BB8381E078
:10136000BBCFDB01CA01C7E0B695A79597958795D6
:10137000CA95D1F7C9CF40E00E94E2078111DBCFC7
:10138000AACFE894C7F8DD24EE24FF24F601EE0F7F
:10139000FF1FEE0FFF1FE759F94F80819181A28156
:1013A000B381BF70D8CF8F929F92AF92BF92CF92EE
:1013B000DF92EF92FF920F931F93CF93DF93EC0195
:1013C0008D8181110EC080E0DF91CF911F910F912F
:1013D000FF90EF90DF90CF90BF90AF909F908F9055
:1013E00008950B891C892D893E8904171507260746
:1013F000370748F34A015B01823031F48A869B86C5
:10140000AC86BD8681E0E0CF81149104A104B104D3
:1014100049F41E821F82188619861A861B861C862E
:101420001D86F0CF0A851B852C853D85EB8DFC8DB7
:10143000858590E00996B901A801415051096109DB
:101440007109082E04C076956795579547950A94BB
:10145000D2F775016401E1E0CE1AD108E108F10884
:1014600004C0F694E794D794C7948A95D2F7C4162B
:10147000D506E606F70620F0012B022B032B11F50B
:101480008F89988DA98DBA8D8E839F83A887B98700
:101490008E010A5F1F4FC114D104E104F10409F465
:1014A000ADCF4E815F816885798598018B8D9C8D4C
:1014B0000E94520991E0C91AD108E108F10881118E
:1014C000EACF81CFC41AD50AE60AF70AE1CF3F92E4
:1014D0004F925F926F927F928F929F92AF92BF9244
:1014E000CF92DF92EF92FF920F931F93CF93DF93F0
:1014F000CDB7DEB72C970FB6F894DEBF0FBECDBFC9
:101500005C01DC015B968D909C905C9716964D90EB
:101510005D906D907C9019974114510461047104A1
:1015200009F468C0BFEF4B1A5B0A6B0A7B0A312CC7
:10153000F40181859285A385B4859C01AD012F5F5F
:101540003F4F4F4F5F4F29873A874B875C87730127
:1015500062011D821E821F821886F4018185928598
:10156000A385B4852D813E814F8158852817390781
:101570004A075B0708F056C089859A85AB85BC850C
:101580008C159D05AE05BF0550F482E0C82ED12C08
:10159000E12CF12C92E0492E512C612C712C9E01F2
:1015A0002F5F3F4FB701A601C4010E945209882353
:1015B000C9F189819A81AB81BC81892B8A2B8B2BC4
:1015C00009F1260137019FEF491A590A690A790A78
:1015D0002D813E814F8158852F5F3F4F4F4F5F4F89
:1015E0002D833E834F8358873FEFC31AD30AE30A04
:1015F000F30AB3CFF40140805180628073803324BA
:10160000339496CFC414D504E604F70409F70FEF1A
:101610001FEF2FEF3FE0B701A601C4010E94B00801
:10162000811119C080E02C960FB6F894DEBF0FBE72
:10163000CDBFDF91CF911F910F91FF90EF90DF9081
:10164000CF90BF90AF909F908F907F906F905F9062
:101650004F903F900895D50116964D915D916D91F3
:101660007C911997411551056105710539F0970174
:101670008601C4010E94B0088823A1F2D501169604
:10168000CD92DD92ED92FC921997332051F0D70163
:10169000C6010196A11DB11DF40180839183A2832F
:1016A000B383F5018789908DA18DB28D892B8A2B0B
:1016B0008B2B39F48481C78AD08EE18EF28E8068BC
:1016C0008483F50184818062848381E0ACCF1F93A1
:1016D000CF93DF93EC01162F8C8187FF2AC06E8594
:1016E0007F858889998941E00E94E207882361F11A
:1016F000EA8980E2E89FF0011124E759F94F309719
:1017000019F18D81823040F48B899C89AD89BE8925
:10171000848F958FA68FB78F8F89988D938F828FA7
:101720008F89988DA98DBA8DB58BA48B8C818F777D
:101730008C83111103C08C818F7E8C83812FDF916C
:10174000CF911F910C94B90780E0DF91CF911F9149
:1017500008951F93CF93DF93EC018D81813031F099
:1017600090E080E0DF91CF911F9108958C8181FFFF
:10177000F7CF82FD1BC090E080E00E94BE060E9471
:101780009D06182F90E080E00E948B061F3F41F7D6
:101790008C8185FF1EC08D81882321F060E0CE0101
:1017A0000E94670B8C818F7D8C83DACF4B895C899B
:1017B0006D897E898A859B85AC85BD858417950753
:1017C000A607B707C1F2CE010E94D3098111D3CF7A
:1017D000C7CF40916506509166066091670670918B
:1017E0006806452B462B472B21F080E00E94970787
:1017F000B7CF80618C832A853B85317080E092E091
:10180000821B930BAFCF9F92AF92BF92CF92DF928A
:10181000EF92FF920F931F93CF93DF9300D000D0EE
:101820001F92CDB7DEB78C016D83DC0115968C91CC
:101830001597813009F0B9C014968C9181FFB5C01D
:1018400082FD9FC0D8015B96ED91FC915C971A9642
:10185000AD90BD90CD90DC901D9794809A94B60188
:10186000A50189E076956795579547958A95D1F7B3
:101870009422B1E0BB22992009F49FC0D8015B9665
:10188000ED91FC915C971696CD90DD90ED90FC90DB
:101890001997B2E0CB1AD108E108F108858504C098
:1018A000CC0CDD1CEE1CFF1C8A95D2F746855785B3
:1018B00060897189C40ED51EE61EF71EC90CD11CA5
:1018C000E11CF11CA114B10409F00AC1F801428520
:1018D00053856485758583899489A589B689481758
:1018E00059076A077B0708F4FBC081E00E94B9072B
:1018F000882309F45AC0C092F402D092F502E09213
:10190000F602F092F702809164068160809364068B
:10191000F501E759F94F8D818083F8018285938520
:10192000A485B5850196A11DB11D82879387A487E3
:10193000B5874389548965897689481759076A07A5
:101940007B0738F42481838B948BA58BB68B20681E
:101950002483D80114968C9183FD9FC081E090E090
:101960000F900F900F900F900F90DF91CF911F91DC
:101970000F91FF90EF90DF90CF90BF90AF909F902E
:101980000895F8014389548965897689828593850C
:10199000A485B585481759076A077B0709F452CF14
:1019A000C8010E94D30981114DCF81E090E0D80198
:1019B00013969C938E93129749C0D80116964D9119
:1019C0005D916D917C911997A114B10409F071C0DA
:1019D000411551056105710589F557968D919D91C8
:1019E0000D90BC91A02D0097A105B10509F04FC045
:1019F000C8010E94670A8823C1F2D8015B96ED9165
:101A0000FC915C971696CD90DD90ED90FC90199727
:101A1000B2E0CB1AD108E108F108858504C0CC0CEE
:101A2000DD1CEE1CFF1C8A95D2F746855785608920
:101A30007189C40ED51EE61EF71E48CF9E012F5F8A
:101A40003F4FCF010E945209811103C090E080E016
:101A500087CF89819A81AB81BC81F801238D348D38
:101A6000F901278948EF5FEF60E070E0203121F055
:101A700048EF5FEF6FEF7FE084179507A607B70782
:101A800030F0C8010E94670A8111F8CE8ECFF801AC
:101A900086839783A087B187F1CEF801858188235B
:101AA00009F483CF61E0C8010E94670B811156CF12
:101AB0007CCF6A017B01B2E0CB1AD108E108F108C2
:101AC000858504C0CC0CDD1CEE1CFF1C8A95D2F76A
:101AD0004685578560897189C40ED51EE61EF71E9E
:101AE00041E0C701B6010E94E207811111CF5DCF2D
:101AF0000895089508950895E0919A0880919908AD
:101B0000E81730F4F0E0E556F74F808190E0089553
:101B10008FEF9FEF089590919A08809199082FEF89
:101B20003FEF981748F4E92FF0E0E556F74F208192
:101B300030E09F5F90939A08C901089580919908B9
:101B400090919A08891B990B089590E080E0089580
:101B500020911206260F3327331F21323105ECF472
:101B600020919308FC0190E080E0243069F082E04D
:101B70000895A09112062191AC0140515A4FA40F33
:101B8000B52FB11D2C930196861798F380911206FC
:101B9000680F6093120680E0089581E00895CF9267
:101BA000DF92EF92FF920F931F93CF93DF937C010D
:101BB000CB018A0120916C08222389F0EB016B0193
:101BC000C40ED51ECC15DD0569F06991D701ED91E4
:101BD000FC910190F081E02DC7010995F3CF642FAE
:101BE0000E94A80DC801DF91CF911F910F91FF9026
:101BF000EF90DF90CF900895CF93DF931F92CDB7F2
:101C0000DEB7698320916C082223F9F020916908DE
:101C1000203258F021E030E0FC013383228390E051
:101C200080E00F90DF91CF91089580916A08E82FAE
:101C3000F0E0E95CF94F998190838F5F80936A08A7
:101C40008093690881E090E0ECCF61E0CE010196DD
:101C50000E94A80DF7CF1092930881E0809392081C
:101C600010928D0861E084E10E94760261E085E1D6
:101C70000E947602E9EBF0E080818E7F8083808194
:101C80008D7F808388E48093B80085E48093BC00D6
:101C90000895CF93DF9391E09093EF058823B9F0F7
:101CA000C091B800D091BA008091BC008A7B80932B
:101CB000BC0060E084E10E94760260E085E10E9461
:101CC00076020E942B0ED093BA00C093B800DF9129
:101CD000CF910895CF92DF92EF92FF920F931F93CF
:101CE000CF93DF93D091690881E0D13208F09CC096
:101CF000C0916B080E94D6036B017C018091930810
:101D000081116CC082E08093930881E080939208F7
:101D10008FEF8093910810929008D0938F08A7E3DB
:101D2000B6E0EDE6F8E080E0D8138DC010928E08A2
:101D300080918E08CC0FC82BC0938E0880918D089F
:101D4000813009F084C010928D080E94D6036B0187
:101D50007C0180918E088093BB00809195089091C2
:101D60009608A0919708B0919808892B8A2B8B2B05
:101D7000A1F00E94D6030091950810919608209139
:101D80009708309198086C197D098E099F090617EC
:101D900017072807390708F442C08091BC0083FD6B
:101DA000D8CF85EC8093BC000E94D6036B017C01E8
:101DB00080919308823009F44CC0809191088F3F44
:101DC00009F469C080919108803209F466C080915D
:101DD0009108803309F463C084E026C0809195089F
:101DE00090919608A0919708B0919808892B8A2B1A
:101DF0008B2B09F483CF0E94D60300919508109194
:101E0000960820919708309198086C197D098E09E1
:101E10009F09061717072807390708F06FCF809129
:101E200094080E94490E85E010926A081092690891
:101E300010926C08DF91CF911F910F91FF90EF905E
:101E4000DF90CF9008959D9191938F5F6DCF85EE38
:101E5000A9CF8091950890919608A0919708B0918C
:101E60009808892B8A2B8B2B09F4A2CF0E94D603CA
:101E70000091950810919608209197083091980844
:101E80006C197D098E099F0906171707280739075E
:101E900008F08ECFC4CF80E0C7CF82E0C5CF83E00B
:101EA000C3CF8F929F92AF92BF92CF92DF92EF9269
:101EB000FF920F931F93CF93DF936A014801E701CD
:101EC00091E090936C0880936B0810926A081092CE
:101ED0006908E881F9810190F081E02DC701099539
:101EE0008C0C9D1CC814D90459F0E881F98101902B
:101EF000F081E02DD6016D916D01CE010995F2CFF3
:101F0000CE010E946A0E90E080E0DF91CF911F9198
:101F10000F91FF90EF90DF90CF90BF90AF909F9088
:101F20008F900895EF92FF920F931F93AB01FC01E6
:101F3000EB5BFE4FE080F1808F5B9E4F06E010E090
:101F400020E030E060EBFC0180810E94510F892B82
:101F500031F08CEE1F910F91FF90EF90089580E08B
:101F6000F9CFEF92FF920F931F93CF93DF9300D09F
:101F7000CDB7DEB7FC01EF5BFE4F70813496E08099
:101F8000F1804A83598302E010E020E030E0AE01A6
:101F90004F5F5F4F872F0E94510F892B51F08CEEBE
:101FA0000F900F90DF91CF911F910F91FF90EF90C5
:101FB000089580E0F5CFEF92FF920F931F93CF9398
:101FC000DF931F92CDB7DEB7FC01EF5BFE4F708150
:101FD0003496E080F180498301E010E020E030E0B9
:101FE000AE014F5F5F4F872F0E94510F892B49F041
:101FF0008CEE0F90DF91CF911F910F91FF90EF909A
:10200000089580E0F6CF9C014297079720F481E085
:102010002531310509F480E0089542978730910514
:1020200040F484529C4FFC018081082E000C990BD7
:10203000089590E080E008958631910514F482516E
:10204000089583510895CF92DF92EF92FF920F93FC
:102050001F93CF93DF937C016B01EA01413051055F
:10206000F1F4621773074CF40E941C10E82FF0E0A3
:10207000E85FFC4F8081853690F50C151D05CCF589
:10208000C7010E941C10E82FF0E0E85FFC4FC1E0A0
:10209000D0E08081843600F1D0E0C0E01DC062173E
:1020A00073075CF40E941C10E82FF0E0E85FFC4F1F
:1020B0008081C1E0D0E0843690F00C151D05CCF491
:1020C000C7010E941C10E82FF0E0E85FFC4FC1E060
:1020D000D0E08081853600F3D195C195D109CE013C
:1020E000DF91CF911F910F91FF90EF90DF90CF90F4
:1020F0000895D0E0C0E0F3CF8091EB059091EC051E
:10210000A091ED05B091EE050196A11DB11D809342
:10211000EB059093EC05A093ED05B093EE050895C3
:102120004F925F926F927F928F929F92AF92BF92E7
:10213000CF92DF92EF92FF920F931F93CF93DF9393
:10214000D82F6A01480181E080936C08D0936B0816
:1021500010926A0810926908D701ED91FC910190E4
:10216000F081E02DC7010995C7010E946A0E0E9407
:10217000D6032B013C0180919308811166C0C82DC4
:1021800081E080939308809392089FEF9093910849
:1021900010929008980D90938F0880938E088091EC
:1021A0008E08DD0FD82BD0938E0880918D0881305A
:1021B00009F086C010928D080E94D6032B013C01C5
:1021C00080918E088093BB0080919508909196082D
:1021D000A0919708B0919808892B8A2B8B2BA1F09E
:1021E0000E94D603009195081091960820919708B7
:1021F0003091980864197509860997090617170719
:102200002807390708F442C08091BC0083FDD8CF6D
:1022100085EC8093BC000E94D6032B013C01809189
:102220009308813009F44EC0809190088C1710F407
:10223000C0919008EDE6F8E0ABE9B8E080E08C17DB
:1022400051F191919D938F5FFACF80919508909174
:102250009608A0919708B0919808892B8A2B8B2B10
:1022600009F489CF0E94D603009195081091960831
:102270002091970830919808641975098609970983
:10228000061717072807390708F075CF80919408BB
:102290000E94490EC0E010929A08C09399088C0CD5
:1022A0009D1CC814D90481F1D701ED91FC910284E1
:1022B000F385E02DC7010995F60181936F01F1CFF8
:1022C00085EEA7CF8091950890919608A0919708E8
:1022D000B0919808892B8A2B8B2B09F4A0CF0E94F0
:1022E000D603009195081091960820919708309197
:1022F00098086419750986099709061717072807AA
:10230000390708F08CCFC2CF90E080E0DF91CF9109
:102310001F910F91FF90EF90DF90CF90BF90AF9003
:102320009F908F907F906F905F904F9008952F9225
:102330003F924F925F926F927F928F929F92AF9255
:10234000BF92CF92DF92EF92FF920F931F93CF93A2
:10235000DF93CDB7DEB72F970FB6F894DEBF0FBE71
:10236000CDBF9C878B876D875F874E8739011701AB
:1023700028012F82388649865A8610E000E0EE2434
:10238000E394F12C0A151B0509F461C09E01295F35
:102390003F4FB201A1018E859F850E9467014F8149
:1023A000588569857A854F3F2FEF5207620772077C
:1023B00009F49CC0DB01CA018C549F4FAF4FBF4F43
:1023C000E6E0B695A79597958795EA95D1F7880F9A
:1023D000991F880F991F825B9B4F21E0FC01808130
:1023E0009181A281B381892B8A2B8B2B09F420E068
:1023F000FD85F2137BC01A012B0133E056944794FC
:10240000379427943A95D1F7DB01CA018770992751
:10241000AA27BB2726E0221631044104510468F4A0
:10242000F301E20DF31D970102C0220F331F8A95BD
:10243000E2F7C9019081892B80831A012B013FEFBC
:10244000231A330A430A530A0F5F1F4F9BCFB12C45
:10245000F4012082318242825382B1102DC0B30137
:102460008B859C850E94920FB82E811125C0EB852B
:10247000FC85EB5BFE4FE080F180EB85FC85EF5B3C
:10248000FE4F06E010E020E030E0AE014F5F5F4F0E
:1024900060EB80810E949010892B11F09CEEB92E88
:1024A000F301DE011196C301069631912D9132138D
:1024B00020C0E817F907C9F78B2D2F960FB6F894AF
:1024C000DEBF0FBECDBFDF91CF911F910F91FF9067
:1024D000EF90DF90CF90BF90AF909F908F907F90C4
:1024E0006F905F904F903F902F9008952EECB22EFA
:1024F000AFCF8EECB82EE0CFCF92DF92EF92FF926B
:102500000F931F93CF93DF9300D000D0CDB7DEB7EA
:102510006A01FC01EB5BFE4FE080F1808F5B9E4F18
:1025200004E010E020E030E0AE014F5F5F4FFC01BF
:1025300080810E94901049815A8154274527542751
:1025400070E060E0762F652F542F44272B81422BBB
:10255000762F652F542F44272C81422BF601408380
:10256000518362837383892B71F480E00F900F9005
:102570000F900F90DF91CF911F910F91FF90EF90EF
:10258000DF90CF9008958CEEF1CFCF92DF92EF9253
:10259000FF920F931F93CF93DF9300D0CDB7DEB799
:1025A0006A01FC01EB5BFE4FE080F1808F5B9E4F88
:1025B00002E010E020E030E0AE014F5F5F4FFC0131
:1025C00080810E94901029813A8132272327322767
:1025D000F60131832083892B61F480E00F900F9006
:1025E000DF91CF911F910F91FF90EF90DF90CF90EF
:1025F00008958CEEF3CFEF92FF920F931F93CF933A
:10260000DF9300D0CDB7DEB78C017A01633071055E
:1026100009F449C090F46130710509F16230710527
:10262000E1F1F80181A992A9A3A9B4A9F7018083D6
:102630009183A283B38380E049C06630710588F737
:10264000AE014F5F5F4F64E60E94C51281113EC02C
:10265000298180E0922F990FB0E0A0E0E7CFAE0192
:102660004F5F5F4F64E40E94C51281112FC09981B2
:1026700020E0392F330FA90170E060E0232BD1F067
:10268000F7014083518362837383F80145AB56ABF6
:1026900067AB70AF91E096A319C0FC0181AD92AD1C
:1026A000A3ADB4ADC3CFFC01FD9680819181A28121
:1026B000B381BCCFF80145A956A967A970ADF70150
:1026C0004083518362837383F80116A20F900F90A9
:1026D000DF91CF911F910F91FF90EF9008958F920E
:1026E0009F92AF92BF92CF92DF92EF92FF920F93A1
:1026F0001F93CF93DF9300D0CDB7DEB7962ED42EA5
:10270000822EFC01EF5BFE4FC0805C012BEBA21A16
:102710002EEFB20AF501E080F18001E010E020E048
:1027200030E0AE014E5F5F4F8C2D0E949010892BE0
:10273000A9F42A812D2128292A83F501E080F1803E
:10274000298301E010E020E030E0AE014F5F5F4FF1
:10275000692D8C2D0E94510F892B81F08CEE0F90EA
:102760000F90DF91CF911F910F91FF90EF90DF902D
:10277000CF90BF90AF909F908F90089580E0EFCF63
:10278000EF92FF920F931F93FC01EB5BFE4FE080F3
:10279000F1808F5B9E4F01E010E020E030E0FC0113
:1027A00080810E949010892B31F08CEE1F910F9147
:1027B000FF90EF90089580E0F9CFEF92FF920F9392
:1027C0001F93CF93DF931F92CDB7DEB77C0100E05C
:1027D00041E06BE0C7010E94DB0F182F40E06BE087
:1027E000C7010E94DB0F182BAE014F5F5F4F63E103
:1027F000C7010E94C013812B0F5F9981977061F010
:10280000033061F0882321F30F90DF91CF911F9166
:102810000F91FF90EF9008950330B1F784EFF4CF5C
:102820009F92AF92BF92CF92DF92EF92FF920F935F
:102830001F93CF93DF931F92CDB7DEB77C015B016F
:102840006A01922E198241E06FEF0E94DB0F182F70
:1028500040E060E0C7010E94DB0F182B40E06FEF03
:10286000C7010E94DB0F182B992031F0A5016BECFA
:10287000C7010E94C013182B002341F0AE014F5F27
:102880005F4F6EEEC7010E94C013182B41E06FEF3F
:10289000C7010E94DB0F182B41E060E0C7010E94D6
:1028A000DB0F182B40E06FEFC7010E94DB0F99810F
:1028B0009F7EF6019083812B0F90DF91CF911F9126
:1028C0000F91FF90EF90DF90CF90BF90AF909F90CF
:1028D00008950F931F93CF93DF931F92CDB7DEB769
:1028E0008A01AE014F5F5F4F613081F060E50E9469
:1028F000C013811105C099819F5F990FF8019083E2
:102900000F90DF91CF911F910F91089560E7EFCF66
:10291000CF92DF92EF92FF921F93CF93DF931F929C
:10292000CDB7DEB77C0140E063E80E94DB0F182FD3
:10293000811117C0D12CC12CAE014F5F5F4F63E8EE
:10294000C7010E94C013182F898181110AC011117B
:1029500008C08FEFC81AD80A88ECC816D10461F7EE
:1029600019EF41E063E8C7010E94DB0F812B0F9054
:10297000DF91CF911F91FF90EF90DF90CF9008955E
:10298000CF92DF92EF92FF920F931F93CF93DF933B
:102990001F92CDB7DEB77C0110E000E06C018EEC39
:1029A000C80ED11CF6018081AE014F5F5F4F8430AD
:1029B000A9F463E1C7010E94C0139981292F2770F0
:1029C000987111F58823D9F00F90DF91CF911F9165
:1029D0000F91FF90EF90DF90CF90089564E1C701D1
:1029E0000E94C0138111F0CF998190FDEDCF0F5F50
:1029F0001F4F083C110531F00E943F01D3CF243016
:102A0000B1F7E2CF89EFE0CF8AEFDECFCF93DF934C
:102A1000EC01462F416060E00E94DB0F811111C084
:102A2000CE010E94C01481110CC0CE010E94DD13A2
:102A3000811107C040E060E0CE01DF91CF910C949E
:102A4000DB0FDF91CF9108957F928F929F92AF928B
:102A5000BF92CF92DF92EF92FF920F931F93CF938B
:102A6000DF931F92CDB7DEB77C015B016A01722E46
:102A70004C0183EE881A8EEF980AF40110811982B6
:102A800041E061E0C7010E94DB0F81114AC060E4B0
:102A9000C7010E940615811144C0F1E07F121AC0DF
:102AA00000E021E0AE014F5F5F4FB501C7010E941A
:102AB0001014882389F00F90DF91CF911F910F910F
:102AC000FF90EF90DF90CF90BF90AF909F908F904E
:102AD0007F900895F501108242E061E0C7010E94F5
:102AE000DB0F811124C060E0C7010E94061581112F
:102AF0001EC0F1E07F1218C001E020E0A601BE0177
:102B00006F5F7F4FC7010E9410148111D4CF412FF6
:102B100061E0C7010E94DB0F8111CDCFF40110836A
:102B2000CACFF5011082C7CFF6011082F0CFF601AF
:102B3000F9CF2F923F924F925F926F927F928F9236
:102B40009F92AF92BF92CF92DF92EF92FF920F933C
:102B50001F93CF93DF93CDB7DEB7EC970FB6F89402
:102B6000DEBF0FBECDBF6C015B01DC0150961C9235
:102B700041E060E80E94DB0F41E06FEFC6010E9478
:102B8000DB0F40E060E0C6010E94DB0FF601E95D6B
:102B9000FE4F408161E9C6010E94DB0F41E060E029
:102BA000C6010E94DB0F40E06FEFC6010E94DB0F01
:102BB00040E060E8C6010E94DB0F41E060E0C60132
:102BC0000E94DB0F811116C091E09983412C512C9A
:102BD0003201BFEF4B1A5B0A6B0A7B0A998190FFA7
:102BE0002AC08111B6C2E8EC4E165104610471048A
:102BF000D1F489EFEC960FB6F894DEBF0FBECDBFCF
:102C0000DF91CF911F910F91FF90EF90DF90CF90C8
:102C1000BF90AF909F908F907F906F905F904F90FC
:102C20003F902F900895AE014F5F5F4F60E0C60167
:102C30000E94C013CECFF8EC4F165104610471040A
:102C4000C1F28111D7CFC6010E94C0148111D2CF29
:102C500083E0F601E15EFE4F8083B696E080F1806E
:102C60000CE010E020E030E0AE01465E5F4F64E132
:102C7000349780810E949010892B11F08CEEBACF8E
:102C8000D50156961C925697F50110821182128238
:102C900013826CA170E0762F66272DA1620F711D43
:102CA00014961D921D921D921C921797E9A1F0E0B7
:102CB000FE2FEE27FF0F2F01712C612C1C964D92D9
:102CC0005D926D927C921F978BA190E0982F882740
:102CD000990F8C0130E020E050960D931D932D93B9
:102CE0003C9353970C8D10E0102F00272D8D780109
:102CF000E20EF11CFCAEEBAE5596FC92EE925497B0
:102D00009A8CD601A75CBE4F2D913C9111975B9791
:102D10008C90283E03E03007E9F1629FC001639F79
:102D2000900D729F900D11248C509E4F68EE73E0B1
:102D30000E94464BD6015D96ED90FD900D911C9141
:102D400090975A962C91222329F12BAD3CAD2E9DC4
:102D5000A0012F9D500D3E9D500D1124452F55274C
:102D6000E417F50741F460EE7AE8882009F4E3C03F
:102D700068EB72E212C09F01DB010E94084A8301E6
:102D80007F01E41AF50A01091109A80197010E94BF
:102D9000E649B901882009F4CEC0CB019695879504
:102DA00096958795D50119969C938E931897629561
:102DB000660F660F607C57966C931FA61EA6892D22
:102DC00090E07C0173E0F594E7947A95E1F7FAAE30
:102DD000E9AE09AD0F70902E09F4B2C089AD8D70C7
:102DE00011E018AB853029F084EF800F843008F0B3
:102DF00018AA41E06FEFC6010E94DB0F811107C0E6
:102E0000AE01425D5F4F66EBC6010E94C5129EA5F2
:102E100020E0392F330F790110E000E0E9AAFAAA87
:102E20000BAB1CAB811105C040E06FEFC6010E94E7
:102E3000DB0FF601EE5CFE4FE9A8FAA80BA91CA96E
:102E4000E082F18202831383811178C1D6019596C5
:102E50008C909597882009F47FC0F501E484F5846F
:102E6000068517855A968C9120E030E0A9018823C9
:102E700099F0A489B589F601258D368D478D50A12D
:102E80000E94D3499B01AC0120583F4F4F4F5F4FE9
:102E9000232F342F452F55272E0D3F1D401F511F27
:102EA000A8EEB3E00E94D34970588F4F9F4FBC01EA
:102EB00088279927F601E65DFE4F672B682B692B63
:102EC00009F041C08EEA97E8AFE8B2E080839183D1
:102ED000A283B3831EEAE12E17E8F12E0FE812E079
:102EE000EDAAFEAA0FAB18AFD5011B961C921E923D
:102EF0001A97AE01465D5F4F70E060E0C6010E9428
:102F0000FB124AA55BA56CA57DA541155105610580
:102F1000710559F0FF24F3940DA91EA92FA938AD0E
:102F2000401751076207730708F0F12C8823A9F0B6
:102F3000212C312C07C1F50171876087178A3DCF9D
:102F400001E008AB56CF10821182128213821DAAB3
:102F50001EAA1FAA18AEC8CFF12CD60197963C9096
:102F6000332009F4C5C0AE014A5D5F4F62E070E0F6
:102F7000C6010E94FB124EA15FA168A579A541156B
:102F800051056105710559F0EE24E39409A91AA9C8
:102F90002BA93CA9401751076207730708F0E12CE1
:102FA000212C90E0811132C0D60198962C902220DD
:102FB00009F4A4C00BAD1CAD0115110509F49AC0AC
:102FC000962D852D742D6627980150E040E00E94D3
:102FD000E64929013A01AE014F5F5F4F63E070E0BF
:102FE000C6010E94FB1249815A816B817C81411587
:102FF00051056105710531F091E0441655066606EC
:10300000770608F090E0882309F479C0D5011B9673
:103010001C921E921A9780E0811002C0FF24F39444
:10302000F60136A1F3A6F4E09F1609F4B0C021E042
:10303000311120E0D6019C962C93311002C0EE2471
:10304000E394F601E5A6211001C091E0D6019E9619
:103050009C93F501808F9601265B3F4F99E1F90122
:10306000DE01119601900D929A95E1F7D50118961F
:10307000ED91FC91199757969C9157971A966D91DF
:103080007C911B971C96ED90FD900D911C911F97C4
:1030900050964D905D906D907C90539754964D91C5
:1030A0005C91559714968D909D90AD90BC9017971C
:1030B0008D829E82AF82B886FA87E9877C876B878C
:1030C000ED86FE860F87188B498A5A8A6B8A7C8A1E
:1030D0005E8B4D8B988F898F89E1FE013196D901E6
:1030E00001900D928A95E1F7C6010E94DD1382CD11
:1030F000E12C5ACF412C512C32016DCF90E018A910
:103100008FEF113009F488CF890D8330F0F026E07D
:10311000921639F139E0931621F189AD8D7088301E
:10312000B1F041E0E41699F054E0951639F1913090
:1031300001F1F41601F19F2DEF2C68CF212C312CD9
:10314000812CF12C90E0E12C61CF85E065CF83E00C
:1031500063CFB8EC4B1651046104710409F04ACDF9
:1031600048CD84E081105CCFF60136A121E023A791
:103170005ECF82E0F7CFE92E81E0F4CF82E08110CC
:103180004FCF81E0D6019B968C93E12C82E021E029
:1031900051CFAF92BF92DF92EF92FF920F931F93A6
:1031A000CF93DF93CDB7DEB769970FB6F894DEBF44
:1031B0000FBECDBF8C015B017C0183EEE81A8EEF60
:1031C000F80AF701D08040EC61E0C8010E94DB0FF3
:1031D000811126C0BE016F5F7F4FC8010E94991503
:1031E00081111EC041E06FEFC8010E94DB0F811109
:1031F00017C0A50166EBC8010E94C512811110C05D
:1032000040E06FEFC8010E94DB0F811109C04D2D16
:1032100061E0C8010E94DB0F811102C0F701D0827A
:1032200069960FB6F894DEBF0FBECDBFDF91CF9188
:103230001F910F91FF90EF90DF90BF90AF90089596
:103240002F923F924F925F926F927F928F929F92B6
:10325000AF92BF92CF92DF92EF92FF920F931F93A4
:10326000CF93DF93CDB7DEB7AC970FB6F894DEBF40
:103270000FBECDBF1C017FA36EA359A748A71F8215
:10328000188619861A861B861C861D861E86198A34
:103290001A8AFC01E85DFE4F20813181398F288F29
:1032A000AC014F5E5E4F5B8F4A8FDA011C922C019E
:1032B000BEEE4B1ABEEF5B0AF20110823C01FDEE3E
:1032C0006F1AFEEF7F0AD3011C92FC01EC5EFE4FE9
:1032D0001082319610823196108241E06FEF0E9489
:1032E000DB0F8B8B81111DC140E06FE4C1010E9497
:1032F000DB0F8B8B811115C14CE26EE4C1010E9482
:10330000DB0F8B8B81110DC140E06FEFC1010E947B
:10331000DB0F8B8B811105C144EB66EBC1010E9471
:10332000DB0F8B8B8111FDC040E060E8C1010E9482
:10333000DB0F8B8B8111F5C020E0AE014E5E5F4F3D
:10334000BE016F5E7F4FC1010E9424158B8B8111DE
:10335000E8C01F82188619861A86F101E95EFE4FC1
:10336000FD8FEC8F9E01295F3F4F4901A3E0AA2EFC
:10337000B12CC12CD12CE12CF12C87012A8D3B8D55
:10338000AF0160E0C1010E9497118B8B8111C9C010
:103390004F81588569857A854C8B5D8B6E8B7F8BD1
:1033A000BE01615F7F4FC1010E94C9188B8B8111E3
:1033B000B8C08F859889688D798D6817790708F06E
:1033C000D3C0AA8DBB8D1C92F2011082D3011C9236
:1033D0003296108231961082319610828C899D89A6
:1033E000AE89BF898C549F4FAF4FBF4FE6E0B69573
:1033F000A79597958795EA95D1F7880F991F880F1C
:10340000991F825B9B4FFC0180819181A281B381D6
:10341000892B8A2B8B2B91F42C893D894E895F89CE
:103420002C3231054105510548F42F5F3F4F4F4F76
:103430005F4F2C8B3D8B4E8B5F8BD0CFAE01495FA6
:103440005F4F4A0173E0A72EB12CC12CD12CEC8820
:10345000FD880E891F892A8D3B8D4C8D5D8D61E025
:10346000C1010E949711811159C16F8178858985A9
:103470009A856C8B7D8B8E8B9F8BBE01615F7F4F9E
:10348000C1010E94C918811149C18F859889A88DF1
:10349000B98D11E063E0462E512C612C712CA817D8
:1034A000B90720F010E0412C512C3201C12CD12C55
:1034B0007601C39460C0D501C4010196A11DB11D60
:1034C0008C8B9D8BAE8BBF8B86E0EAA5FBA5ACA554
:1034D000B02F01900D928A95E1F74E8C5F8C68A019
:1034E00079A04AA35BA36CA37DA36FC04E8C5F8CB5
:1034F00068A079A0AEA1BFA14D925D926D927C9221
:103500001397E8A5F9A51083F101EC5FFE4F81E068
:10351000808332978C918083A8A5B9A58C91319630
:1035200080838B89AC960FB6F894DEBF0FBECDBFFB
:10353000DF91CF911F910F91FF90EF90DF90CF908F
:10354000BF90AF909F908F907F906F905F904F90C3
:103550003F902F900895BEECBB8BE3CFEEECEB8B4E
:10356000E0CFFEECFB8BDDCF10E0412C512C320183
:10357000C12CD12C76018F859889288D398D8217A1
:10358000930708F0B7CF46E0EA8DFB8D9E012F5FD1
:103590003F4FD90101900D924A95E1F7E88DF98DE1
:1035A0008E1B9F0BAC0170E060E04AA35BA36CA391
:1035B0007DA353E0452E512C612C712CB1016F5E1F
:1035C0007E4F7BA76AA72CA7032F9E01255F3F4F45
:1035D0004C895D896E897F898C8D9D8D0E946701E4
:1035E0008B849C84AD84BE847FEF87169706A706E4
:1035F000B70609F4B0CFD301C2010196A11DB11DD8
:103600008E8F9F8FA8A3B9A3D501C4018C549F4F5F
:10361000AF4FBF4F36E0B695A795979587953A95EA
:10362000D1F7880F991F880F991F825B9B4F11E07C
:10363000FC0180819181A281B381892B8A2B8B2B04
:1036400009F410E0812F90E0B0E0A0E08C159D051A
:10365000AE05BF0509F082CFD501C40123E0B695C0
:10366000A795979587952A95D1F7B501A40147703D
:1036700055276627772786309105A105B10508F003
:1036800070CFEA8DFB8DE80FF91F21E030E001C01B
:10369000220F4A95EAF78081822B80836A8D7B8D89
:1036A000C1010E94920F811139C0BE01615F7F4F3D
:1036B000C1010E94C918811131C08F859889288D58
:1036C000398DAC01421B530B8217930711F450E064
:1036D00040E070E060E0A88DB98DA817B90708F048
:1036E000EACE8AA19BA1ACA1BDA184179507A6072C
:1036F000B70708F0FBCEBE016F5F7F4FC1010E948C
:10370000920F96E0FE013196D101AF5EBE4F01905F
:103710000D929A95E1F7882309F4ECCE8B8B01CFBB
:103720000F931F93CF93DF931F92CDB7DEB78B011B
:103730001982AE014F5F5F4F61E00E94C01381119B
:1037400016C0998194FB332730F9F801308393FB3D
:10375000332730F9328392FB332730F9318396FBDC
:10376000222720F92383991F9927991F94830F906B
:10377000DF91CF911F910F9108952F923F924F9219
:103780005F926F927F928F929F92AF92BF92CF92F1
:10379000DF92EF92FF921F93CF93DF93CDB7DEB707
:1037A0002B970FB6F894DEBF0FBECDBF6C011A0188
:1037B0001B861F821E82623009F06EC0AE01465F1A
:1037C0005F4F60E00E946914182F811108C0AE019C
:1037D000455F5F4F66E4C6010E94C013182FAA859B
:1037E000B0E020E03FE24AE350E00E94D3492B01E1
:1037F0003C0124EF420E21E0521E611C711CCB845F
:10380000D12CF12CE12C8FEFC81AD80AE80AF80A5B
:1038100098EE892E93E0992EA12CB12CC301B20110
:10382000A50194010E94E649CA01B901A7019601C8
:103830000E94364B6B017C01C301B20120ED37E0E1
:1038400040E050E00E94E649C701B601620F731FD5
:10385000841F951FA50194010E94E649F101208370
:10386000318342835383812F2B960FB6F894DEBFAA
:103870000FBECDBFDF91CF911F91FF90EF90DF90F2
:10388000CF90BF90AF909F908F907F906F905F9000
:103890004F903F902F900895633009F043C0AE01E0
:1038A000465F5F4F60E00E946914182F20E030E00F
:1038B000A9018111D3CFAE01465F5F4F60E0C60121
:1038C0000E946914182F811108C0AE014A5F5F4F32
:1038D00061E5C6010E94C512182FEE81FF81AA85FD
:1038E000B0E020E03FE24AE350E00E94D3492B01E0
:1038F0003C0124EF420E21E0521E611C711C6F013D
:10390000DD24F12CE12C04C0CC0CDD1CEE1CFF1CD2
:10391000FA95D2F78FEFC81AD80AE80AF80AEE2407
:10392000FF2476CFBE016F5F7F4F0E94901B8C817A
:10393000882351F1AE01465F5F4F60E0C6010E94EF
:103940006914182FF12CE12C81111BC0AE014A5FC4
:103950005F4F61E5C6010E94C512182F2E813F817D
:10396000C9019927B0E0A0E004C0880F991FAA1FE1
:10397000BB1F3A95D2F70196A11DB11D7C01112301
:1039800029F0D12CC12C25C0F12CE12CAE01465FD1
:103990005F4F61E0C6010E946914182F8111F1CFB9
:1039A000AE01485F5F4F61E7C6010E94C512182F44
:1039B00028853985C9019927B0E0A0E004C0880FA7
:1039C000991FAA1FBB1F3A95D2F70196A11DB11DE1
:1039D0006C01AA85B0E020E03FE24AE350E00E949B
:1039E000D3492B013C01E4EF4E0EE1E05E1E611C69
:1039F000711C88EE882E83E0982EA12CB12CC30177
:103A0000B201A50194010E94E649D601AE19BF0991
:103A10000E94D3490FCF2F923F924F925F926F92A5
:103A20007F928F929F92AF92BF92CF92DF92EF924E
:103A3000FF920F931F93CF93DF93CDB7DEB76997B4
:103A40000FB6F894DEBF0FBECDBF00ED17E020E04B
:103A500030E00B871C872D873E871F86188A198ABE
:103A60001A8A40322EE4520761057105E0F45CEFDA
:103A7000B52E8B2D69960FB6F894DEBF0FBECDBF65
:103A8000DF91CF911F910F91FF90EF90DF90CF903A
:103A9000BF90AF909F908F907F906F905F904F906E
:103AA0003F902F9008954E8B5F8B688F798F8C019C
:103AB000BE016A5F7F4F0E94901BB82E8111D9CF43
:103AC000CE88DF88E88CF98C88EEC81A88E0D80A9E
:103AD000E108F1088E81811106C08F81811103C038
:103AE00088858823C1F1AE01455F5F4F62E0C80160
:103AF0000E94BD1B81110AC18E81882391F08B85A4
:103B00009C85AD85BE85825B9D4FAF4FBF4F8C15A9
:103B10009D05AE05BF0508F0AACFC81AD90AEA0A62
:103B2000FB0A8885882309F471C08B859C85AD8547
:103B3000BE858E549D4FAF4FBF4F880F991FAA1F50
:103B4000BB1F8C159D05AE05BF0508F090CFC81AA8
:103B5000D90AEA0AFB0A89858823D9F0AE01415FB8
:103B60005F4F63E0C8010E94BD1B4F85588969897A
:103B70007A894C565D4F6F4F7F4F4C155D056E0532
:103B80007F0508F074CF8111C1C0C41AD50AE60AB6
:103B9000F70A8A85882309F46CCFBE016F5F7F4FD7
:103BA000C8010E94901B8C818823E9F1AE014B5E15
:103BB0005F4F60E0C8010E946914B82E81111CC0DB
:103BC000AE014D5E5F4F61E5C8010E94C512B82E7F
:103BD0008B899C891C013324512C412C04C0220C5C
:103BE000331C441C551C9A95D2F79FEF291A390AA9
:103BF000490A590ABB20C9F08E899F89A88DB98DC1
:103C0000F801828B938BA48BB58B33CF8F81882364
:103C100009F4A1CF8B859C85AD85BE858C569D4FC3
:103C2000AF4FBF4F8ECF312C212CAE014B5E5F4F7B
:103C300061E0C8010E946914B82E8111DDCFA6E2AF
:103C4000CA1AA2E0DA0AE108F108AD89B0E020E082
:103C50003FE24AE350E00E94D3494B015C01B4EFDC
:103C60008B0EB1E09B1EA11CB11CA8EEB3E0A70116
:103C700096010E94D3492B013C01C501B40120EDFE
:103C800037E040E050E00E94E649420E531E641EB9
:103C9000751EC501B40128EE33E040E050E00E94FB
:103CA000E649C301B2010E94E649220E331E2114E7
:103CB0003104E1F04101B12CA12CE1E08E1A910810
:103CC000A108B10890E080E0B501A4014427452B8C
:103CD000462B472B31F0B694A7949794879401967E
:103CE000F3CF982F88271C01280C391CA10161E70C
:103CF000C8010E94B10FB82E81117ECFF801E153A7
:103D0000FF4FC082D182E282F38276CFB82EB1CE4D
:103D10004F925F926F927F92BF92CF92DF92EF921B
:103D2000FF920F931F93CF93DF9300D000D0CDB7B6
:103D3000DEB78A01AE014F5F5F4F0E94BD1BB82EF8
:103D400081112AC069817A818B819C8128EE422E63
:103D500023E0522E612C712CA30192010E94E649AE
:103D600069017A019B01AC01AFEFBFEF0E94D3491B
:103D70006C507E4F8F4F9F4FA30192010E94E649E6
:103D80007601DD24CC24C20ED31EE41EF51EF801FC
:103D9000C082D182E282F3828B2D0F900F900F9020
:103DA0000F90DF91CF911F910F91FF90EF90DF90D7
:103DB000CF90BF907F906F905F904F9008955F92EB
:103DC0006F927F928F929F92AF92BF92CF92DF922B
:103DD000EF92FF920F931F93CF93DF93CDB7DEB790
:103DE00061970FB6F894DEBF0FBECDBF7C018B018B
:103DF000FC018089FB018083AE014A5F5F4F68EF61
:103E0000C7010E94C512582E81113AC1AE014F5F01
:103E10005F4F64E0C7010E947C12582E811130C1AF
:103E20002E813F812115310569F050E040E0698124
:103E30007A818B819C810E94E649F8012683378331
:103E400040875187F80186819781A085B185F70168
:103E5000868B978BA08FB18FF8011286AE014F5FD2
:103E60005F4F60E2C7010E94C512582E811108C140
:103E700089819A81009709F01AC1F701858D968D85
:103E8000A78DB0A1F80185879687A787B08BF7012A
:103E9000128EAE014F5F5F4F68E2C7010E94C512EC
:103EA000582E8111EDC089819A819F708115F8E0AB
:103EB0009F0708F090514AEF489F9001499F300DAD
:103EC0001124C901330FAA0BBB0BF801818B928B14
:103ED000A38BB48B5801F1E2AF0EB11C470125E270
:103EE000820E911C380185E1680E711CD12CC12C09
:103EF000A501B601C7010E94FB12582E8111C0C056
:103F0000F40181914F01F30181933F01FFEFCF1A3B
:103F1000DF0A24E0A20EB11C86E0C816D10441F7E6
:103F2000AE014F5F5F4F61E0C7010E94C013582E82
:103F30008111A6C08981F701E35EFE4F808387FF70
:103F4000CAC081E0F80181AFF80181ADF701E75BFC
:103F5000FF4F808380ED97E0A0E0B0E08A879B87E9
:103F6000AC87BD871E821F821886198686E39BE078
:103F7000A0E0B0E0F80182839383A483B583BE01FF
:103F80006F5F7F4FC7010E94901B582E811178C030
:103F90008981811107C08A81811104C08B818823A6
:103FA00009F43EC0AE01465F5F4F62E0C7010E9468
:103FB000BD1B8111C1C089818823A9F08A859B8599
:103FC000AC85BD85825B9D4FAF4FBF4FF8014281ED
:103FD000538164817581840F951FA61FB71F82834B
:103FE0009383A483B5838B81882309F477C08A8562
:103FF0009B85AC85BD858E549D4FAF4FBF4F880FBD
:10400000991FAA1FBB1FF8014281538164817581EA
:10401000840F951FA61FB71F82839383A483B58344
:104020008C81811168C08D81882301F1AE01425FCE
:104030005F4F64E0C7010E94BD1B8E849F84A888E7
:10404000B988F6E28F0EF2E09F1EA11CB11CF801A8
:104050004281538164817581480D591D6A1D7B1D04
:104060004283538364837583811166C0F801828122
:104070009381A481B581F701828B938BA48BB58B3F
:10408000852D61960FB6F894DEBF0FBECDBFDF91D0
:10409000CF911F910F91FF90EF90DF90CF90BF9045
:1040A000AF909F908F907F906F905F90089533E0D6
:1040B000880F991F3A95E1F7B0E0A0E0F8018587F5
:1040C0009687A787B08BF701858F968FA78FB0A3B0
:1040D00081E0828FDECEF80111AE36CF8A8188234F
:1040E00009F49ECF8A859B85AC85BD858C569D4FF6
:1040F000AF4FBF4F88CFAE014A5F5F4F63E0C7014C
:104100000E94BD1B8E809F80A884B984F4E98F0E25
:10411000F2E09F1EA11CB11CF80142815381648111
:104120007581480D591D6A1D7B1D4283538364832D
:104130007583882309F477CF582EA2CFCF93DF93CE
:10414000CDB7DEB769970FB6F894DEBF0FBECDBF0F
:10415000BE016F5F7F4F80913517909136170E9497
:104160009915898D843059F089859A8569960FB69D
:10417000F894DEBF0FBECDBFDF91CF9108958FEFD2
:104180009FEFF4CFCF93DF93CDB7DEB7A8970FB6ED
:10419000F894DEBF0FBECDBF84E1FE01BD96DE0107
:1041A000119601900D928A95E1F786E190E00E94C8
:1041B000104724E1FE013196DE01559601900D92E3
:1041C0002A95E1F724E1FE017596DC011296019033
:1041D0000D922A95E1F7DC0111961C921E92E09156
:1041E000DB17F091DC173097B1F49093DC178093D4
:1041F000DB178091D9179091DA1701969093DA170F
:104200008093D917A8960FB6F894DEBF0FBECDBF26
:10421000DF91CF910895ED93FC939093DC178093F9
:10422000DB170190F081E02D3097D9F7E2CF0F93A3
:104230001F930091E3171091E4172091E517309137
:10424000E61740E052E16AE770E090E004171507D6
:104250002607370740F476956795579547959F5FF2
:104260009630A1F797E0892F806A90958695917096
:104270000E94BB0680E01F910F910C94A402CF9383
:10428000C82F0E9417218C2F0E9496068093E71753
:104290008FEF0E949606C82F0E9488068C2FCF9120
:1042A0000895CF93DF93D82FC62F0E9417218D2F0B
:1042B00080620E9496068093E7178C2F0E949606D4
:1042C000DF91CF910C948806CF93C82F82E00E9493
:1042D0003F21EC2FF0E0E65FFD4FE49161E070E0FC
:1042E00001C0660FEA95EAF7682B82E0CF910C9443
:1042F0005121FF920F931F93CF93DF93C82FF62E78
:10430000072F142F0E9417218C2F80620E9496067F
:104310008093E717CF2DD02F115020F089910E9464
:104320009606FACFDF91CF911F910F91FF900C94D9
:1043300088060E94172180E50E9496068093E71761
:1043400083E70E9496060C948806FB0101900020EA
:10435000E9F73197AF01461B570BDC01ED91FC915A
:104360000280F381E02D09948F929F92AF92BF92C9
:10437000EF92FF920F931F93CF93DF93CDB7DEB7EA
:10438000A1970FB6F894DEBF0FBECDBF7C01FA0136
:10439000CB0119A2223008F42AE08E010F5D1F4FD5
:1043A000822E912CB12CA12CBF01A50194010E9459
:1043B000E649F901CA016A300CF5605DD8016E93D7
:1043C0008D01232B242B252B79F790E080E010978B
:1043D00021F0BD01C7010E94A521A1960FB6F89456
:1043E000DEBF0FBECDBFDF91CF911F910F91FF9028
:1043F000EF90BF90AF909F908F900895695CDECF53
:10440000CF92DF92EF92FF92CF93DF93AB01BC018B
:1044100077FF1DC06A017C016DE285E19FE00E948B
:104420000705EC0144275527BA014C195D096E09AF
:104430007F092AE085E19FE00E94B4218C0F9D1F37
:10444000DF91CF91FF90EF90DF90CF9008952AE019
:1044500085E19FE0DF91CF91FF90EF90DF90CF90CB
:104460000C94B421BC01990F880B990B0C94002279
:104470006091EB057091EC058091ED059091EE0552
:104480000C9400228F929F92AF92BF92CF92DF92B4
:10449000EF92FF920F931F93CF93DF937C01EB0179
:1044A0006C0182E0C80ED11C4701E5E08E0E911C24
:1044B00010E000E0F60141916F0150E070E060E033
:1044C0002AE0CE010E94B4215C01E881F9810190CB
:1044D000F081E02D6EE2CE0109958A0D9B1D080F3B
:1044E000191FC814D90431F7F701458150E070E075
:1044F00060E02AE0CE010E94B421800F911FDF917D
:10450000CF911F910F91FF90EF90DF90CF90BF90D0
:10451000AF909F908F900895CF93DF930E943222A7
:10452000EC016CEA74E085E19FE00E94A5218C0F0C
:104530009D1FDF91CF910895CF93DF93D0E0C0E02E
:10454000009731F0BC0185E19FE00E94A521EC01BC
:104550006CEA74E085E19FE00E94A5218C0F9D1F0D
:10456000DF91CF9108954F925F926F927F928F92D9
:104570009F92AF92BF92CF92DF92EF92FF920F93F2
:104580001F93CF936B017C01742EAC019B010E94A1
:10459000314B6FEA74E0811126C046015701E8945F
:1045A000B7F82FEF3FEF4FE75FE7C501B4010E9477
:1045B000314B81110CC02FEF3FEF4FE75FE7C50193
:1045C000B4010E94904863EB74E0181664F02FEF7A
:1045D0003FEF4FE75FE4C701B6010E942C4B18166E
:1045E000ACF467EB74E085E19FE0CF911F910F91F0
:1045F000FF90EF90DF90CF90BF90AF909F908F9003
:104600007F906F905F904F900C94A5212FEF3FEF1C
:104610004FE75FECC701B6010E94904887FDE1CFEC
:1046200020E030E0A901C701B6010E94904810E0E7
:1046300000E087FF0AC06DE285E19FE00E94070568
:104640008C01F7FAF094F7F8F094C0E060E070E0C5
:1046500080E09FE37C1641F020E030E040E251E44E
:104660000E94844ACF5FF6CFA70196010E94184AA4
:104670002B013C010E94FD4A4B015C012AE0BC0178
:10468000A40185E19FE00E94B4217C01E00EF11EAF
:10469000CC23D1F1C501B4010E9495489B01AC0126
:1046A000C301B2010E94174A4B015C016EE285E131
:1046B0009FE00E940705E80EF91EC15028F120E096
:1046C00030E040E251E4C501B4010E94F6482B01FC
:1046D0003C010E94FD4A4B01B12CA12C2AE0B501FE
:1046E000A40185E19FE00E94B421E80EF91EC501F6
:1046F000B4010E9495489B01AC01C301B2010E9424
:10470000174A4B015C01D9CFC701CF911F910F917F
:10471000FF90EF90DF90CF90BF90AF909F908F90E1
:104720007F906F905F904F900895009729F0BC01A3
:1047300085E19FE00C94A52190E080E00895CF935F
:10474000DF93C2E1D0E0C231D10571F4CE010E9405
:104750000D100E94B9030E9432222196C931D10561
:1047600091F7DF91CF9108958BEB94E00E94952310
:10477000C531D10559F78AEF94E00E949523EDCF1A
:104780000F931F93CF93DF930FE21BE0D0E0C0E0C5
:10479000F801819191918F010E9432222196C430BB
:1047A000D10529F4DF91CF911F910F9108958BEBE3
:1047B00094E00E949523ECCF2F923F924F925F920C
:1047C0006F927F928F929F92AF92BF92CF92DF9221
:1047D000EF92FF920F931F93CF93DF9300D000D0FF
:1047E000CDB7DEB71C012A013B0109831A832B8355
:1047F0003C838DEB94E00E949523C1010E94952398
:1048000083EC94E00E949523C301B2010E94002230
:1048100083EC94E00E94952369817A818B819C814D
:104820000E94002283EC94E00E94952342E0C7019D
:10483000B6010E94B32283EC94E00E94952342E0EB
:10484000C501B4010E94B3228FED95E00F900F9047
:104850000F900F90DF91CF911F910F91FF90EF90EC
:10486000DF90CF90BF90AF909F908F907F906F9090
:104870005F904F903F902F900C949C223F924F92CC
:104880005F926F927F928F929F92AF92BF92CF92E0
:10489000DF92EF92FF920F931F93CF93DF9300D09D
:1048A00000D0CDB7DEB7452B09F09EC09C01225049
:1048B00031092B31310508F097C07C836B832C01C3
:1048C0003EEFF32EF80E6F2C712C0E940310382E41
:1048D0008111D7C0F2013B972AE1421651040CF432
:1048E000F301EE0FFF1FEE0FFF1FED51FC4F838111
:1048F0009281EB81FC819E171F0611F00CF074C0B1
:104900008E171F060CF470C021E2269DC001279D62
:10491000900D11249C0127563E4E3A832983F901BC
:1049200084858823E9F1830193E0000F111F9A9594
:10493000E1F70C5E1A4E9585992309F46BC06B81E3
:104940007C81C8010E944C060E942D04AB01BC0171
:1049500088EB9BE0311002C088E592E021E2269DC1
:10496000F001279DF00D1124E756FE4E092E000C94
:10497000AA0BBB0B840F951FA61FB71F86879787AF
:10498000A08BB18B81E2869DF001879DF00D1124F3
:10499000E756FE4E2B813C813183208313821282A5
:1049A000332011F1C2010E941C1034E1839FF001F9
:1049B0001124E05FFC4F8B81828782812B813C81B7
:1049C0008217130689F48FEF838714860E942D04C3
:1049D00021E2269DF001279DF00D1124E756FE4EA1
:1049E00066877787808B918B0F900F900F900F9039
:1049F000DF91CF911F910F91FF90EF90DF90CF90BB
:104A0000BF90AF909F908F907F906F905F904F90EE
:104A10003F900895F894F80180839FEF918313826B
:104A200012822091370B3091380B378326831093F5
:104A3000380B0093370B60E00E94760261E0F801CA
:104A400080810E94B8026B817C81C8010E944C0663
:104A50004F2D50E070E060E0812C912C54017501E5
:104A600064018B819C818C01990F220B330B86ECA6
:104A700094E00E94DC23789481E0E981FA818587C3
:104A800063CF8B819C8197FD8DCF843B91050CF08A
:104A900089CF3ACF0F931F93CF93DF938C010E945E
:104AA0001C1094E1899FF0011124E05FFC4FC2814A
:104AB000D0E0C8010E940310882331F050E040E0AC
:104AC000BE01C8010E943E24CE01DF91CF911F910B
:104AD0000F9108951F93CF93DF931092390BC0E18C
:104AE000D3E01FEF6A8170E0888150E040E090E001
:104AF0000E943E248A818A87888190E00E940D105E
:104B00000E94B903998788871B871B8A649683E074
:104B1000C838D80739F7C3EED3E0698170E08881DF
:104B200050E040E090E00E943E24249684E0CB32A6
:104B3000D80799F7DF91CF911F9108959F92AF9277
:104B4000BF92CF92DF92EF92FF920F931F93CF937A
:104B5000DF93CDB7DEB7A0970FB6F894DEBF0FBED8
:104B6000CDBF6C012FEDC20ED11CF601A080F7E085
:104B7000F12CAF1609F4EEC0B62E8C0141E060E8CE
:104B80000E94DB0FF82E41E06FEFC8010E94DB0F9F
:104B9000F82A40E060E0C8010E94DB0FF82A46E0F6
:104BA0006FEFC8010E94DB0FF82AAE01425E5F4F33
:104BB00063E8C8010E94C013F82A4E8D446063E880
:104BC000C8010E94DB0FF82A47E06FEFC8010E947E
:104BD000DB0FF82A41E061E8C8010E94DB0FF82AE8
:104BE0000E943F01F82A41E060E8C8010E94DB0F03
:104BF000F82A21E0B212C1C0A0FC02C24BE664E96F
:104C0000C8010E94DB0FE82EC8010E9488148E297B
:104C1000F82AAE01465E5F4F60E9C8010E947C122F
:104C2000F82A8A8D9B8DAC8DBD8D992EE89497F8CE
:104C300097FBEE24E0F844E264E9C8010E94DB0F30
:104C4000F82AC8010E948814F82AAE01465E5F4F18
:104C500060E9C8010E947C12F82A8A8D9B8D2C8DF8
:104C60003D8D3C8B2D8B9E8B8F8B45E264E9C8017B
:104C70000E94DB0FF82AC8010E948814F82AAE01AE
:104C8000465E5F4F60E9C8010E947C12F82A8C8D55
:104C90009D8D988F898F40E061E8C8010E94DB0FED
:104CA000F82A46E06FEFC8010E94DB0FF82AAE0138
:104CB000425E5F4F63E8C8010E94C013F82A4E8D20
:104CC0004B7F63E8C8010E94DB0FF82A41E06FEFD9
:104CD000C8010E94DB0FF82A41E060E0C8010E9491
:104CE000DB0FF82A40E06FEFC8010E94DB0FF82AC3
:104CF00040E060E8C8010E94DB0FF82A59F5F1E0B6
:104D0000BF1699F0A1FC23C0F801E052FF4F8F8D30
:104D10008083319688A18083BE016F5F7F4FC80179
:104D20008E519F4F0E946D4C12C0A0FC10C0F80124
:104D3000EE5FFE4F90823196E082DE0154967496CB
:104D4000035E1E4F8D9181930E171F07D9F7BA2866
:104D5000F601B0828F2DA0960FB6F894DEBF0FBE7D
:104D6000CDBFDF91CF911F910F91FF90EF90DF901A
:104D7000CF90BF90AF909F900895A1FC41C142E0B9
:104D800064E9C8010E94DB0FE82EC8010E94881464
:104D90008E29F82AAE01415E5F4F60E9C8010E948A
:104DA000C013F82A4BE764E9C8010E94DB0FF82A18
:104DB000C8010E948814F82AAE01405E5F4F60E986
:104DC000C8010E94C013F82A47E764E9C8010E949D
:104DD000DB0FF82AC8010E948814F82AAE01465E4B
:104DE0005F4F60E9C8010E947C12F82A4A8D5B8DF2
:104DF0006C8D7D8DDB01CA0129E1B695A79597954C
:104E000087952A95D1F78983DB01CA0132E1B695EE
:104E1000A795979587953A95D1F78F778A83DB0188
:104E2000CA01EBE0B695A79597958795EA95D1F7D6
:104E30008F778B83DB01CA01F4E0B695A795979530
:104E40008795FA95D1F78F778C83440F440F440FE1
:104E500048774E8F48E764E9C8010E94DB0FF82AC3
:104E6000C8010E948814F82AAE01465E5F4F60E9CF
:104E7000C8010E947C12F82A8A8D9B8DAC8DBD8D55
:104E8000AC01BD012DE176956795579547952A951B
:104E9000D1F72E8D240F2D83AC01BD0136E176951F
:104EA0006795579547953A95D1F74F774E83AC0163
:104EB000BD01EFE07695679557954795EA95D1F74F
:104EC0004F774F83292F2F772887AC01BD01769527
:104ED0006795579547954F774987982F9295990FE2
:104EE000990F90749E8F49E764E9C8010E94DB0F17
:104EF000F82AC8010E948814F82AAE01465E5F4F66
:104F000060E9C8010E947C12F82A8A8D9B8DAC8DC5
:104F1000BD8DAC01BD012AE1769567955795479502
:104F20002A95D1F72E8D240F2A87AC01BD0133E1DC
:104F300076956795579547953A95D1F74F774B8773
:104F4000AC01BD01ECE07695679557954795EA95DC
:104F5000D1F74F774C87AC01BD01F5E076956795A9
:104F600057954795FA95D1F74F774D87982F990F19
:104F7000990F9C779E8F4AE764E9C8010E94DB0F76
:104F8000F82AC8010E948814F82AAE01465E5F4FD5
:104F900060E9C8010E947C12F82A8A8D9B8DAC8D35
:104FA000BD8DAC01BD012EE176956795579547956E
:104FB0002A95D1F72E8D240F2E87AC01BD0137E144
:104FC00076956795579547953A95D1F74F774F87DF
:104FD0002A2F2F77288BAC01BD01E9E076956795E4
:104FE00057954795EA95D1F74F77498BF2E0B695FB
:104FF000A79597958795FA95D1F78F778A8B1B8A16
:10500000E12C912C48CE2F923F924F925F926F925B
:105010007F928F929F92AF92BF92CF92DF92EF9248
:10502000FF920F931F93CF93DF93CDB7DEB7C15598
:10503000D1090FB6F894DEBF0FBECDBFE091351792
:10504000F0913617EF5BFE4F89E28083E0913517D0
:10505000F0913617EE5BFE4F81E08083E0913517CB
:10506000F0913617ED5BFE4F80E991E091838083EC
:10507000E0913517F0913617EB5BFE4F89E891E12F
:105080009183808310929A081092990810926A086E
:10509000109269080E942B0E89E79DE090931106FB
:1050A000809310068AE79DE090931506809314067E
:1050B00021E04EEF69E88EEE95E10E946F138111B9
:1050C00006C040E068E88EEE95E10E94DB0FAE017D
:1050D000455C5F4F60EC8EEE95E10E94C01310922C
:1050E000CD1688EE93E0909328178093271780E9D8
:1050F00091E090932A178093291785E89BE6A1E019
:10510000B0E080932B1790932C17A0932D17B0939A
:105110002E1784EA90E7A9E0B0E08093B61690934A
:10512000B716A093B816B093B91610920B1610923A
:105130000C1610920D1610920E16CE0101962C012F
:10514000BC018EEE95E10E94DF1E182F81110AC06E
:1051500019821A828AE3F201AEEFB5E101900D9255
:105160008A95E1F784E690E09093101780930F17EB
:1051700084E893E0909312178093111784EF91E0E5
:10518000909314178093131780E09AE09093171769
:105190008093161781E08093261741E060E88EEE39
:1051A00095E10E94DB0FD82E41E06FEF8EEE95E186
:1051B0000E94DB0FD82AD12A40E060E08EEE95E114
:1051C0000E94DB0FD82AAE01415C5F4F61E98EEE91
:1051D00095E10E94C013D82A8FAD8093151741E046
:1051E00060E08EEE95E10E94DB0FD82A40E06FEF81
:1051F0008EEE95E10E94DB0FD82A40E060E88EEE4B
:1052000095E10E94DB0FD82A10E000E0FF24F39420
:10521000D11078C10330110509F49CC07CF4013031
:105220001105D9F00230110509F491C0F09213165E
:10523000F801E351FA4EF6A280E025C004301105D2
:1052400009F48BC020E04FEE0530110579F760E6D8
:105250008EEE95E10E946F1314C040912316509179
:1052600024166091251670912616B9E076956795FB
:1052700057954795BA95D1F764E48EEE95E10E9473
:10528000B10F8823A9F20F5F1F4FD82E06301105EA
:1052900009F0BECF81116EC010921516109216162D
:1052A00022E04EEF60E68EEE95E10E946F138111D1
:1052B00061C01092171620E14FEE60E68EEE95E188
:1052C0000E946F13811156C01092181680E090E072
:1052D000A2E1B0E080931F1690932016A0932116B0
:1052E000B09322168091141681113AC080E090E4A8
:1052F000A0E0B0E08093231690932416A093251687
:10530000B093261680E090E0A3E2B0E080932716E9
:1053100090932816A0932916B0932A1610922B1654
:1053200010922C1610922D1610922E168FEF80933D
:105330000B174FEF61E08EEE95E10E94DB0F91E0DD
:1053400090930D17811116C01092F21613C0F092AF
:1053500015166ECFF09216166BCF20E04EEF77CF7A
:1053600040E250E064E48EEE95E10E94B10F8823A4
:1053700009F4BCCF8093ED1549E26AE880913517B6
:10538000909136170E94DB0F8093ED156AE070E074
:1053900080E090E00E94FB038091ED158111B4C084
:1053A000E0913517F0913617EF5BFE4F89E280836D
:1053B00062E08EEE95E10E949E25882309F4CEC01E
:1053C0008093ED1581110BC080919817813021F4E5
:1053D00080919917813019F08BEF8093ED158091B2
:1053E000ED15811117C1609035177090361725960D
:1053F0001FAE1EAE259728961FAE289727961FAE84
:10540000279723961CAE1DAE1EAE1FAE239761E0FC
:10541000C3010E949E25F301ED5FFE4F308091E0B5
:10542000931508F4E8C031972080A22CB12CD12C20
:10543000C12C3912D9C0E1E2AE16B104C104D104C5
:1054400008F0D9C041E06FEFC3010E94DB0F81116A
:105450001AC040E06FE4C3010E94DB0F811113C04A
:105460004CE26EE4C3010E94DB0F81110CC040E0EE
:105470006FEFC3010E94DB0F811105C044EB66EBA7
:10548000C3010E94DB0F93012F5E3E4FF901108292
:1054900031961082319610823196108231961082A8
:1054A00031961082E12CF12C8701332009F41AC1C6
:1054B000D801C7018C549F4FAF4FBF4FF6E0B69550
:1054C000A79597958795FA95D1F7880F991F880F1B
:1054D000991F825B9B4FFC0180819181A281B381E6
:1054E000892B8A2B8B2B09F0FDC0FCE2EF16F1040F
:1054F0000105110509F4F6C08FEFE81AF80A0F4FFD
:105500001F4FD6CF8D2D36CF812C912C5401750194
:10551000640100E010E0980140E050E0BA0188EC3E
:1055200094E00E94DC2380E0CF5ADF4F0FB6F8945E
:10553000DEBF0FBECDBFDF91CF911F910F91FF90C6
:10554000EF90DF90CF90BF90AF909F908F907F9023
:105550006F905F904F903F902F9008958091CE165E
:1055600081112AC06EEA74E087E797E10E946D4CD2
:1055700060EF74E087E397E10E946D4C69E275E0AB
:1055800087E597E10E946D4C47E957E160EC8EEEAC
:1055900095E10E94C013811113CFA20162EC8EEE3F
:1055A00095E10E94C01391E090939817998192958C
:1055B0009F709093991704CF1091CF1660ED76E10C
:1055C00087E797E10E946D4C112391F2133238F472
:1055D0006CEF74E0103271F668E075E0CBCF64E1F7
:1055E00075E0173238F6F8CFFDE0AF16B104C1040C
:1055F000D10408F427CFAE014A5B5F4FBE01615C66
:105600007F4FC3010E942019982E992009F47EC073
:105610009092ED158091ED1581110CC0AE014D5B9E
:105620005F4FB20180913517909136170E94201973
:105630008093ED158091ED1581110FC021E0AE0131
:10564000455C5F4FBE01615C7F4F80913517909143
:1056500036170E9424158093ED158091ED15811168
:1056600053CFE0913517F0913617108AE091351736
:10567000F0913617FF24F394F5A20091351710919D
:105680003617F80145A956A967A970AD99E0769536
:105690006795579547959A95D1F764E4C8010E949C
:1056A000B10F811102C0F801F6A28093ED158111AE
:1056B0002BCFE0913517F091361781E080A7E0916C
:1056C0003517F0913617FD9684ED98E0A0E0B0E034
:1056D00080839183A283B3838091ED15811114CFD0
:1056E00081E022CF4201A301495E5E4F632DC301D9
:1056F0000E949711982E811188CF81E0F301EC5F11
:10570000FE4F80833297208231963082F301E85C2D
:10571000FE4F80818111CAC13297A080B18030E0F4
:1057200020E01301FBEB2F1AFEEF3F0AC3018F5B52
:105730009E4F2A969FAF8EAF2A97F301ED5DFE4FE5
:105740002C96FFAFEEAF2C9780972E969FAF8EAF23
:105750002E9732966096FFAFEEAF609707966296EF
:105760009FAF8EAF629703C0ECEF9E2E9601F501BE
:10577000E20FF31F0081002309F484C0911048CF89
:1057800069019FEFC91AD90AD501AC0DBD1D6C91F5
:105790000F3F09F04DC0690182E0C80ED11CD50150
:1057A000AC0DBD1D8C91613029F198F0623089F10A
:1057B0006330D1F6690194E0C90ED11C238190E0D9
:1057C000982F8827820F911D6296EEADFFAD6297EC
:1057D0000EC0690194E0C90ED11C238190E0982F7E
:1057E0008827820F911D2E96EEADFFAD2E979183E7
:1057F0008083BCCF690194E0C90ED11C238190E065
:10580000982F8827820F911D2C96EEADFFAD2C9717
:10581000EECF690194E0C90ED11C238190E0982F4E
:105820008827820F911D6096EEADFFAD6097DFCFA8
:10583000053008F099CF2E5F3F4FD501A20FB31F5F
:10584000F201C02ED12CCF01841995098C159D052C
:105850001CF48D918193F7CFC20ED31EF101E0802D
:10586000F18010E030E020E0A2012A96EEADFFAD1D
:105870002A9780810E94510F892B09F477CF7CEE03
:10588000972E74CF9110C4CE44E06AE0C3010E9409
:10589000DB0F982E8111BCCE20E04FEE64E8C301EF
:1058A0000E946F13982E8111B3CE84E0F301E2536E
:1058B000FF4F8083C3010E94DD13982E8111A8CE73
:1058C00041E06FEFC3010E94DB0F982EAE014D5BEC
:1058D0005F4F64E8C3010E94C512982A40E06FEF51
:1058E000C3010E94DB0F982A09F092CEF301E8531E
:1058F000FF4F25968EAD9FAD259724E0880F991F09
:105900002A95E1F7B0E0A0E080839183A283B3837E
:10591000B201C3010E94DF1E982E811179CEAE0123
:10592000495B5F4F69E0C3010E94C013982E81114B
:105930006FCE28968FAD2897817028968FAF2897C5
:10594000F301E25EFE4F80838AE3F201D3015096B9
:1059500001900D928A95E1F7AE01495B5F4F61E0DE
:10596000C3010E94C013982E811152CE8301035EA1
:105970001E4F28968FAD2897F80180831BAEAE018D
:10598000455C5F4F61E0C3010E94C013982E8111F6
:105990003FCE8BADF82EE894F4F884FF12C04F2D63
:1059A00061E0C3010E94DB0F982E811131CEF80116
:1059B000F082F3014289538964897589C3010E9489
:1059C0000B1D1BAEAE01455C5F4F61E0C3010E9441
:1059D000C013982E81111CCE8BADF82EE894F2F8EE
:1059E00082FF12C04F2D61E0C3010E94DB0F982E91
:1059F00081110ECEF801F082F30142895389648946
:105A00007589C3010E940B1D83E0F301E15EFE4F27
:105A10008083AE014B5B5F4F60E0C3010E9469145D
:105A2000982E8111F5CD26968FAD2697F301E85279
:105A3000FF4F8083AE014B5B5F4F61E0C3010E946B
:105A40006914982E8111E4CD26968FAD2697F30127
:105A5000ED52FF4F8083AE01455C5F4F63E0C301B1
:105A60000E94881E982E8111D3CD8BAD9CADADAD1B
:105A7000BEADF301EC52FF4F80839183A283B383C9
:105A8000AE01455C5F4F64E0C3010E94881E982E02
:105A90008111BECDF301E153FF4F8BAD9CADADAD98
:105AA000BEAD80839183A283B383B2CD80E0A82E64
:105AB00082E0B82E34CE0F931F93CF93DF93CDB7F0
:105AC000DEB7E2970FB6F894DEBF0FBECDBF8A01F6
:105AD00020919003309191033A832983FE013396FC
