:100000000C9404010C945F0C0C94340C0C94090CAB
:100010000C94DE0B0C94B30B0C94880B0C945D0BBE
:100020000C94320B0C942E010C942E010C942E0186
:100030000C942E010C942E010C942E010C942E0184
:100040000C942E010C94740D0C942E010C942E0122
:100050000C942E010C942E010C942E010C94E80AA1
:100060000C942E010C94B40C0C948A0C0C942E015C
:100070000C942E010C942E010C942E010C942E0144
:100080000C94460D0C942E010C942E010C942E0110
:100090000C942E010C942E010C942E010C942E0124
:1000A0000C942E010C942E010C94180D0C942E011E
:1000B0000C942E010C942E010C942E010C94EA0C3D
:1000C0000C942E010C942E010C942E010C942E01F4
:1000D0000C942E010C942E010C942E010C942E01E4
:1000E0000C942E0100002100240027002A002D007E
:1000F0003000330001010000040107010A01000083
:100100002200250028002B002E00310034000201BF
:100110000000050108010B0100002000230026005B
:1001200029002C002F00320000010000030106010D
:10013000090105050505070508080808020202026D
:100140000A0A080804040404010101010101010173
:100150000303030303030303040707070C0C0C0C3E
:100160000C0C0C0C02020202060606060606060627
:100170000B0B0B0B0B0B0B0B0102102020080810B4
:100180002040102040800201020108040201010207
:1001900004081020408080402010080402018004E0
:1001A000020180402010080402010804020101023B
:1001B0000408102040800102040810204080000044
:1001C0000A0B02090C0D0E080703040100000000D1
:1001D000000000000000000000000000000000001F
:1001E00000000000000000000000121110000000DC
:1001F00000000000000000000000000000000000FF
:1002000000000000A20D0A1411241FBECFEFD1E29E
:10021000DEBFCDBF13E0A0E0B2E0E4EDF2E300E02A
:100220000BBF02C007900D92AA38B107D9F729E099
:10023000AAE8B3E001C01D92A732B207E1F711E0CE
:10024000C3E0D1E004C02197FE010E942A17C2300A
:10025000D107C9F70E94170E0C945D190C94000089
:100260008150823108F058C0E82FF0E0E65CFE4F84
:100270000C942A175A015E014C01520156018C015F
:10028000610167016B017101750179017F018301D2
:100290008C0187018D019101809180008F7780937F
:1002A00080000895809180008F7DF9CF809180003B
:1002B000877FF5CF84B58F7784BD089584B58F7D12
:1002C000FBCF8091B0008F778093B000089580912C
:1002D000B0008F7DF9CF809190008F778093900050
:1002E0000895809190008F7DF9CF80919000877F55
:1002F000F5CF8091A0008F778093A0000895809122
:10030000A0008F7DF9CF8091A000877FF5CF8091ED
:1003100020018F77809320010895809120018F7DA7
:10032000F9CF80912001877FF5CFCF93DF93282FDE
:1003300030E0F901E254FE4F8491F901E858FE4F94
:10034000D491F901EE5CFE4FC491CC23A1F0811150
:100350000E943001EC2FF0E0EE0FFF1FE85EFE4F31
:10036000A591B491EC91ED2381E090E009F480E057
:10037000DF91CF91089580E090E0FACF1F93CF9363
:10038000DF93282F30E0F901E254FE4F8491F90108
:10039000E858FE4FD491F901EE5CFE4FC491CC2396
:1003A000A9F0162F81110E943001EC2FF0E0EE0F22
:1003B000FF1FE250FF4FA591B4918FB7F894EC91D5
:1003C000111108C0D095DE23DC938FBFDF91CF9150
:1003D0001F910895DE2BF8CFCF93DF9390E0FC01BF
:1003E000E858FE4F24918E5C9E4FFC018491882337
:1003F000D1F090E0880F991FFC01EC51FF4FA591BF
:10040000B491FC01E250FF4FC591D49161110EC02F
:100410009FB7F8948C91E22FE0958E238C932881DE
:10042000E223E8839FBFDF91CF9108958FB7F894BF
:10043000EC91E22BEC938FBFF6CFCF93DF93EC01DF
:1004400061E08AE00E94EC01209731F460E08AE0EC
:10045000DF91CF910C94BE01CF3FD10511F461E043
:10046000F6CFE8ECF1E0E491E150E23108F0B0C001
:10047000F0E0E35CFD4F0C942A174F0256025B023A
:1004800065026F02E80279028102890293029D02ED
:10049000A702B602C002E802CA02D402DE0284B594
:1004A000806884BDC7BDDF91CF91089584B5806217
:1004B00084BDC8BDF8CF80918000806880938000A3
:1004C000D0938900C0938800EECF80918000806235
:1004D00080938000D0938B00C0938A00E4CF8091FA
:1004E0008000886080938000D0938D00C0938C0042
:1004F000DACF8091B00080688093B000C093B300E1
:10050000D2CF8091B00080628093B000C093B400DD
:10051000CACF80919000806880939000D09399001A
:10052000C0939800C0CF809190008062809390002B
:10053000D0939B00C0939A00B6CF809190008860C2
:1005400080939000D0939D00C0939C00ACCF80918D
:10055000A00080688093A0008091A0008F7B809392
:10056000A000D093A900C093A8009DCF8091A000C7
:1005700080628093A000D093AB00C093AA0093CF79
:100580008091A00088608093A000D093AD00C093BC
:10059000AC0089CF80912001806880932001D093A6
:1005A0002901C09328017FCF809120018062809330
:1005B0002001D0932B01C0932A0175CF8091200197
:1005C000886080932001D0932D01C0932C016BCFC4
:1005D000C038D1050CF043CF39CF863308F08653AD
:1005E00020917B00982F9870277F922B90937B000F
:1005F0008770806480937C0080917A00806480930F
:100600007A0080917A0086FDFCCF809178009091ED
:10061000790008953FB7F8948091030690910406FD
:10062000A0910506B091060626B5A89B05C02F3FF0
:1006300019F00196A11DB11D3FBFBA2FA92F982F08
:100640008827BC01CD01620F711D811D911D42E003
:10065000660F771F881F991F4A95D1F708958F92CB
:100660009F92AF92BF92CF92DF92EF92FF924B0197
:100670005C010E940A036B017C010E940A036C1951
:100680007D098E099F09683E734081059105A8F395
:1006900021E0821A9108A108B10888EEC80E83E013
:1006A000D81EE11CF11C81149104A104B10429F7A6
:1006B000FF90EF90DF90CF90BF90AF909F908F9082
:1006C00008952FB7F8946091FF057091000680910E
:1006D0000106909102062FBF08950895AF92BF9230
:1006E000CF92DF92EF92FF920F931F93CF93DF93FE
:1006F0006C017B018B01040F151FEB015E01AE182D
:10070000BF08C017D10759F06991D601ED91FC914E
:100710000190F081E02DC6010995892B79F7C5017B
:10072000DF91CF911F910F91FF90EF90DF90CF90CD
:10073000BF90AF900895FC01538D448D252F30E07C
:10074000842F90E0821B930B541710F0CF960895DE
:1007500001970895FC01918D828D981761F0A28D0B
:10076000AE0FBF2FB11D5D968C91928D9F5F9F73D1
:10077000928F90E008958FEF9FEF0895FC01918D87
:10078000828D981731F0828DE80FF11D858D90E0F4
:1007900008958FEF9FEF0895FC01918D228D892F91
:1007A00090E0805C9F4F821B91098F739927089579
:1007B00087E997E00E94CC0321E0892B09F420E02F
:1007C000822F0895FC01A48DA80FB92FB11DA35A43
:1007D000BF4F2C91848D90E001968F739927848F61
:1007E000A689B7892C93A089B1898C918370806484
:1007F0008C93938D848D981306C00288F389E02D25
:1008000080818F7D80830895EF92FF920F931F93D5
:10081000CF93DF93EC0181E0888F9B8D8C8D9813B3
:100820001AC0E889F989808185FF15C09FB7F894BF
:10083000EE89FF896083E889F9898081837080640B
:1008400080839FBF81E090E0DF91CF911F910F9156
:10085000FF90EF900895F62E0B8D10E00F5F1F4F65
:100860000F731127E02E8C8D8E110CC00FB607FC74
:10087000FACFE889F989808185FFF5CFCE010E9402
:10088000E203F1CFEB8DEC0FFD2FF11DE35AFF4F8B
:10089000F0829FB7F8940B8FEA89FB898081806290
:1008A000CFCFCF93DF93EC01888D8823B9F0AA894D
:1008B000BB89E889F9898C9185FD03C0808186FD1B
:1008C0000DC00FB607FCF7CF8C9185FFF2CF80816A
:1008D00085FFEDCFCE010E94E203E9CFDF91CF91FA
:1008E000089580E090E0892B29F00E94D8038111BF
:1008F0000E94000080E090E0892B49F080E090E0C9
:10090000892B29F00E94000081110E94000080E0E4
:1009100090E0892B49F080E090E0892B29F00E943B
:10092000000081110E94000080E090E0892B49F0D6
:1009300080E090E0892B29F00E94000081110C9446
:1009400000000895AF92BF92CF92DF92EF92FF9294
:100950000F931F93CF93DF936B017A01EC01C25782
:10096000DC4F28813CE0389F8001399F100D112415
:10097000A090C408B12C27FF1FC0FB011182108278
:1009800088818F5F888388819801280F311D87FDBA
:100990003A95F6012A153B051CF488818C30C4F188
:1009A00080819181049680349C4908F473C0F601DB
:1009B00080819181049670C088819801280F311D33
:1009C00087FD3A952A153B05DCF68881A801480F7A
:1009D000511D87FD5A95FA01EE0FFF1FE40FF51F19
:1009E000EC5CF74F808186FFCBCF8881F801E80F60
:1009F000F11D87FDFA95CF01EE0FFF1FE80FF91FDC
:100A0000EC5CF74F808160E08F730E94BE01B8CF2D
:100A1000808191812881A801420F511D27FD5A959F
:100A20009A01FA01EE0FFF1FE20FF31FEC5CF74F84
:100A300021813281820F931FF70191838083888106
:100A40009801280F311D87FD3A95F901EE0FFF1F20
:100A5000E20FF31FEC5CF74F808186FF22C0888194
:100A6000080F111D87FD1A95F801EE0FFF1FE00F0B
:100A7000F11FEC5CF74F808161E08F73DF91CF91C4
:100A80001F910F91FF90EF90DF90CF90BF90AF90AC
:100A90000C94BE0180E49CE9F701918380838FEF81
:100AA0008883DF91CF911F910F91FF90EF90DF909E
:100AB000CF90BF90AF90089584319105F1F034F458
:100AC00082319105B9F0439761F00895873191051E
:100AD00059F08831910559F04697B9F789E090E0CF
:100AE00008958CE090E008958BE090E0089588E010
:100AF00090E008958DE090E008958FE090E00895F3
:100B00008631910514F48251089583510895CF924E
:100B1000DF92EF92FF920F931F93CF93DF937C01AD
:100B20006B01EA0141305105F1F4621773074CF48F
:100B30000E948005E82FF0E0E05FFD4F8081853660
:100B400090F50C151D05CCF5C7010E948005E82F16
:100B5000F0E0E05FFD4FC1E0D0E08081843600F13D
:100B6000D0E0C0E01DC0621773075CF40E948005EE
:100B7000E82FF0E0E05FFD4F8081C1E0D0E08436F7
:100B800090F00C151D05CCF4C7010E948005E82FDC
:100B9000F0E0E05FFD4FC1E0D0E08081853600F3FA
:100BA000D195C195D109CE01DF91CF911F910F91C0
:100BB000FF90EF90DF90CF900895D0E0C0E0F3CFAA
:100BC0004F925F926F927F92AF92BF92CF92DF92DD
:100BD000EF92FF920F931F93CF93DF937C018B01D2
:100BE000452BE9F4029789319105C8F4409707979E
:100BF00020F485E1E816F10409F5EEEFEE0D94E03E
:100C0000E99FF0011124E454FD4F838192819017F4
:100C1000110609F024F4D12C80171106BCF4DF91E1
:100C2000CF911F910F91FF90EF90DF90CF90BF90E9
:100C3000AF907F906F905F904F90089577FD6AC05E
:100C4000643B71050CF066C0DD24D394EEEFEE0D2D
:100C50008E2F90E0FC01EE0FFF1FE80FF91FE75306
:100C6000F74FC0808FE28C1508F451C0828148E5AF
:100C7000A42E42E0B42EA81AB10887FDB394AA0CA2
:100C8000BB1CAA0CBB1C8181C8E8D0E0C81BD109E1
:100C900087FDD395CC0FDD1FCC0FDD1F2E010D2E50
:100CA000000C66087708D801053B110514F0A4EB89
:100CB000B0E095010B2C000C440B550B24193509A1
:100CC000460957090E94B71524EB30E040E050E098
:100CD0000E948D15420E531E641E751E4C165D0635
:100CE0002CF0E5014A145B040CF4E2012297CC0FCE
:100CF000DD1F2FB7F8948C2D90E0FC01EE0FFF1F45
:100D0000E80FF91FEC5CF74FD283C1832FBFDD20C2
:100D100009F485CFC7010E9480059DE0899FF001FD
:100D20001124E85EFD4F028782818017110609F0C9
:100D300076CF8FEF8387148672CF0F931F93CF9355
:100D4000DF938C010E9480059DE0899FF0011124B2
:100D5000E85EFD4FC281D0E0C8014297079748F492
:100D60000531110531F050E040E0BE01C8010E949C
:100D7000E005CE01DF91CF911F910F9108951F9350
:100D8000CF93DF931092F605C8E1D2E01FEF6A819E
:100D900070E0888150E040E090E00E94E0058A81A8
:100DA0008A87888190E00E945C050E94ED02998705
:100DB00088871B872D9682E0C636D80741F7CCEB93
:100DC000D2E0698170E0888150E040E090E00E94CC
:100DD000E005249682E0CC3FD80799F7DF91CF91C8
:100DE0001F910895CF93DF93C091E205D091E30561
:100DF000C233D1055CF0CE010E941D0262E070E0BA
:100E000080E090E00E942F032197F2CF90E080E0F5
:100E10000E941D0260E08AE00E94BE011092E1057E
:100E20001092E005DF91CF9108958F929F92AF923B
:100E3000BF92CF92DF92EF92FF920F931F93CF93C7
:100E4000DF93C82FD0E08E01000F111F000F111F7C
:100E5000F801EC51FA4FC080D180E280F3801C147D
:100E60001D041E041F040CF04DC00E940A030E94C2
:100E70006E144B015C01C701B6010E9470149B0106
:100E8000AC01C501B4010E94F01520E030E048E655
:100E900052E40E945D166B017C0120E030E844E8DA
:100EA00053E40E9405171816D4F120E030E049E31E
:100EB00053E4C701B6010E94691487FD30C020E0E9
:100EC00030E049E353E4C701B6010E94F0152AE976
:100ED00039E949E95FE30E94CF1420E030E040E8BF
:100EE00050E40E94F115CC0FDD1FC852DA4F0E946A
:100EF000CF1679836883F801EC51FA4F1082118282
:100F000012821382DF91CF911F910F91FF90EF908A
:100F1000DF90CF90BF90AF909F908F90089560E04A
:100F200070E080E89FEBDFCF80E00C94150781E054
:100F30000C94150782E00C94150783E00C941507B8
:100F400080918A0390918B03A0918C03B0918D03C3
:100F50000196A11DB11D80938A0390938B03A093EA
:100F60008C03B0938D030895FC0101900020E9F7F4
:100F70003197AF01481B590BBC0187E997E00C94EE
:100F80006E038F929F92AF92BF920F931F93CF9356
:100F9000DF93CDB7DEB7A1970FB6F894DEBF0FBED3
:100FA000CDBF19A2423008F44AE08E010F5D1F4FF9
:100FB000842E912CB12CA12CA50194010E94BF1567
:100FC000E62FB901CA01EA30F4F4E05DD801EE93EE
:100FD0008D01232B242B252B79F790E080E01097AF
:100FE00019F0CD010E94B407A1960FB6F894DEBFA8
:100FF0000FBECDBFDF91CF911F910F91BF90AF90EA
:101000009F908F900895E95CE1CFCF92DF92EF92AD
:10101000FF92CF93DF936B017C016DE287E997E04C
:101020000E940404EC0166277727CB016C197D0927
:101030008E099F094AE00E94C1078C0F9D1FDF9116
:10104000CF91FF90EF90DF90CF90089560918A0349
:1010500070918B0380918C0390918D0397FD0C947C
:1010600005084AE00C94C107BC01990F880B990B45
:1010700097FD0C9405084AE00C94C1070C94B40742
:10108000CF93DF93C2E1D0E0CE010E945C050E94C5
:10109000ED020E9434082196C931D10519F4DF917F
:1010A000CF91089582E193E00E943E08EDCF0F9327
:1010B0001F93CF93DF9308ED15E0D0E0C0E0F80177
:1010C000819191918F010E9434082196C430D105FD
:1010D00029F4DF91CF911F910F91089582E193E060
:1010E0000E943E08ECCFCF93DF930E943408EC01BE
:1010F00084E193E00E94B4078C0F9D1FDF91CF9194
:101100000895CF93DF930E94B407EC0184E193E04C
:101110000E94B4078C0F9D1FDF91CF9108950F930C
:101120001F93CF93DF93CDB7DEB7E2970FB6F89456
:10113000DEBF0FBECDBF8A0120916D0230916E02DD
:101140003A832983FE01339620E3DF011D922A951D
:10115000E9F7FC01E95FF94F50819E012F5F3F4F96
:10116000D901FD01E21BF30B561739F05D9301968F
:10117000FC01E95FF94F5081F4CFE20FF31F1082B9
:10118000F80191838083C9010E940E14E2960FB684
:10119000F894DEBF0FBECDBFDF91CF911F910F91AD
:1011A00008950F931F93CF93DF93EC01888199816A
:1011B000009759F02A813B812617370730F081E0EC
:1011C000DF91CF911F910F9108958B016F5F7F4F3A
:1011D0000E946C18009759F0998388831B830A83B7
:1011E0002C813D81232B59F7FC011082E8CF80E050
:1011F000E7CFCF93DF93EC0188819981009711F0BD
:101200000E94E317198218821D821C821B821A8297
:10121000DF91CF910895EF92FF920F931F93CF9399
:10122000DF93EC017B01198218821B821A821D82D6
:101230001C82FB0101900020E9F731978F01061B0A
:10124000170BB8010E94D108811109C0CE01DF91AE
:10125000CF911F910F91FF90EF900C94F9081D838F
:101260000C83B70188819981DF91CF911F910F91F4
:10127000FF90EF900C9456190F931F93CF93DF9329
:101280008C01EC0109900020E9F72197C81BD90BCC
:10129000BE018DE199E00E94D108811108C08DE165
:1012A00099E0DF91CF911F910F910C94F908D093A1
:1012B0002209C0932109B80180911D0990911E094E
:1012C000DF91CF911F910F910C945619DF92EF92FD
:1012D000FF920F931F93CF93DF9387E193E00E94D8
:1012E0003C091092FD051092FC051092F605109233
:1012F000F70581E0809366020E9461036093F80520
:101300007093F9058093FA059093FB05C8EBD2E042
:101310000CEF12E08CEBE82E82E0F82E60E0899171
:101320000E94EC0161E0F80181918F010E94EC01C3
:10133000EC16FD0699F760E082E00E94EC0180EA7D
:1013400097E0909301028093000280916A008C7F65
:10135000816080936A00EC9A8DE997E09093050292
:1013600080930402809169008C7F82608093690081
:10137000E89A8AE997E090930702809306028091A9
:101380006900837F886080936900E99A87E997E024
:101390009093090280930802809169008F7C80629B
:1013A00080936900EA9A84E997E090930B02809316
:1013B0000A02809169008F73806880936900EB9ABC
:1013C000C9ECD8E0F12CE12C0CE012E0F9E1EF16C9
:1013D000F10409F459C0F701E156FD4FD0801D1406
:1013E0000CF052C08881803308F04EC061E08D2D32
:1013F0000E94EC018881282F30E0F901EE0FFF1FD9
:10140000E20FF31FEC5CF74F2D2D2F739081907C32
:10141000922B908319821A82602F0E940A17809F54
:10142000B001112430E020E0AB01420F531FFA015C
:10143000EE0FFF1FE40FF51FEC5CF74F908196FD58
:1014400016C02F5F3F4F2C30310571F7813009F006
:101450008DC0109280001093810010928500109230
:101460008400B19A80916F00826080936F00E88160
:101470008E2F90E0FC01EE0FFF1FE80FF91FEC5CD0
:10148000F74F8081806480838FEFE81AF80A2396F3
:10149000EAE1EE16F10409F099CF61E080E10E94E3
:1014A000EC0161E081E10E94EC0161E08FE00E94CB
:1014B000EC0161E081E10E94BE0161E080E10E94F7
:1014C000BE0161E08FE00E94BE0160E086E20E9402
:1014D000EC0160E087E20E94EC0160E083E00E94A2
:1014E000EC010E94BF0660ED77E080E090E00E9492
:1014F0002F03E091A707F091A80782E08083E09195
:10150000A307F091A4071082E091A507F091A60728
:1015100080E180831092AF07E091AB07F091AC07B8
:1015200086E08083E091A907F091AA07808180611D
:101530008083E091A907F091AA0780818860808369
:10154000E091A907F091AA07808180688083E091EB
:10155000A907F091AA0780818F7D8083DF91CF91C9
:101560001F910F91FF90EF90DF900895823061F40A
:101570001092900080939100109295001092940028
:1015800088BB8093710073CF833061F41092A00008
:101590001093A1001092A5001092A40019BB109303
:1015A000720065CF811163CF109220011093210149
:1015B00010922501109224011ABB1093730057CF8B
:1015C000FC0180819181009711F00C94E31708953C
:1015D0001F920F920FB60F9211242F933F938F9368
:1015E0009F93AF93BF938091FF0590910006A091C8
:1015F0000106B09102063091FE0523E0230F2D373E
:1016000058F50196A11DB11D2093FE058093FF059D
:1016100090930006A0930106B09302068091030602
:1016200090910406A0910506B09106060196A11DB1
:10163000B11D8093030690930406A0930506B09312
:101640000606BF91AF919F918F913F912F910F907F
:101650000FBE0F901F90189526E8230F0296A11D2C
:10166000B11DD2CF1F920F920FB60F9211240BB65D
:101670000F922F933F934F935F936F937F938F932B
:101680009F93AF93BF93EF93FF93E0910E02F0917E
:101690000F020995FF91EF91BF91AF919F918F91AB
:1016A0007F916F915F914F913F912F910F900BBE62
:1016B0000F900FBE0F901F9018951F920F920FB6AC
:1016C0000F9211240BB60F922F933F934F935F937A
:1016D0006F937F938F939F93AF93BF93EF93FF93FA
:1016E000E0910C02F0910D020995FF91EF91BF91ED
:1016F000AF919F918F917F916F915F914F913F91AA
:101700002F910F900BBE0F900FBE0F901F9018954A
:101710001F920F920FB60F9211240BB60F922F93B8
:101720003F934F935F936F937F938F939F93AF9369
:10173000BF93EF93FF93E0910202F09103020995AA
:10174000FF91EF91BF91AF919F918F917F916F9199
:101750005F914F913F912F910F900BBE0F900FBE55
:101760000F901F9018951F920F920FB60F92112491
:101770000BB60F922F933F934F935F936F937F938B
:101780008F939F93AF93BF93EF93FF93E0910002EA
:10179000F09101020995FF91EF91BF91AF919F9157
:1017A0008F917F916F915F914F913F912F910F900A
:1017B0000BBE0F900FBE0F901F9018951F920F92A7
:1017C0000FB60F9211240BB60F922F933F934F93A6
:1017D0005F936F937F938F939F93AF93BF93EF9399
:1017E000FF93E0910A02F0910B020995FF91EF91AE
:1017F000BF91AF919F918F917F916F915F914F9129
:101800003F912F910F900BBE0F900FBE0F901F9026
:1018100018951F920F920FB60F9211240BB60F92CC
:101820002F933F934F935F936F937F938F939F93E8
:10183000AF93BF93EF93FF93E0910802F0910902F9
:101840000995FF91EF91BF91AF919F918F917F91FA
:101850006F915F914F913F912F910F900BBE0F9021
:101860000FBE0F901F9018951F920F920FB60F92F8
:1018700011240BB60F922F933F934F935F936F9367
:101880007F938F939F93AF93BF93EF93FF93E091D9
:101890000602F09107020995FF91EF91BF91AF9178
:1018A0009F918F917F916F915F914F913F912F9178
:1018B0000F900BBE0F900FBE0F901F9018951F92A8
:1018C0000F920FB60F9211240BB60F922F933F93E6
:1018D0004F935F936F937F938F939F93AF93BF9338
:1018E000EF93FF93E0910402F09105020995FF91B7
:1018F000EF91BF91AF919F918F917F916F915F9188
:101900004F913F912F910F900BBE0F900FBE0F90F4
:101910001F9018951F920F920FB60F9211240BB6BD
:101920000F922F933F934F935F936F937F938F9378
:101930009F93AF93BF93EF93FF9387E997E00E9444
:10194000E203FF91EF91BF91AF919F918F917F91B2
:101950006F915F914F913F912F910F900BBE0F9020
:101960000FBE0F901F9018951F920F920FB60F92F7
:1019700011240BB60F922F938F939F93EF93FF93A6
:10198000E091A707F091A8078081E091AD07F09161
:10199000AE0782FD1DC090818091B0078F5F8F736D
:1019A0002091B107821741F0E091B007F0E0E956CD
:1019B000F84F958F8093B007FF91EF919F918F9192
:1019C0002F910F900BBE0F900FBE0F901F90189588
:1019D0008081F2CF1F920F920FB60F9211240BB697
:1019E0000F922F933F934F935F936F937F938F93B8
:1019F0009F93AF93BF93EF93FF9348E251E064E26C
:101A000071E090E080E00E94A204FF91EF91BF910D
:101A1000AF919F918F917F916F915F914F913F9186
:101A20002F910F900BBE0F900FBE0F901F90189527
:101A30001F920F920FB60F9211240BB60F922F9395
:101A40003F934F935F936F937F938F939F93AF9346
:101A5000BF93EF93FF9348EA50E064EA70E083E0BD
:101A600090E00E94A204FF91EF91BF91AF919F91EE
:101A70008F917F916F915F914F913F912F910F9037
:101A80000BBE0F900FBE0F901F9018951F920F92D4
:101A90000FB60F9211240BB60F922F933F934F93D3
:101AA0005F936F937F938F939F93AF93BF93EF93C6
:101AB000FF9348E950E064E970E082E090E00E9422
:101AC000A204FF91EF91BF91AF919F918F917F9170
:101AD0006F915F914F913F912F910F900BBE0F909F
:101AE0000FBE0F901F9018951F920F920FB60F9276
:101AF00011240BB60F922F933F934F935F936F93E5
:101B00007F938F939F93AF93BF93EF93FF9348E897
:101B100050E064E870E081E090E00E94A204FF9150
:101B2000EF91BF91AF919F918F917F916F915F9155
:101B30004F913F912F910F900BBE0F900FBE0F90C2
:101B40001F90189510929A071092990788EE93E0CB
:101B5000A0E0B0E080939B0790939C07A0939D0723
:101B6000B0939E0784E093E0909398078093970743
:101B700085EC90E09093A4078093A30784EC90E019
:101B80009093A6078093A50780EC90E09093A80718
:101B90008093A70781EC90E09093AA078093A90710
:101BA00082EC90E09093AC078093AB0786EC90E0DA
:101BB0009093AE078093AD071092B0071092B107D3
:101BC0001092B2071092B30766E173E08DE199E0DD
:101BD0000E940B09E9ECF8E02DE139E04FEF68EBEA
:101BE0007BE08091C408803300F591E0980F9093DA
:101BF000C408808390E0DC01AA0FBB1FA80FB91FA7
:101C0000AC5CB74F12967C936E93119733962E1758
:101C10003F0739F70E9461036093C5087093C608B7
:101C20008093C7089093C80808954083EFCFCF935F
:101C3000DF93CDB7DEB72A970FB6F894DEBF0FBE9D
:101C4000CDBF789484B5826084BD84B5816084BD45
:101C500085B5826085BD85B5816085BD80916E004A
:101C6000816080936E00109281008091810082607B
:101C700080938100809181008160809381008091B8
:101C800080008160809380008091B10084608093A7
:101C9000B1008091B00081608093B000809191008C
:101CA0008260809391008091910081608093910087
:101CB000809190008160809390008091A10082606B
:101CC0008093A1008091A10081608093A100809108
:101CD000A00081608093A0008091210182608093A8
:101CE0002101809121018160809321018091200157
:101CF00081608093200180917A00846080937A00D3
:101D000080917A00826080937A0080917A0081606D
:101D100080937A0080917A00806880937A00109294
:101D2000C1000E94660922242A94322CBDE0AB2E09
:101D300015E3B12E87E997E00E94CC031816190627
:101D40000CF04AC087E997E00E94AA032091FC05A5
:101D50003091FD052E3891E03907C4F58D3051F3EF
:101D6000F901E95FF94F8E3211F08A3019F51082CE
:101D70001092FD051092FC0580910706803409F051
:101D8000C0C1AE014F5F5F4F6AE381E090E00E9407
:101D90008F08FC0129813A81D901A95FB94F90E0F0
:101DA00080E04D91442309F443C1840F911D47FD08
:101DB0009A95F7CF2F5F3F4F3093FD052093FC0599
:101DC0008083295F394FF9011082B4CF1092070642
:101DD0001092FD051092FC050E9461030091F80528
:101DE0001091F9052091FA053091FB05601B710BEC
:101DF000820B930B693E73408105910508F44FC037
:101E000060E084E00E94BE0160E086E00E94BE01C6
:101E100060E085E00E94BE0160E087E00E94BE01B4
:101E200062E070E080E090E00E942F030CEF12E08F
:101E300044EEE42E45E0F42E61E0F80181918F013B
:101E40000E94BE010E940A03F7016193719381937E
:101E500091937F01603571058105910534F40E94ED
:101E6000F20661E080E10E94BE01F3E000301F074E
:101E700019F76AE070E080E090E00E942F0360E0D4
:101E800084E00E94BE0160E086E00E94BE0160E046
:101E900085E00E94BE0160E087E00E94BE01809163
:101EA000F705882309F448C038E1E32E32E0F32E29
:101EB000912C812CF701C080D12CC6010E945C05B9
:101EC0000E94ED02F701478150E0440F551F058144
:101ED0001681040F151F23813481241B350B41818A
:101EE00050E0BC01C6010E948705892B19F0FFEF65
:101EF0008F1A9F0A2DE0E20EF11C86E692E08E1505
:101F00009F05C1F6892809F41CC48091F4059091BD
:101F1000F50501969093F5058093F4058091F405FD
:101F20009091F505039741F461E081E10E94BE01C3
:101F30001092F5051092F40580916602882391F1C4
:101F400098E1E92E92E0F92EF701C080D12CC6016C
:101F50000E945C050E94ED02F70105811681238134
:101F60003481418150E0BC01C6010E948705892B64
:101F700019F0C6010E949D06FDE0EF0EF11C83E7FB
:101F800092E08E159F0501F74AE0BE016F5F7F4F1B
:101F900080916102909162020E942C14CE01019600
:101FA0000E943C090E9461030091C5081091C60877
:101FB0002091C7083091C808601B710B820B930BEE
:101FC000633371058105910508F4DBC38091F60543
:101FD000882309F4CCC388E1E82E82E0F82E55244A
:101FE0005394F701028560847184C080D12CC601AE
:101FF0000E945C05182F0E94ED024C01F7018281BE
:10200000081709F4C7C3812F0E94ED02F70105816B
:10201000168123813481418150E0BC01C6010E94B8
:102020008705892B09F492C3C6010E949D0696C3B9
:1020300064E670E00E941617E817F90709F061C01E
:10204000C9010296F901E85FF94FE081E153E634F6
:1020500008F057C00E2E000CFF0BEF5CFF4E0C94E7
:102060002A17F312FA128110811081108110811049
:1020700081108110811081108110811081108110D8
:102080008110BD1081108D101911811081108110E7
:102090008110C81281108110A3108110811081104D
:1020A000E01081107F12AC1281100113E612811032
:1020B00081108110B0108110811081108110811069
:1020C0008110371177108410EA108110F8108110F8
:1020D0008110C312811081108110A71181109610F8
:1020E0004F1181106C12AF12B81281100411AE01A1
:1020F0004F5F5F4F6BE30E948F08682F80E10E9463
:10210000BE011092070668CEAE014F5F5F4F6BE3D2
:102110000E948F08682F81E1F2CFAE014F5F5F4FC1
:102120006BE30E948F08682F8FE0E9CFAE014F5F0D
:102130005F4F6BE30E948F0821E0892B09F420E0B8
:102140002093F605DECFAE014F5F5F4F6BE30E9439
:102150008F0821E0892B09F420E02093F705D1CFE7
:10216000AE014F5F5F4F6BE30E948F0821E0892B28
:1021700009F420E020936602C4CFAE014F5F5F4FA9
:102180006BE30E948F087C0110E000E00E151F0534
:1021900064F4C8010E941D0265E070E080E090E0F8
:1021A0000E942F030F5F1F4FF1CFF092E305E092E3
:1021B000E20581E090E09093E1058093E005A1CFF6
:1021C0008091E0059091E105019709F09ACF0E9476
:1021D000F20697CFAE014F5F5F4F6BE30E948F080F
:1021E00050E040E0BC018AE190E00E94E00589CF28
:1021F000AE014F5F5F4F6BE30E948F0861E0892B58
:1022000009F460E089E07BCFAE014F5F5F4F6BE385
:102210000E948F082091E0053091E105232B09F4FD
:1022200070CF009719F460E08AE069CF0E941D0228
:1022300068CFAE014F5F5F4F6BE30E948F088C0148
:1022400089E193E00E943E08C8010E94340882E1BF
:1022500093E00E943E08000F111FF801E852FA4F68
:10226000808191810E9434088DE193E07EC1AE01AE
:102270004F5F5F4F6BE30E948F088C018FE193E00B
:102280000E943E08C8010E94340882E193E00E9447
:102290003E08C8010E945C050E94ED02E3CF895F01
:1022A000994FFC011081AE014F5F5F4F6CE2C90195
:1022B00003960E948F087C0189819A81AE014F5F4D
:1022C0005F4F6BE301960E948F084C01173671F047
:1022D00066246394712C123759F4C7010E9480055B
:1022E000A89EF0011124E85EFD4F8282712C612CC2
:1022F000C7014297079728F5F5E1EF16F10409F1B8
:10230000C7010E948005C82ED12CAC9C8001AD9CD9
:10231000100D1124085E1D4FF8011486C7010E949C
:102320005C050E94ED02F80191878087F601E05F6D
:10233000FD4F8082F80182818815190431F48FEFF6
:102340008387A301B401C70150CF8EEFF9CFC090AE
:10235000D605D090D705F3E6CF16D1040CF0B7C060
:10236000AE014F5F5F4F6CE7C90103960E948F0873
:10237000BC9CF001BD9CF00D1124EC53FC4F8083FC
:1023800029813A812F5F3F4F10929203F901E95F53
:10239000F94F4081A2E9B3E0FD01E259F340C901E0
:1023A00001964C3739F04D93FC01E95FF94F4081BC
:1023B0009C01F2CFEE56FC4F10823A832983AE0186
:1023C0004F5F5F4F6CE70E948F08BC9C9001BD9CE3
:1023D000300D1124F901EC53FC4F9283818390E07E
:1023E00080E0FC01EE0FFF1FE20FF31FEC53FC4FE8
:1023F0003482238201968731910599F707E110E035
:10240000412C512C3201BC9C4001BD9C900C1124EC
:1024100089819A81AE014F5F5F4F6CE201960E9405
:102420008F087C01092E000CAA0BBB0B480E591E0D
:102430006A1E7B1E89819A81AE014F5F5F4F6BE3FD
:1024400001960E948F08F701EE0FFF1FE80DF91D9E
:10245000EC53FC4F94838383092E000CAA0BBB0B17
:10246000480E591E6A1E7B1E0150110989F689818A
:102470009A81AE014F5F5F4F6CE701960E948F0813
:102480008C01C301B20128EF3FE740E050E00E9419
:102490008D15012E000C220B330B6017710782077C
:1024A000930791F42FEFC21AD20AD092D705C092A7
:1024B000D60583E293E00E943E088091D605909174
:1024C000D7050E9473081DCE8CE293E0F4CF88E319
:1024D00093E00E943E0815CEAE014F5F5F4F6BE365
:1024E0000E948F0890931702809316028BE493E06A
:1024F0000E943E088091160290911702E2CFAE0131
:102500004F5F5F4F6CE2C90103960E948F088C01F8
:1025100089819A81AE014F5F5F4F6BE301960E9404
:102520008F087C01C8014297079708F0EACD053172
:10253000110509F4E6CDC8010E949D06D82EC801F8
:102540000E948005A89EF0011124E85EFD4FD2860E
:102550001486F186E086D5CD0E946609D2CD3092F0
:1025600017022092160284E593E00E948108C9CDEB
:102570001092D7051092D6053092170220921602BB
:102580008DE593E0F2CF0E94BF0687E693E0EDCFA2
:1025900010929203FC01E95FF94F2081A2E9B3E0B8
:1025A000FD01E259F3402B3339F02D930196FC01E4
:1025B000E95FF94F2081F4CFEE56FC4F10829A83E9
:1025C000898382E993E00E943C099BCDAE014F5F75
:1025D0005F4F6BE30E948F0882E793E00E943E0802
:1025E0000E94260841CE86E793E00E943E080E94A2
:1025F00057083ACE8AE793E00E943E080E944008BE
:1026000033CE8EE793E00E943E080E94400882E1AC
:1026100093E00E943E080E94570882E193E00E94E6
:102620003E080E94260882E193E00E943E0886E26E
:102630000E94950121E030E0019711F030E020E0A8
:10264000C9010E94340887E20E94950121E030E030
:10265000019711F030E020E0C9010E94340883E0C6
:102660000E94950121E030E0019711F030E020E078
:10267000C9010E94340882E193E00E943E0858E1BB
:10268000E52E52E0F52E10E000E0F701628570E0E3
:1026900090E080E04AE00E94C1070F5F1F4F82E197
:1026A00093E00630110509F046C00E943E0881E122
:1026B0000E94950121E030E0019711F030E020E028
:1026C000C9010E94340880E10E94950121E030E0B8
:1026D000019711F030E020E0C9010E9434088FE03A
:1026E0000E94950121E030E0019711F030E020E0F8
:1026F000C9010E9434088091F60590E00E943408D8
:102700008091F70590E00E9434088091660290E085
:102710000E94340882E193E00E943E084091210922
:102720005091220960911D0970911E0987E997E077
:102730000E946E0399CD0E943E088DE0E80EF11CC8
:10274000A4CF1092F5051092F405E8CBF70183852C
:102750008130D1F4681479040CF466CCFDE0EF0EFE
:10276000F11C83E792E08E159F0509F03ACC0E9498
:1027700061036093C5087093C6088093C70890935F
:10278000C8080E947104D6CA8111E8CF8614970444
:102790002CF74ACCC3018819990997FF03C091957A
:1027A00081959109F7012781281719068CF58485F1
:1027B0008F5F8487843091F6818186149704C4F4F6
:1027C00065E070E0813011F06FEA70E050E040E0C9
:1027D000C6010E94E005F701538662E873E0CE016E
:1027E00001960E940B09CE0101960E94E00AB6CF25
:1027F0006FEA70E0813011F065E070E050E040E099
:10280000C6010E94E005F701138666E873E0E7CF92
:102810001486A4CF8DE199E00C94E00AFC0188278E
:102820009927E89421912032E9F3293010F02E30D5
:10283000C8F32B3241F02D3239F4689404C00E9461
:102840003714820F911D219120532A30C0F31EF4BA
:10285000909581959F4F0895BB274A3031F4992375
:1028600022F4BDE2909581959F4F0C9440147AE03C
:10287000979F902D879F802D910D11240895BB2740
:10288000FB015527AA27880F991FAA1FA41710F02C
:10289000A41B83955051B9F7A05DAA3308F0A95D38
:1028A000A193009779F7B111B1931192CB010C94D8
:1028B0005914DC01FC01672F71917723E1F73297FE
:1028C00004C07C916D9370836291AE17BF07C8F30B
:1028D00008950E94AB1408F481E00895E89409C0BB
:1028E00097FB3EF490958095709561957F4F8F4F43
:1028F0009F4F9923A9F0F92F96E9BB279395F69559
:10290000879577956795B795F111F8CFFAF4BB0FD6
:1029100011F460FF1BC06F5F7F4F8F4F9F4F16C03A
:10292000882311F096E911C0772321F09EE8872FC4
:10293000762F05C0662371F096E8862F70E060E080
:102940002AF09A95660F771F881FDAF7880F9695F9
:10295000879597F90895990F0008550FAA0BE0E89D
:10296000FEEF16161706E807F907C0F01216130651
:10297000E407F50798F0621B730B840B950B39F491
:102980000A2661F0232B242B252B21F408950A26F7
:1029900009F4A140A6958FEF811D811D08950E9425
:1029A000E2140C9453150E94451538F00E944C1502
:1029B00020F0952311F00C943C150C944215112431
:1029C0000C9487150E94641570F3959FC1F3950FC1
:1029D00050E0551F629FF001729FBB27F00DB11DA3
:1029E000639FAA27F00DB11DAA1F649F6627B00D33
:1029F000A11D661F829F2227B00DA11D621F739F1C
:102A0000B00DA11D621F839FA00D611D221F749F29
:102A10003327A00D611D231F849F600D211D822F70
:102A2000762F6A2F11249F5750409AF0F1F0882397
:102A30004AF0EE0FFF1FBB1F661F771F881F9150C4
:102A40005040A9F79E3F510580F00C943C150C9422
:102A500087155F3FE4F3983ED4F3869577956795A5
:102A6000B795F795E7959F5FC1F7FE2B880F911DEE
:102A70009695879597F9089597F99F6780E870E094
:102A800060E008959FEF80EC089500240A941616E4
:102A9000170618060906089500240A94121613064C
:102AA000140605060895092E0394000C11F48823DA
:102AB00052F0BB0F40F4BF2B11F460FF04C06F5FF6
:102AC0007F4F8F4F9F4F089557FD9058440F551FCC
:102AD00059F05F3F71F04795880F97FB991F61F0A0
:102AE0009F3F79F087950895121613061406551F17
:102AF000F2CF4695F1DF08C0161617061806991F83
:102B0000F1CF86957105610508940895E894BB2777
:102B100066277727CB0197F90895052E97FB1EF4BA
:102B200000940E94A41557FD07D00E94BF1507FC12
:102B300003D04EF40C94A4155095409530952195F2
:102B40003F4F4F4F5F4F08959095809570956195D9
:102B50007F4F8F4F9F4F08950E94E115A59F900DC5
:102B6000B49F900DA49F800D911D11240895B7FF6F
:102B70000C94AC150E94AC15821B930B0895A1E236
:102B80001A2EAA1BBB1BFD010DC0AA1FBB1FEE1FE7
:102B9000FF1FA217B307E407F50720F0A21BB30B32
:102BA000E40BF50B661F771F881F991F1A9469F7AE
:102BB00060957095809590959B01AC01BD01CF010A
:102BC0000895A29FB001B39FC001A39F700D811D06
:102BD0001124911DB29F700D811D1124911D089526
:102BE0005058BB27AA270E9408160C9453150E9420
:102BF000451538F00E944C1520F039F49F3F19F428
:102C000026F40C9442150EF4E095E7FB0C943C1569
:102C1000E92F0E94641558F3BA17620773078407F7
:102C2000950720F079F4A6F50C9486150EF4E0953E
:102C30000B2EBA2FA02D0B01B90190010C01CA0176
:102C4000A0011124FF27591B99F0593F50F4503E21
:102C500068F11A16F040A22F232F342F4427585F13
:102C6000F3CF469537952795A795F0405395C9F72B
:102C70007EF41F16BA0B620B730B840BBAF09150E3
:102C8000A1F0FF0FBB1F661F771F881FC2F70EC082
:102C9000BA0F621F731F841F48F487957795679555
:102CA000B795F7959E3F08F0B0CF9395880F08F041
:102CB0009927EE0F9795879508950E9471160C94A9
:102CC00053150E944C1558F00E94451540F029F408
:102CD0005F3F29F00C943C1551110C9487150C940E
:102CE00042150E94641568F39923B1F3552391F3BB
:102CF000951B550BBB27AA2762177307840738F06B
:102D00009F5F5F4F220F331F441FAA1FA9F335D0C7
:102D10000E2E3AF0E0E832D091505040E695001C7B
:102D2000CAF72BD0FE2F29D0660F771F881FBB1F35
:102D3000261737074807AB07B0E809F0BB0B802D13
:102D4000BF01FF2793585F4F3AF09E3F510578F03F
:102D50000C943C150C9487155F3FE4F3983ED4F334
:102D6000869577956795B795F7959F5FC9F7880F13
:102D7000911D9695879597F90895E1E0660F771F65
:102D8000881FBB1F621773078407BA0720F0621BF6
:102D9000730B840BBA0BEE1F88F7E09508950E9421
:102DA000D6166894B1110C94871508950E946C157D
:102DB00088F09F5798F0B92F9927B751B0F0E1F0FC
:102DC000660F771F881F991F1AF0BA95C9F714C0AC
:102DD000B13091F00E948615B1E008950C948615EB
:102DE000672F782F8827B85F39F0B93FCCF38695E5
:102DF00077956795B395D9F73EF490958095709542
:102E000061957F4F8F4F9F4F08950E94AB1408F438
:102E10008FEF0895991B79E004C0991F961708F069
:102E2000961B881F7A95C9F78095089597FB072E02
:102E300016F4009407D077FD09D00E94331707FCE1
:102E400005D03EF4909581959F4F089570956195BA
:102E50007F4F0895EE0FFF1F0024001C0BBE07904C
:102E6000F691E02D0994AA1BBB1B51E107C0AA1FD4
:102E7000BB1FA617B70710F0A61BB70B881F991F1B
:102E80005A95A9F780959095BC01CD0108950F93AF
:102E90001F93CF93DF938230910510F482E090E08E
:102EA000E0912509F091260930E020E0B0E0A0E0B3
:102EB000309799F42115310509F44AC0281B390BC4
:102EC00024303105D8F58A819B816115710589F11E
:102ED000FB0193838283FE0111C0408151810281F5
:102EE000138148175907E0F04817590799F41097CC
:102EF00061F012960C93129713961C933296CF01A1
:102F0000DF91CF911F910F910895009325091093A0
:102F10002609F4CF2115310551F04217530738F037
:102F2000A901DB019A01BD01DF01F801C1CFEF0169
:102F3000F9CF9093260980932509CDCFFE01E20FAA
:102F4000F31F819391932250310939832883D7CF7E
:102F50002091230930912409232B41F42091690207
:102F600030916A023093240920932309209167024B
:102F7000309168022115310541F42DB73EB74091DB
:102F80006B0250916C02241B350BE0912309F091E8
:102F90002409E217F307A0F42E1B3F0B281739076B
:102FA00078F0AC014E5F5F4F2417350748F04E0FA5
:102FB0005F1F5093240940932309819391939FCFDE
:102FC000F0E0E0E09CCFCF93DF930097E9F0FC01C5
:102FD000329713821282A0912509B0912609ED0142
:102FE00030E020E01097A1F420813181820F931FFF
:102FF00020912309309124092817390709F061C06D
:10300000F0932409E0932309DF91CF910895EA0119
:10301000CE17DF07E8F54A815B819E014115510516
:10302000B1F7E901FB83EA8349915991C40FD51F98
:10303000EC17FD0761F4808191810296840F951F42
:10304000E90199838883828193819B838A83F0E05D
:10305000E0E012968D919C9113970097B9F52D9110
:103060003C911197CD010296820F931F2091230965
:10307000309124092817390739F6309751F5109205
:10308000260910922509B0932409A0932309BCCFE7
:10309000D383C28340815181840F951FC817D907FC
:1030A00061F44E5F5F4F88819981480F591F5183AA
:1030B00040838A819B81938382832115310509F0A6
:1030C000B0CFF0932609E09325099ECFFD01DC01E6
:1030D000C0CF13821282D7CF4F925F926F927F92AE
:1030E0008F929F92AF92BF92CF92DF92EF92FF9218
:1030F0000F931F93CF93DF938C01009799F4CB012B
:10310000DF91CF911F910F91FF90EF90DF90CF90C3
:10311000BF90AF909F908F907F906F905F904F90F7
:103120000C944717FC01E60FF71F9C012250310950
:10313000E217F30708F4AEC0D901CD91DC911197E5
:10314000C617D70720F1C530D10578F0CE01049716
:103150008617970750F0C61BD70B2297C193D193C0
:103160006D937C93CF010E94E317C801DF91CF914B
:103170001F910F91FF90EF90DF90CF90BF90AF9095
:103180009F908F907F906F905F904F9008955B011C
:10319000AC1ABD0A4C018C0E9D1EA0912509B09160
:1031A0002609512C412CF12CE12C109731F58091FE
:1031B0002309909124098815990509F05CC04616E9
:1031C000570608F058C080916702909168020097F6
:1031D00041F48DB79EB740916B0250916C02841BF5
:1031E000950BE817F90708F055C0F0932409E09310
:1031F0002309F90171836083B8CF8D919C91119758
:1032000012966C90129713967C901397A815B90597
:1032100059F56C0142E0C40ED11CCA14DB0420F144
:10322000AC014A195B09DA011296159780F06282A7
:10323000738251834083D9016D937C93E114F1042F
:1032400071F0D7011396FC93EE9312978ECF2296CE
:103250008C0F9D1FF90191838083F301EFCFF093D1
:103260002609E093250981CF4816590608F42C0158
:103270007D01D3019ACFCB010E9447177C010097B3
:1032800049F0AE01B8010E944D19C8010E94E31730
:1032900087016BCF10E000E068CFFB01DC0102C0CA
:1032A00001900D9241505040D8F70895FB01DC0188
:1032B00001900D920020E1F7089511E0C3E0D1E004
:1032C00004C0FE010E942A172196C430D107C9F715
:0432D000F894FFCFA0
:1032D4006D036D036D036D036D036D036D036D036A
:1032E400646464646464FFFF12016C4C03CA030ADF
:1032F400000000000013016D2C01440214000000C2
:1033040000001401468C0030020A00000000001680
:1033140000502B02EC020A000000000017014EFED0
:1033240001CF020A000000000018014B67012302CC
:103334000A000000000001000027098000000000CE
:103344000000000000000000000000000000000079
:103354000000000000000000000000000000000069
:103364000000000000000000000000000000001643
:103374001718191D1C2E2F303334351F2021002D12
:103384002A2B0023252400081213141502551BA010
:10339400035510B20455179E05550DB206552BB2B0
:1033A40007B22BB208A333B20988299B0A73007DA4
:1033B4000B2A00B20CB223B20D7600B20E5C5A7026
:1033C4000F410F87100C01691A5501AA040605075D
:1033D4000000000004046E039B035104CC03AA0301
:1033E400BE032C000D0A004900442D3E003B004161
:1033F4002D3E003E5345435F4F4B2D003E53454306
:103404005F4552524F522D003E5345435F45525241
:103414004F525F4D41585F534543003E52554E5FF6
:103424004F4B2D003E53544F505F4F4B003E52457F
:103434005345545F4F4B003E504F53494E495F4FE5
:103444004B00562D3E00312D3E00322D3E00552DB1
:0A3454003E004331320043313300E3
:00000001FF
