:100000000C940A010C94701A0C94451A0C941A1A48
:100010000C94EF190C94C4190C9499190C946E1942
:100020000C9443190C9434010C9434010C94340155
:100030000C9434010C9434010C9434010C945B1B2B
:100040000C9434010C94081C0C9434010C9434016D
:100050000C9434010C9434010C9434010C94F91870
:100060000C9434010C94251B0C94FB1A0C94340151
:100070000C9434010C9434010C9434010C9434012C
:100080000C9434010C9434010C9434010C9434011C
:100090000C94C51A0C949B1A0C9434010C943401E2
:1000A0000C9434010C9434010C9434010C943401FC
:1000B0000C9434010C9434010C9434010C943401EC
:1000C0000C9434010C9434010C9434010C943401DC
:1000D0000C9434010C9434010C9434010C943401CC
:1000E0000C9434010A0B0C0D0E0F000021002400AB
:1000F00027002A002D003000330001010000040118
:1001000007010A0100002200250028002B002E0014
:100110003100340002010000050108010B0100005C
:1001200020002300260029002C002F0032000001AF
:10013000000003010601090105050505070508087A
:100140000808020202020A0A080804040404010161
:100150000101010101010303030303030303040776
:1001600007070C0C0C0C0C0C0C0C0202020206060D
:100170000606060606060B0B0B0B0B0B0B0B010200
:1001800010202008081020401020408002010201A9
:100190000804020101020408102040808040201061
:1001A00008040201800402018040201008040201BA
:1001B0000804020101020408102040800102040822
:1001C0001020408000000A0B02090C0D0E080703E6
:1001D000040100000000000000000000000000001A
:1001E000000000000000000000000000000000000F
:1001F00012111000000000000000000000000000CC
:1002000000000000000000000000000102030405DF
:10021000C01C821C11241FBECFEFD1E2DEBFCDBFB8
:1002200014E0A0E0B2E0ECE0FEE400E00BBF02C0AE
:1002300007900D92A239B107D9F72DE0A2E9B4E0F9
:1002400001C01D92AB3BB207E1F711E0C9E0D1E07C
:1002500004C02197FE010E94E625C830D107C9F7E6
:100260000E94621E0C94F9260C9400008150823189
:1002700008F058C0E82FF0E0E05CFE4F0C94E62553
:1002800060016401520158015C01920167016D0136
:10029000710177017B017F018501890192018D0147
:1002A00093019701809180008F778093800008955B
:1002B000809180008F7DF9CF80918000877FF5CF7E
:1002C00084B58F7784BD089584B58F7DFBCF8091F1
:1002D000B0008F778093B00008958091B0008F7D3B
:1002E000F9CF809190008F7780939000089580914E
:1002F00090008F7DF9CF80919000877FF5CF80911E
:10030000A0008F778093A00008958091A0008F7D3A
:10031000F9CF8091A000877FF5CF809120018F7762
:10032000809320010895809120018F7DF9CF8091E5
:100330002001877FF5CFCF93DF93282F30E0F9019D
:10034000EC53FE4F8491F901E258FE4FD491F9012C
:10035000E85CFE4FC491CC23A1F081110E943601CC
:10036000EC2FF0E0EE0FFF1FE25EFE4FA591B4917F
:10037000EC91ED2381E090E009F480E0DF91CF91F2
:10038000089580E090E0FACF1F93CF93DF93282F5A
:1003900030E0F901EC53FE4F8491F901E258FE4F31
:1003A000D491F901E85CFE4FC491CC23A9F0162F3B
:1003B00081110E943601EC2FF0E0EE0FFF1FEC5F81
:1003C000FE4FA591B4918FB7F894EC91111108C02C
:1003D000D095DE23DC938FBFDF91CF911F910895DD
:1003E000DE2BF8CF682F8091950D0E94C40180917B
:1003F000AD0D9091AE0D8230910538F0880F991FA8
:10040000880F991F05970197F1F7089581E00C94E3
:10041000F201CF93DF9390E0FC01E258FE4F24916C
:10042000885C9E4FFC0184918823D1F090E0880F76
:10043000991FFC01E651FF4FA591B491FC01EC5FBF
:10044000FE4FC591D49161110EC09FB7F8948C9165
:10045000E22FE0958E238C932881E223E8839FBFCF
:10046000DF91CF9108958FB7F894EC91E22BEC9344
:100470008FBFF6CFCF93DF93EC0161E08DE00E9458
:100480000902209731F460E08DE0DF91CF910C9468
:10049000C401CF3FD10511F461E0F6CFE1EDF1E009
:1004A000E491E150E23108F0B0C0F0E0E65AFD4FCF
:1004B0000C94E6256C027302780282028C0205031A
:1004C00096029E02A602B002BA02C402D302DD0264
:1004D0000503E702F102FB0284B5806884BDC7BD55
:1004E000DF91CF91089584B5806284BDC8BDF8CFF7
:1004F00080918000806880938000D0938900C093B1
:100500008800EECF80918000806280938000D0933D
:100510008B00C0938A00E4CF809180008860809334
:100520008000D0938D00C0938C00DACF8091B00012
:1005300080688093B000C093B300D2CF8091B000A8
:1005400080628093B000C093B400CACF80919000C5
:10055000806880939000D0939900C0939800C0CF9A
:1005600080919000806280939000D0939B00C09314
:100570009A00B6CF80919000886080939000D093CD
:100580009D00C0939C00ACCF8091A00080688093B8
:10059000A0008091A0008F7B8093A000D093A90041
:1005A000C093A8009DCF8091A00080628093A0009E
:1005B000D093AB00C093AA0093CF8091A000886035
:1005C0008093A000D093AD00C093AC0089CF809100
:1005D0002001806880932001D0932901C0932801D5
:1005E0007FCF80912001806280932001D0932B01E6
:1005F000C0932A0175CF80912001886080932001EB
:10060000D0932D01C0932C016BCFC038D1050CF0D5
:1006100043CF39CF863308F0865320917B00982F43
:100620009870277F922B90937B00877080648093D3
:100630007C0080917A00806480937A0080917A00B7
:1006400086FDFCCF809178009091790008953FB7A6
:10065000F8948091DF049091E004A091E104B091BE
:10066000E20426B5A89B05C02F3F19F00196A11DF5
:10067000B11D3FBFBA2FA92F982F8827BC01CD01EC
:10068000620F711D811D911D42E0660F771F881F4B
:10069000991F4A95D1F708958F929F92AF92BF927A
:1006A000CF92DF92EF92FF924B015C010E942703F1
:1006B0006B017C010E9427036C197D098E099F093B
:1006C000683E734081059105A8F321E0821A9108E4
:1006D000A108B10888EEC80E83E0D81EE11CF11C09
:1006E00081149104A104B10429F7FF90EF90DF90E9
:1006F000CF90BF90AF909F908F9008952FB7F894B0
:100700006091DB047091DC048091DD049091DE0443
:100710002FBF08950895AF92BF92CF92DF92EF92CC
:10072000FF920F931F93CF93DF936C017B018B019B
:10073000040F151FEB015E01AE18BF08C017D107EB
:1007400059F06991D601ED91FC910190F081E02D75
:10075000C6010995892B79F7C501DF91CF911F91CA
:100760000F91FF90EF90DF90CF90BF90AF900895E2
:10077000FC01538D448D252F30E0842F90E0821BA7
:10078000930B541710F0CF96089501970895FC012C
:10079000918D828D981761F0A28DAE0FBF2FB11D84
:1007A0005D968C91928D9F5F9F73928F90E00895DC
:1007B0008FEF9FEF0895FC01918D828D981731F096
:1007C000828DE80FF11D858D90E008958FEF9FEFEA
:1007D0000895FC01918D228D892F90E0805C9F4FC0
:1007E000821B91098F739927089587EC98E00E94E6
:1007F000E90321E0892B09F420E0822F089584E6A3
:1008000099E00E94E90321E0892B09F420E0822F7E
:100810000895FC01A48DA80FB92FB11DA35ABF4F95
:100820002C91848D90E001968F739927848FA689EF
:10083000B7892C93A089B1898C91837080648C9343
:10084000938D848D981306C00288F389E02D8081F2
:100850008F7D80830895EF92FF920F931F93CF9324
:10086000DF93EC0181E0888F9B8D8C8D98131AC0EB
:10087000E889F989808185FF15C09FB7F894EE89D2
:10088000FF896083E889F98980818370806480832F
:100890009FBF81E090E0DF91CF911F910F91FF907A
:1008A000EF900895F62E0B8D10E00F5F1F4F0F7322
:1008B0001127E02E8C8D8E110CC00FB607FCFACFDD
:1008C000E889F989808185FFF5CFCE010E9409046E
:1008D000F1CFEB8DEC0FFD2FF11DE35AFF4FF082AE
:1008E0009FB7F8940B8FEA89FB8980818062CFCF14
:1008F000CF93DF93EC01888D8823B9F0AA89BB8957
:10090000E889F9898C9185FD03C0808186FD0DC041
:100910000FB607FCF7CF8C9185FFF2CF808185FF62
:10092000EDCFCE010E940904E9CFDF91CF91089568
:1009300080E090E0892B29F00E94FF0381110E9442
:10094000000080E090E0892B29F00E94F5038111DE
:100950000E94000080E090E0892B49F080E090E068
:10096000892B29F00E94000081110E94000080E084
:1009700090E0892B49F080E090E0892B29F00E94DB
:10098000000081110C94000008958EBD00000DB48C
:1009900007FEFDCF8EB50895DC01EC918FEF8E0F31
:1009A0008830F8F4CB016B3C784014F08AEC98E086
:1009B0008E3E22E0920714F48EEE92E00897AC018E
:1009C000440F452F441F550B2E2F30E0F901EE0F39
:1009D000FF1FE20FF31FE055FB4F4183880F809507
:1009E000828308951F93CF93DF93EC01162F80919C
:1009F0009D04811122C0E0EBF4E088EC94E03BE040
:100A000027E53483258333968E179F07D1F78EE32E
:100A10008093B10410929C0410929B041092700079
:100A20001092B00082E08093B1001092B20081E099
:100A300087BB8093700080939D0488818823A1F0F8
:100A400061E0812F0E940902E8818E2F90E0FC0175
:100A5000EE0FFF1FE80FF91FE055FB4F1F7160817C
:100A6000607E612B606260838881DF91CF911F91EE
:100A700008958627082E8295807F8025092E982F3D
:100A800082958F700826869598278927880F880F6A
:100A9000880F802508959C014297079720F481E0F4
:100AA0002531310509F480E0089584319105A9F0DC
:100AB00034F48231910559F0439761F008958731FC
:100AC000910541F08831910541F04697B9F783E4EB
:100AD00090E0089582E490E0089585E490E0089520
:100AE0008631910514F48251089583510895CF926F
:100AF000DF92EF92FF920F931F93CF93DF937C01CE
:100B00006B01EA0141305105F1F4621773074CF4AF
:100B10000E947005E82FF0E0E754FD4F8081853694
:100B200090F50C151D05CCF5C7010E947005E82F46
:100B3000F0E0E754FD4FC1E0D0E08081843600F161
:100B4000D0E0C0E01DC0621773075CF40E9470051E
:100B5000E82FF0E0E754FD4F8081C1E0D0E084361B
:100B600090F00C151D05CCF4C7010E947005E82F0C
:100B7000F0E0E754FD4FC1E0D0E08081853600F31E
:100B8000D195C195D109CE01DF91CF911F910F91E0
:100B9000FF90EF90DF90CF900895D0E0C0E0F3CFCA
:100BA0008F929F92AF92BF92DF92EF92FF920F933C
:100BB0001F93CF93DF93452B09F08FC09C012250E8
:100BC00031092931310508F088C0EB017C010EEFB5
:100BD000080F10E00E944B05D82E811197C0F80134
:100BE0002AE1E216F10411F4EFE0F0E0EE0FFF1F4E
:100BF000EE0FFF1FEC57FC4F838192819C171D065F
:100C000011F00CF06AC08C171D060CF466C02FE1C1
:100C1000209FC001219F900D1124FC01EA5FF54F38
:100C20005F01648570E061157105B1F19801235F82
:100C3000324F49018585882309F45BC0BE01C90193
:100C40000E94CC040E947E03AB01BC0188EB9BE0B8
:100C5000D11002C088E592E02FE1209FF001219F92
:100C6000F00D1124EA5FF54F092E000CAA0BBB0B07
:100C7000840F951FA61FB71F86879787A08BB18B00
:100C80008FE1809FF001819FF00D1124EA5FF54F05
:100C9000D183C08313821282DD20F9F0C7010E9444
:100CA000700524E1829FF0011124E154FD4FC287B9
:100CB00082818C171D0689F48FEF838714860E942A
:100CC0007E032FE1209FF001219FF00D1124EA5FA8
:100CD000F54F66877787808B918BDF91CF911F913E
:100CE0000F91FF90EF90DF90BF90AF909F908F900B
:100CF0000895F894C9010E94F204BE01C4010E9443
:100D0000CC04789481E0F50185879CCFD7FDC6CFD0
:100D1000C43BD1051CF67BCF0F931F93CF93DF937A
:100D20008C010E94700594E1899FF0011124E15427
:100D3000FD4FC281D0E0C8010E944B05882331F0ED
:100D400050E040E0BE01C8010E94D005CE01DF9115
:100D5000CF911F910F9108951F93CF93DF9310921E
:100D60003607CFEBD2E01FEF6A8170E0888150E058
:100D700040E090E00E94D0058A818A87888190E0D7
:100D80000E9455050E940A03998788871B871B8A42
:100D9000649683E0C733D80739F7C4E8D3E06981A4
:100DA00070E0888150E040E090E00E94D0052496F9
:100DB00083E0C43CD80799F7DF91CF911F91089544
:100DC000CF93DF93C0913307D0913407C233D1055D
:100DD0005CF0CE010E943A0262E070E080E090E0B8
:100DE0000E944C032197F2CF90E080E00E943A02EB
:100DF00060E08DE00E94C40110923207109231072A
:100E0000DF91CF9108958F929F92AF92BF92CF9230
:100E1000DF92EF92FF920F931F93CF93DF93C82F30
:100E2000D0E08E01000F111F000F111FF801E256D4
:100E3000FB4FC080D180E280F3801C141D041E048F
:100E40001F040CF04DC00E9427030E9458234B0141
:100E50005C01C701B6010E945A239B01AC01C50188
:100E6000B4010E94772420E030E048E652E40E947A
:100E7000E4246B017C0120E030E844E853E40E9464
:100E80008C251816D4F120E030E049E353E4C70183
:100E9000B6010E94532387FD30C020E030E049E3D3
:100EA00053E4C701B6010E9477242AE939E949E9E8
:100EB0005FE30E94B92320E030E040E850E40E9464
:100EC0007824CC0FDD1FC75DD84F0E94562579834B
:100ED0006883F801E256FB4F10821182128213825E
:100EE000DF91CF911F910F91FF90EF90DF90CF9006
:100EF000BF90AF909F908F90089560E070E080E881
:100F00009FEBDFCF80E00C94030781E00C94030794
:100F100082E00C94030783E00C9403078091930410
:100F200090919404A0919504B09196040196A11D0E
:100F3000B11D8093930490939404A0939504B0936F
:100F4000960408958F929F92AF92BF92CF92DF92B4
:100F5000EF92FF920F931F93CF93DF93EC014A011F
:100F60005B01288539854A855B85CB01B4010E94E8
:100F70007824688779878A879B87EE80FF80CC807A
:100F8000DD800A811B81EC14FD045CF0F8012081F6
:100F90003181428153810E947724688779878A87CB
:100FA0009B87F80181929192A192B192FB83EA838F
:100FB00028813981C601880F991F880F991F820FD8
:100FC000931FE817F90710F03B832A83EC14FD0404
:100FD0002CF4FFEFEF1AFF0AFF82EE826E817F8111
:100FE000072E000C880B990B0E945A239B01AC0121
:100FF000688579858A859B850E94E424DF91CF915D
:101000001F910F91FF90EF90DF90CF90BF90AF9026
:101010009F908F900895CF93DF93CDB7DEB7A897B9
:101020000FB6F894DEBF0FBECDBF84E1FE01BD96C2
:10103000DE01119601900D928A95E1F786E190E02C
:101040000E94D32124E1FE013196DE0155960190E4
:101050000D922A95E1F724E1FE017596DC011296C6
:1010600001900D922A95E1F7DC0111961C921E92D7
:10107000E0918F0DF091900D3097B1F49093900D19
:1010800080938F0D80918D0D90918E0D0196909390
:101090008E0D80938D0DA8960FB6F894DEBF0FBE0F
:1010A000CDBFDF91CF910895ED93FC939093900D78
:1010B00080938F0D0190F081E02D3097D9F7E2CF2A
:1010C0000F931F930091970D1091980D2091990DFA
:1010D00030919A0D40E052E16AE770E080E0041739
:1010E00015072607370740F4769567955795479576
:1010F0008F5F8630A1F787E0982F906A969580954C
:1011000081709CBD8DBD80E01F910F910C94F20108
:10111000CF93C82F0E9460088C2F0E94C504809333
:101120009B0D8FEF0E94C504C82F0E9406028C2FD2
:10113000CF910895CF93C82F0E9460088C2F8062B2
:101140000E94C50480939B0DCF910C940602CF930F
:10115000DF93D82FC62F0E9460088D2F80620E94D7
:10116000C50480939B0D8C2F0E94C504DF91CF9105
:101170000C940602CF93C82F82E00E948808EC2FBF
:10118000F0E0E65FFD4FE49161E070E001C0660FC2
:10119000EA95EAF7682B82E0CF910C94A70860915A
:1011A000A20D61FD0AC062606093A20D80E00E9402
:1011B000A7088BE19EE40197F1F70895FF920F9342
:1011C0001F93CF93DF93C82FF62E072F142F0E9463
:1011D00060088C2F80620E94C50480939B0DCF2DE8
:1011E000D02F115020F089910E94C504FACFDF91D1
:1011F000CF911F910F91FF900C9406020E946008FE
:1012000080E50E94C50480939B0D83E70E94C5047E
:101210000C940602FB0101900020E9F73197AF0121
:10122000461B570B0C948B038F929F92AF92BF92E9
:10123000EF92FF920F931F93CF93DF93CDB7DEB75B
:10124000A1970FB6F894DEBF0FBECDBF7C01FA01A7
:10125000CB0119A2223008F42AE08E010F5D1F4F46
:10126000822E912CB12CA12CBF01A50194010E94CA
:10127000A525F901CA016A300CF5605DD8016E93AD
:101280008D01232B242B252B79F790E080E01097FC
:1012900021F0BD01C7010E940A09A1960FB6F8947A
:1012A000DEBF0FBECDBFDF91CF911F910F91FF9099
:1012B000EF90BF90AF909F908F900895695CDECFC4
:1012C000CF92DF92EF92FF920F931F93CF93DF9312
:1012D00077FF1DC06A017B01EC016DE20E942B04C7
:1012E0008C0144275527BA014C195D096E097F0905
:1012F0002AE0CE010E941409800F911FDF91CF9147
:101300001F910F91FF90EF90DF90CF9008952AE00A
:10131000DF91CF911F910F91FF90EF90DF90CF90D1
:101320000C941409AC01990F660B770B84E699E0D5
:101330000C94600940919304509194046091950439
:101340007091960484E699E00C9460098F929F92C4
:10135000AF92BF92CF92DF92EF92FF921F93CF9303
:10136000DF936B017C01B42E20E030E0A9010E94E4
:101370005323D0E0C0E087FF0AC06DE284E699E025
:101380000E942B04EC01F7FAF094F7F8F09410E0C7
:1013900060E070E080E09FE31B1541F020E030E06A
:1013A00040E251E40E94E4241F5FF6CFA7019601BA
:1013B0000E9478246B017C010E945D254B015C0139
:1013C0002AE0BC01A40184E699E00E941409C80F38
:1013D000D91F1123D1F1C501B4010E9458239B01EB
:1013E000AC01C701B6010E9477246B017C016EE25B
:1013F00084E699E00E942B04C80FD91F115028F1F0
:1014000020E030E040E251E4C701B6010E94B92378
:101410004B015C010E945D256B01F12CE12C2AE05F
:10142000B701A60184E699E00E941409C80FD91FEC
:10143000C701B6010E9458239B01AC01C501B4014C
:101440000E9477246B017C01D9CFCE01DF91CF912F
:101450001F91FF90EF90DF90CF90BF90AF909F9043
:101460008F900895CF93DF930E949209EC0167E17A
:1014700074E084E699E00E940A098C0F9D1FDF91B9
:10148000CF910895CF93DF93BC0184E699E00E9449
:101490000A09EC0167E174E084E699E00E940A0918
:1014A0008C0F9D1FDF91CF9108950C940A09CF9363
:1014B000DF93C2E1D0E0CE010E9455050E940A03ED
:1014C0000E9492092196C931D10519F4DF91CF917B
:1014D00008956AE174E084E699E00E94550AEBCF32
:1014E0000F931F93CF93DF9309E217E0D0E0C0E0A2
:1014F000F801819191918F010E9492092196C43047
:10150000D10529F4DF91CF911F910F9108956AE1E0
:1015100074E084E699E00E94550AEACF0F931F9386
:10152000CF93DF93CDB7DEB7E2970FB6F894DEBF67
:101530000FBECDBF8A0120914003309141033A8311
:101540002983FE01339620E3DF011D922A95E9F7F6
:10155000FC01E95CF84F50819E012F5F3F4FD9019C
:10156000FD01E21BF30B561739F05D930196FC0168
:10157000E95CF84F5081F4CFE20FF31F1082F801BD
:1015800091838083C9010E94F822E2960FB6F894F5
:10159000DEBF0FBECDBFDF91CF911F910F91089598
:1015A000CF93DF93EC0188819981009711F00E941D
:1015B0006F22198218821D821C821B821A82DF917F
:1015C000CF910895FC0180819181009711F00C94D6
:1015D0006F2208950F931F93CF93DF938C01D0E078
:1015E000C0E0F8018081918126813781C217D3073D
:1015F00070F49E01220F331F820F931FFC01808124
:101600009181009711F00E946F222196EACF0097F6
:1016100031F0DF91CF911F910F910C946F22DF91E8
:10162000CF911F910F910895EF92FF920F931F9307
:10163000CF93DF938C017B01DB01ED91FC918285DF
:101640009385019693878287F801C081D1818A852D
:101650009B8501979B878A87892B41F4209731F0DE
:10166000CE010E94EA0ACE010E946F22D7018D911D
:101670009C91F80191838083C801DF91CF911F91E4
:101680000F91FF90EF900895CF93DF93FC01C081FD
:10169000D1818A859B8501979B878A87892B51F405
:1016A000209741F0CE010E94EA0ACE01DF91CF914E
:1016B0000C946F22DF91CF9108950E94E426EF925F
:1016C000FF920F931F93CF93DF93EC017B018A016D
:1016D00088819981009729F02A813B812417350759
:1016E00088F4B8016F5F7F4F0E9403260097C9F00E
:1016F000998388831B830A832C813D81232B11F4DA
:10170000FC0110821D830C83B701888199810E949E
:10171000F226CE01DF91CF911F910F91FF90EF90B4
:101720000895CE010E94D00AF4CF4F925F926F923B
:101730007F928F929F92AF92BF92EF92FF920F9300
:101740001F93CF93DF93CDB7DEB7A4970FB6F8946E
:10175000DEBF0FBECDBF41E050E06CE174E081EB35
:101760009DE00E945F0B1092D5041092D404109259
:1017700036071092350781E0809339030E947E037B
:101780006093D0047093D1048093D2049093D304D7
:1017900000E813E064ECE62E63E0F62E74E8A72E72
:1017A00073E0B72E60E0F80181918F010E94090279
:1017B00061E0F70181917F010E940902A016B10644
:1017C00089F760E082E00E9409028EE897E090933A
:1017D00002028093010280916A008C7F8160809375
:1017E0006A00EC9A8BE897E09093060280930502DA
:1017F000809169008C7F826080936900E89A88E814
:1018000097E0909308028093070280916900837F9C
:10181000886080936900E99A85E897E090930A02CE
:1018200080930902809169008F7C806280936900B7
:10183000EA9A82E897E090930C0280930B028091E1
:1018400069008F73806880936900EB9A61E080E1A2
:101850000E94090261E081E10E94090261E08FE0DB
:101860000E94090261E081E10E94C40161E080E11F
:101870000E94C40161E08FE00E94C40160E082E147
:101880000E94090260E083E10E94090260E083E0B7
:101890000E940902E0917409F091750982E0808349
:1018A000E0917009F09171091082E0917209F09154
:1018B000730980E1808310927C09E0917809F091AE
:1018C000790986E08083E0917609F091770980813B
:1018D00080618083E0917609F0917709808188604A
:1018E0008083E0917609F091770980818068808318
:1018F000E0917609F091770980818F7D808306E001
:101900001AE058ECA52E53E0B52EF12CE12C8824DA
:101910008394F801168EF50191905F01692D092CD1
:10192000000C770B161617060CF0DDC1C701835F9C
:10193000924F0E94F204F8011582148294868586E3
:101940000E947E03F80166877787808B918BF80170
:1019500011821082158A148AFFEFEF1AFF0A015EC6
:101960001F4F29E1E216F104A1F60E94AC068DE2B8
:10197000809300028EE0E2E7F3E0DE011196019031
:101980000D928A95E1F77E0143E0E40EF11C11E02F
:10199000812C34E2932E34EFA32EB12C40E2442E5E
:1019A0004EE4542E612C712CF701219131917F016D
:1019B00050E040E0C501B4010E94A525CA01B9016B
:1019C000A30192010E94A525223031054105510550
:1019D00008F08DC11F5F173039F71FB7F894809159
:1019E0009204811127C0EDE6F1E08491E3EBF1E090
:1019F0009491E82FF0E0EE0FFF1FE651FF4FA59105
:101A0000B491EC91E92321F461E085E30E94C401E3
:101A100061E085E30E9409028CB580618CBD8CB5C4
:101A200080648CBD61E084E30E94090261E083E38D
:101A30000E940902809192048F5F809392041FBFDD
:101A40008091930D9091940D8F3F980709F491C068
:101A50002091950D3091960D2F3F320709F489C0E2
:101A60008217930741F061E00E94090261E08091D2
:101A7000950D0E9409028091930D9091940D2091F3
:101A8000950D3091960D8217930719F060E00E9432
:101A9000C40181E00E94F20165E070E080E090E026
:101AA0000E944C036FE584E00E94A70885E590E062
:101AB000A0E0B0E08093A90D9093AA0DA093AB0D88
:101AC000B093AC0D67E086E00E94A7088DE10E940C
:101AD0008808182F0E94FE088DE10E94880891E076
:101AE000181390E09093A30D882341F0181302C0BF
:101AF0000E94FE0860E08DE10E94A7081092A50DEB
:101B000060E08CE10E94A7081092A70D6FE381E0CE
:101B10000E94A70863E082E00E94A70880E2809309
:101B20009C0D11E160919C0D812F0E94A7081F5F01
:101B30001731C1F763E083E00E94A70885E0809336
:101B4000A60D6CE40E94A70860E787E00E94A70842
:101B500082EE0E949A0881EE0E949A086CE080E072
:101B60000E94A70880E00E9488088093A20D0E942E
:101B7000CF0881EE8D8B1E8A1F8A188E198E1A8EC1
:101B80001B8E1C8EE5EEF0E084914091A60DBE0107
:101B90006B5E7F4F0E94DE0881E00E94BA0882EEF1
:101BA0008D8F1E8E1F8E18A219A21AA21BA21CA214
:101BB000E6EEF0E0849141E0BE01635E7F4F0E945B
:101BC000DE0882E00E94BA086CE685E00E94A70861
:101BD00063E384E00E94A7086FE381E00E94A70806
:101BE00001EE13E08DEEE82E83E0F82E61E0F801BF
:101BF00081918F010E940902E016F106B9F781E098
:101C000090E0A0E0B0E089839A83AB83BC839E839D
:101C10008D8398878F832AE530E0388B2F879C8BC4
:101C20008B8B84E090E09A8B898B8AE090E09A8796
:101C300089879C878B879E878D878DB79EB74497B2
:101C40000FB6F8949EBF0FBE8DBFADB7BEB711964D
:101C500084E1FE01319601900D928A95E1F70E9490
:101C60000B0882E090E0A0E0B0E089839A83AB8328
:101C7000BC839E838D8382ED90E09A878987EDB740
:101C8000FEB774970FB6F894FEBF0FBEEDBFADB7A9
:101C9000BEB7119684E1FE01319601900D928A95AE
:101CA000E1F70E940B080FB6F894DEBF0FBECDBF60
:101CB00060ED77E080E090E00E944C03A4960FB6C0
:101CC000F894DEBF0FBECDBFDF91CF911F910F9172
:101CD000FF90EF90BF90AF909F908F907F906F900C
:101CE0005F904F900895F8011486158630CE163017
:101CF00009F473CE1092800088E080938100809177
:101D00008100182B10938100309389002093880064
:101D100080916F00826080936F0061E0809100028B
:101D20000E94090260E08BE00E94090261E08AE003
:101D30000E94090260E08AE00E94C4014ECE4F92E8
:101D40005F926F927F92AF92BF92CF92DF92EF92AB
:101D5000FF920F931F93CF93DF9300D0CDB7DEB7E1
:101D600080913707803409F0C4C0AE014F5F5F4FE8
:101D70006AE381E090E00E948E0A8C0129813A8119
:101D8000F901E95CF84F90E080E04191442329F0AB
:101D9000840F911D47FD9A95F8CF64E670E00E948C
:101DA00091250817190709F0A4C0C9010296F90185
:101DB000E85CF84FE081E153E63408F09AC00E2E5B
:101DC000000CFF0BEA51F14F0C94E6254E1357130C
:101DD000790F790F790F790F790F790F790F790FC3
:101DE000790F790F790F790F790F790FD20F790F5A
:101DF0008A0F2C105612790F790F790F1613790F5D
:101E0000790FB80FA111790F790FF50F790F2B12F8
:101E1000A512C01260133F13790F790F790FC50F08
:101E2000790F790F790F790F790F790F4E102C0FE9
:101E3000430FFF0F7B120910790F790F1113790FE0
:101E4000790F790FD110790FAB0F6A10790F161235
:101E5000A812B312790F1710AE014F5F5F4F6BE3FB
:101E60000E948E0A682F80E10E94C4014091F00C0C
:101E70005091F10C6091EE0C7091EF0C8AE190E0C2
:101E80000E94D00536C0AE014F5F5F4F6BE30E94EA
:101E90008E0A682F81E10E94C401B6E0EB2EBAE001
:101EA000FB2E02E010E0F7014281538160817181D5
:101EB000C8010E94D0050F5F1F4FFFE1EF0EF11C1C
:101EC0000E30110581F7A6EFEA2EABE0FA2E02E103
:101ED00010E0F7014281538160817181C8010E9445
:101EE000D0050F5F1F4FFFE1EF0EF11C0931110507
:101EF00081F70F900F90DF91CF911F910F91FF907D
:101F0000EF90DF90CF90BF90AF907F906F905F90F9
:101F10004F900895AE014F5F5F4F6BE30E948E0AB2
:101F2000682F8FE00E94C401FAE7EF2EFBE0FF2E3E
:101F30000EE010E0F7014281538160817181C80198
:101F40000E94D0050F5F1F4FFFE1EF0EF11C013122
:101F5000110581F7CECFAE014F5F5F4F6BE30E945B
:101F60008E0A21E0892B09F420E020933607C1CFA7
:101F7000AE014F5F5F4F6BE30E948E0A21E0892B19
:101F800009F420E020933507B4CFAE014F5F5F4FD7
:101F90006BE30E948E0A21E0892B09F420E0209354
:101FA0003903A7CFAE014F5F5F4F6BE30E948E0AEC
:101FB0007C0110E000E00E151F0564F4C8010E94CA
:101FC0003A0265E070E080E090E00E944C030F5F11
:101FD0001F4FF1CFF0923407E092330781E090E099
:101FE000909332078093310784CF8091310790918D
:101FF0003207019709F07DCF0E94E0067ACFAE014B
:102000004F5F5F4F6BE30E948E0A50E040E0BC01DF
:1020100035CFAE014F5F5F4F6BE30E948E0A61E0E8
:10202000892B09F460E08EE00E94C40162CFAE010A
:102030004F5F5F4F6BE30E948E0A20913107309112
:102040003207232B09F455CF009719F460E08DE097
:10205000EBCF0E943A024DCFAE014F5F5F4F6BE373
:102060000E948E0A8C016EE174E084E699E00E9481
:10207000550AC8010E9492096AE174E084E699E079
:102080000E94550A000F111FF801E75DF84F80818B
:1020900091810E94920982E294E062C2AE014F5F98
:1020A0005F4F6BE30E948E0A8C0164E274E084E669
:1020B00099E00E94550AC8010E9492096AE174E001
:1020C00084E699E00E94550AC8010E9455050E94C5
:1020D0000A03DFCF895C984FFC011081AE014F5F8E
:1020E0005F4F6CE2C90103960E948E0AB82EA92E9A
:1020F00089819A81AE014F5F5F4F6BE301960E9429
:102100008E0A7C01173681F0CC24C394D12C12376F
:1021100069F48B2D9A2D0E94700544E1849FF00193
:102120001124E154FD4FE282D12CC12C8B2D9A2D2C
:102130000E944B05882351F18B2D9A2D0E9470052A
:10214000682E712C54E1859F8001112401541D4F8C
:10215000F801138A14868B2D9A2D0E9455050E9432
:102160000A03F80191878087F301E754FD4FE0826D
:10217000F80182818E151F0439F48FEF8387A60141
:10218000B7018B2D9A2D7CCE8EEFF8CFEEEFEB0DB5
:102190004FE1E49FF0011124EA5FF54F158A148A9C
:1021A000EECFE0902707F090280753E6E516F104FC
:1021B0000CF0C0C0AE014F5F5F4F6CE7C9010396E2
:1021C0000E948E0A95E39E9DF0019F9DF00D1124C3
:1021D000EB5EFA4F808329813A812F5F3F4F109247
:1021E000E304F901E95CF84F4081A3EEB4E0FD019E
:1021F000E35EF440C90101964C3739F04D93FC0180
:10220000E95CF84F40819C01F2CFED51FB4F108209
:102210003A832983AE014F5F5F4F6CE70E948E0ABD
:1022200045E34E9D90014F9D300D1124F901EB5E69
:10223000FA4F9283818390E080E04FEF5FEFFC01E3
:10224000EE0FFF1FE20FF31FEB5EFA4F5483438341
:1022500001968731910599F737E1C32ED12C412C96
:10226000512C320185E38E9D50018F9DB00C1124BD
:1022700089819A81AE014F5F5F4F6CE201960E94A7
:102280008E0A8C01092E000CAA0BBB0B480E591E9E
:102290006A1E7B1E89819A81AE014F5F5F4F6BE39F
:1022A00001960E948E0AF801EE0FFF1FEA0DFB1D3A
:1022B000EB5EFA4F94838383092E000CAA0BBB0BB1
:1022C000480E591E6A1E7B1E81E0C81AD10881F68D
:1022D00089819A81AE014F5F5F4F6CE701960E9442
:1022E0008E0A8C01C301B20128EF3FE740E050E0C5
:1022F0000E94C725012E000C220B330B60177107BB
:1023000082079307A1F49FEFE91AF90AF0922807D0
:10231000E092270768E274E084E699E00E94550A9B
:1023200080912707909128070E94320AE2CD61E34D
:1023300074E0F2CF6DE374E084E699E00E94550A00
:10234000D8CDAE014F5F5F4F6CE20E948E0A7C01D8
:1023500089819A81AE014F5F5F4F6CE201960E94C6
:102360008E0A5C0189819A81AE014F5F5F4F6BE3FA
:1023700001960E948E0A6C01C7010E945505782EB5
:10238000C7010E947005082F10E0872D0E940A03E4
:1023900024E1209FF001219FF00D1124E154FD4F15
:1023A00096878587B08AA786D28AC18A21E0238B47
:1023B00021812130C1F4A816B906C4F084E1809FC0
:1023C000F001819FF00D1124E154FD4F6281262F11
:1023D00030E0C29EC001C39E900DD29E900D11248C
:1023E0006CE97FEF1BC0A816B90644F384E1809F17
:1023F000F001819FF00D1124E154FD4F6281262FE1
:1024000030E043EB50E0421B530B4C9DC0014D9D0F
:10241000900D5C9D900D112464E670E00E94912562
:10242000620F731F50E040E0C7012ACDAE014F5F3D
:102430005F4F6BE30E948E0A9093380380933703BB
:1024400060E574E084E699E00E94550A80913703C4
:102450009091380369CFAE014F5F5F4F6CE2C901C5
:1024600003960E948E0A8C0189819A81AE014F5F8A
:102470005F4F6BE301960E948E0A7C01C8010E94A7
:102480004B05882309F435CDC8010E948C06D82E4F
:10249000C8010E94700544E1849FF0011124E154B9
:1024A000FD4FD2861486F186E08623CD06E01AE041
:1024B000FF24F394F80184899589892BA9F0868DEE
:1024C000811112C00E947E03F801668B778B808F8A
:1024D000918F24893589620F731F811D911D628F31
:1024E000738F848F958FF68E015E1F4FFBE0073D43
:1024F0001F0701F7FECCAE014F5F5F4F6CE2C901D1
:1025000003960E948E0A8C0189819A81AE014F5FE9
:102510005F4F6BE301960E948E0AF82EC8010E945D
:102520004B05882309F4E5CCC8010E948C06E82EEF
:10253000C8010E94700544E1849FF0011124E15418
:10254000FD4FE2861486F282D4CC0E94950BD1CC4A
:102550008FEF9FEF909338038093370389E594E0E2
:102560000E94420AC6CC10922807109227078FEFCC
:102570009FEF909338038093370382E694E0F0CF87
:10258000AE014F5F5F4F6CE20E948E0AC82EB92EDB
:1025900089819A81AE014F5F5F4F6CE201960E9484
:1025A0008E0AD82E89819A81AE014F5F5F4F6BE30F
:1025B00001960E948E0A8C01EEEFEC0DEE2EF12CAE
:1025C0005FE1E59FF0011124EA5FF54F868D8823D6
:1025D00029F0168E8C2D9B2D0E948C068FE18E9DEE
:1025E000F0018F9DF00D1124EA5FF54F8081828B01
:1025F000D38A4D2D481B550B9A0157FF03C03195C7
:102600002195310948EE53E0249FC001259F900D8C
:10261000349F900D1124B8010E949125758B648B15
:1026200068CC0E94AC068CE694E09ACF1092E3044A
:10263000FC01E95CF84F2081A3EEB4E0FD01E35E0C
:10264000F4402B3339F02D930196FC01E95CF84FEF
:102650002081F4CFED51FB4F10829A83898343EEA2
:1026600054E0FA0101900020E9F7AF01445E5440C4
:1026700063EE74E081EB9DE00E945F0B3ACCAE010B
:102680004F5F5F4F6BE30E948E0A67E774E084E65A
:1026900099E00E94550A0E949A09FDCC6BE774E00C
:1026A00084E699E00E94550A0E94700AF4CC6FE714
:1026B00074E084E699E00E94550A0E94570AEBCC28
:1026C00063E874E084E699E00E94550A0E94570A84
:1026D0006AE174E084E699E00E94550A0E94700A5B
:1026E0006AE174E084E699E00E94550A0E949A0922
:1026F0006AE174E084E699E00E94550A82E10E9452
:102700009B0121E030E0019711F030E020E0C901A9
:102710000E94920983E10E949B0121E030E0019731
:1027200011F030E020E0C9010E94920983E00E948C
:102730009B0121E030E0019711F030E020E0C90179
:102740000E9492096AE174E084E699E00E94550AC9
:102750008FEBE82E82E0F82E10E000E0F7014285D2
:1027600050E070E060E02AE084E699E00E941409FD
:102770000F5F1F4F6AE174E084E699E006301105AF
:1027800009F048C00E94550A81E10E949B0121E0A6
:1027900030E0019711F030E020E0C9010E94920979
:1027A00080E10E949B0121E030E0019711F030E0D0
:1027B00020E0C9010E9492098FE00E949B0121E064
:1027C00030E0019711F030E020E0C9010E94920949
:1027D0008091360790E00E9492098091350790E041
:1027E0000E9492098091390390E00E94920967E863
:1027F00074E084E699E00E94550A4091B50D50912D
:10280000B60D6091B10D7091B20D84E699E00E9411
:102810008B0341CC0E94550AF4E1EF0EF11C9ECFD0
:10282000FC01118210821382128215821482FB0134
:1028300001900020E9F73197AF01461B570B0C942C
:102840005F0B4F925F926F927F928F929F92AF92A7
:10285000BF92CF92DF92EF92FF920F931F93CF938D
:10286000DF93EC014B017A0169017B836A837F83EB
:102870006E835D834C835987488781E090E09B8716
:102880008A878FEF9FEF611520E4720738F4CB0140
:10289000880F991F009711F481E090E00E94D321E6
:1028A000888399833701660C771C660C771C93012B
:1028B000E114E0E2FE0610F02FEF3FEF522E432E20
:1028C000232B19F455245394412CEC015C0110E0A6
:1028D00000E008151905C1F0852D942D0E94D32123
:1028E000F501819391935F01C114D10451F0F80176
:1028F000EE0FFF1FEC0DFD1D60817181A3010E9491
:10290000E9260F5F1F4FE5CFCD28E9F430E020E046
:1029100002171307C1F090E080E0E816F90679F09D
:10292000AC01440F551F440F551FE881F981E40F96
:10293000F51F10821182128213820196EECF2F5F53
:102940003F4F2296E5CFDF91CF911F910F91FF90DE
:10295000EF90DF90CF90BF90AF909F908F907F903F
:102960006F905F904F900895EF92FF920F931F9397
:10297000CF93DF938C01FC01C081D1818A859B8537
:1029800001979B878A878CE090E00E94D3217C018D
:10299000288139814C815D816A817B810E9421146B
:1029A000F801F182E082DF91CF911F910F91FF90AA
:1029B000EF9008954F925F926F927F928F929F92C5
:1029C000AF92BF92CF92DF92EF92FF920F931F933D
:1029D000CF93DF93EC018A01DB01ED91FC91F98348
:1029E000E88382859385019693878287DA016D91CA
:1029F0007C9142815381DB0112962D913C9113977A
:102A00004217530741F44481558114962D913C910E
:102A10004217530711F00E947E1C02971CF0CE0152
:102A20000E94B414F801A080B180D50112964D9097
:102A30005C9010E000E040165106D9F1F501648089
:102A400075804801880C991CF12CE12C6E147F04D0
:102A500069F1C701880F991F880F991FE881F981D3
:102A60000190F081E02DE80DF91DC080D180C80EE5
:102A7000D91EF501A081B181A80DB91DED91FC9180
:102A8000E80FF91F2081318142815381D6016D9178
:102A90007D918D919C910E947724F60160837183D2
:102AA00082839383FFEFEF1AFF0AD0CF0F5F1F4F90
:102AB000C2CFCE01DF91CF911F910F91FF90EF9088
:102AC000DF90CF90BF90AF909F908F907F906F904E
:102AD0005F904F9008954F925F926F927F928F9286
:102AE0009F92AF92BF92CF92DF92EF92FF920F939D
:102AF0001F93CF93DF93EC018A01DB01ED91FC91F1
:102B0000F983E88382859385019693878287DA012A
:102B10006D917C9142815381DB0112962D913C9104
:102B200013974217530741F44481558114962D9110
:102B30003C914217530711F00E947E1C02971CF033
:102B4000CE010E94B414F801A080B180D501129684
:102B50004D905C9010E000E040165106D9F1F5016F
:102B6000648075804801880C991CF12CE12C6E144E
:102B70007F0469F1C701880F991F880F991FE881A9
:102B8000F9810190F081E02DE80DF91DC080D18020
:102B9000C80ED91EF501A081B181A80DB91DED9116
:102BA000FC91E80FF91F2081318142815381D601C8
:102BB0006D917D918D919C910E947824F6016083A6
:102BC000718382839383FFEFEF1AFF0AD0CF0F5FE9
:102BD0001F4FC2CFCE01DF91CF911F910F91FF9078
:102BE000EF90DF90CF90BF90AF909F908F907F90AD
:102BF0006F905F904F900895EF92FF920F931F9305
:102C0000CF93DF937C018B01EA01DC01ED91FC9114
:102C1000828193816817790728F484819581481708
:102C2000590710F00E947E1C8285938502971CF044
:102C3000C7010E94B414D701ED91FC91000F111F40
:102C400080819181080F191FCC0FDD1FCC0FDD1F74
:102C5000F801808191818C0F9D1FDF91CF911F9191
:102C60000F91FF90EF900895CF92DF92EF92FF9235
:102C70000F931F93CF93DF938C017B016A018CE04C
:102C800090E00E94D321EC0130E020E0A601B701E2
:102C90000E942114F801D183C083DF91CF911F914D
:102CA0000F91FF90EF90DF90CF9008954F925F9239
:102CB0006F927F92AF92BF92CF92DF92EF92FF928C
:102CC0000F931F93CF93DF937C016B01DB01ED9199
:102CD000FC9142815381648175810E943416D0E059
:102CE000C0E0D601ED91FC9182819381C817D9078C
:102CF000A0F55E01AA0CBB1C10E000E0D601ED912E
:102D0000FC9182819381248135810217130718F584
:102D1000C817D90710F00E947E1CA081B181AA0DAE
:102D2000BB1DC801880F991F880F991FED91FC9159
:102D3000E80FF91F4080518062807380AE01B801B6
:102D4000C7010E94FC15FC0140825182628273829D
:102D50000F5F1F4FD3CF2196C4CFC701DF91CF9113
:102D60001F910F91FF90EF90DF90CF90BF90AF90A9
:102D70007F906F905F904F9008952F923F924F9267
:102D80005F926F927F928F929F92AF92BF92CF92FB
:102D9000DF92EF92FF920F931F93CF93DF93CDB704
:102DA000DEB72E970FB6F894DEBF0FBECDBF7C0105
:102DB0005E834D83DB01ED91FC91DC01ED93FC938F
:102DC00082859385019693878287DA014D915C9184
:102DD00024813581DA0112968D919C9113972817E1
:102DE000390711F00E947E1C14964D915C9162810E
:102DF0007381CE0101960E943416F7014080518004
:102E0000D20112960D90BC91A02DB887AF83E981B5
:102E1000FA81FC87EB87D12CC12C8F8198858C158A
:102E20009D0509F47BC0AD81BE810D90BC91A02DA4
:102E3000BC83AB831496ED91FC91FA87E987360148
:102E4000660C771CB12CA12C89859A858A159B0567
:102E500009F460C04501880C991C880C991CAB854D
:102E6000BC85ED91FC91E60DF71D20803180280C8A
:102E7000391CF1011082118212821382D201149640
:102E80000D90BC91A02DBE87AD8710E000E0ED85D0
:102E9000FE85E017F107D1F1F201A081B181A60D05
:102EA000B71DC801880F991F880F991FED91FC91DC
:102EB000BF01680F791FC801880F991FEB81FC8142
:102EC000A081B181A80FB91F0D90BC91A02DA80DB4
:102ED000B91D2D913D914D915C91DB016D917D91DD
:102EE0008D919C910E94B9239B01AC01F1016081FD
:102EF0007181828193810E947824D1016D937D93A9
:102F00008D939C9313970F5F1F4FC1CFBFEFAB1AE9
:102F1000BB0A9ACFEFEFCE1ADE0A7FCFBE016F5FFA
:102F20007F4FC7010E94140BCE0101960E94440BF3
:102F3000C7012E960FB6F894DEBF0FBECDBFDF914E
:102F4000CF911F910F91FF90EF90DF90CF90BF90A6
:102F5000AF909F908F907F906F905F904F903F9039
:102F60002F900895CF93DF93EC018BE094E0998349
:102F7000888346E050E066E070E0CE0106960E944D
:102F8000341646E050E066E070E0CE0108960E94FC
:102F9000341646E050E066E070E0CE010A96DF911C
:102FA000CF910C9434160F931F93CF93DF93EC01C2
:102FB0008A0141E050E062E070E00E943416B801FE
:102FC000CE010E94140BCE01DF91CF911F910F9182
:102FD00008954F925F926F927F928F929F92AF92DD
:102FE000BF92CF92DF92EF92FF920F931F93CF93F6
:102FF000DF93EC017A01FB016281738141E050E0D3
:103000000E94341610E000E050E040E0B801C70133
:103010000E94FC15FC0180809180A280B380B801E1
:103020006E5F7F4F50E040E0C7010E94FC15FC013D
:10303000408051806280738050E040E0B801CE0152
:103040000E94FC156C01A3019201C501B4010E940C
:103050007824F601608371838283938301301105A4
:1030600019F001E010E0D0CF50E040E062E070E005
:10307000C7010E94FC158C0150E040E062E070E066
:10308000CE010E94FC15F80140815181628173815B
:10309000FC01408351836283738350E040E063E02E
:1030A00070E0C7010E94FC158C0150E040E063E035
:1030B00070E0CE010E94FC15F801408151816281CF
:1030C0007381FC014083518362837383CE01DF915E
:1030D000CF911F910F91FF90EF90DF90CF90BF9015
:1030E000AF909F908F907F906F905F904F900895DA
:1030F0000F931F93CF93DF93EC018A0141E050E0DF
:1031000061E070E00E943416B801CE010E94140BF9
:10311000CE01DF91CF911F910F9108954F925F9251
:103120006F927F928F929F92AF92BF92EF92FF9297
:103130000F931F93CF93DF93EC018A01FB01628110
:10314000738141E050E00E94341650E040E070E0AE
:1031500060E0C8010E94FC15FC0180809180A28083
:10316000B38050E040E061E070E0C8010E94FC15CF
:10317000FC01408051806280738050E040E070E04C
:1031800060E0CE010E94FC157C01A3019201C50103
:10319000B4010E947824F701608371838283938352
:1031A00050E040E061E070E0C8010E94FC158C0135
:1031B00050E040E061E070E0CE010E94FC15F801B3
:1031C0004081518162817381FC014083518362831C
:1031D0007383CE01DF91CF911F910F91FF90EF90FC
:1031E000BF90AF909F908F907F906F905F904F9027
:1031F00008951F920F920FB60F9211242F933F93B1
:103200008F939F93AF93BF938091DB049091DC04E5
:10321000A091DD04B091DE043091DA0423E0230FA5
:103220002D3758F50196A11DB11D2093DA04809326
:10323000DB049093DC04A093DD04B093DE04809162
:10324000DF049091E004A091E104B091E2040196C2
:10325000A11DB11D8093DF049093E004A093E104CD
:10326000B093E204BF91AF919F918F913F912F91C5
:103270000F900FBE0F901F90189526E8230F02960F
:10328000A11DB11DD2CF1F920F920FB60F92112424
:103290000BB60F922F933F934F935F936F937F9350
:1032A0008F939F93AF93BF93EF93FF93E0910F02A0
:1032B000F09110020995FF91EF91BF91AF919F910D
:1032C0008F917F916F915F914F913F912F910F90CF
:1032D0000BBE0F900FBE0F901F9018951F920F926C
:1032E0000FB60F9211240BB60F922F933F934F936B
:1032F0005F936F937F938F939F93AF93BF93EF935E
:10330000FF93E0910D02F0910E020995FF91EF916C
:10331000BF91AF919F918F917F916F915F914F91ED
:103320003F912F910F900BBE0F900FBE0F901F90EB
:1033300018951F920F920FB60F9211240BB60F9291
:103340002F933F934F935F936F937F938F939F93AD
:10335000AF93BF93EF93FF93E0910302F0910402C8
:103360000995FF91EF91BF91AF919F918F917F91BF
:103370006F915F914F913F912F910F900BBE0F90E6
:103380000FBE0F901F9018951F920F920FB60F92BD
:1033900011240BB60F922F933F934F935F936F932C
:1033A0007F938F939F93AF93BF93EF93FF93E0919E
:1033B0000102F09102020995FF91EF91BF91AF9147
:1033C0009F918F917F916F915F914F913F912F913D
:1033D0000F900BBE0F900FBE0F901F9018951F926D
:1033E0000F920FB60F9211240BB60F922F933F93AB
:1033F0004F935F936F937F938F939F93AF93BF93FD
:10340000EF93FF93E0910B02F0910C020995FF916D
:10341000EF91BF91AF919F918F917F916F915F914C
:103420004F913F912F910F900BBE0F900FBE0F90B9
:103430001F9018951F920F920FB60F9211240BB682
:103440000F922F933F934F935F936F937F938F933D
:103450009F93AF93BF93EF93FF93E0910902F09195
:103460000A020995FF91EF91BF91AF919F918F91C2
:103470007F916F915F914F913F912F910F900BBE74
:103480000F900FBE0F901F9018951F920F920FB6BE
:103490000F9211240BB60F922F933F934F935F938C
:1034A0006F937F938F939F93AF93BF93EF93FF930C
:1034B000E0910702F09108020995FF91EF91BF9109
:1034C000AF919F918F917F916F915F914F913F91BC
:1034D0002F910F900BBE0F900FBE0F901F9018955D
:1034E0001F920F920FB60F9211240BB60F922F93CB
:1034F0003F934F935F936F937F938F939F93AF937C
:10350000BF93EF93FF93E0910502F09106020995B6
:10351000FF91EF91BF91AF919F918F917F916F91AB
:103520005F914F913F912F910F900BBE0F900FBE67
:103530000F901F9018951F920F920FB60F921124A3
:103540000BB60F922F933F934F935F936F937F939D
:103550008F939F93AF93BF93EF93FF9387EC98E084
:103560000E940904FF91EF91BF91AF919F918F91BC
:103570007F916F915F914F913F912F910F900BBE73
:103580000F900FBE0F901F9018951F920F920FB6BD
:103590000F9211240BB60F922F938F939F93EF935B
:1035A000FF93E091D708F091D8088081E091DD0881
:1035B000F091DE0882FD1DC090818091E0088F5F50
:1035C0008F732091E108821741F0E091E008F0E06C
:1035D000E953F74F958F8093E008FF91EF919F910A
:1035E0008F912F910F900BBE0F900FBE0F901F90D9
:1035F00018958081F2CF1F920F920FB60F9211246F
:103600000BB60F922F933F934F935F936F937F93DC
:103610008F939F93AF93BF93EF93FF9384E699E0CB
:103620000E940904FF91EF91BF91AF919F918F91FB
:103630007F916F915F914F913F912F910F900BBEB2
:103640000F900FBE0F901F9018951F920F920FB6FC
:103650000F9211240BB60F922F938F939F93EF939A
:10366000FF93E0917409F09175098081E0917A09E6
:10367000F0917B0982FD1DC0908180917D098F5F53
:103680008F7320917E09821741F0E0917D09F0E06F
:10369000EC59F64F958F80937D09FF91EF919F91A3
:1036A0008F912F910F900BBE0F900FBE0F901F9018
:1036B00018958081F2CF1F920F920FB60F921124AE
:1036C0000BB60F922F933F934F935F936F937F931C
:1036D0008F939F93AF93BF93EF93FF9380919B043E
:1036E0008F5F80939B04E0919C0420919B048E2F1C
:1036F00090E0FC01EE0FFF1FE80FF91FE055FB4FB4
:103700008181E0919C0482131FC08E2F90E0FC0108
:10371000EE0FFF1FE80FF91FE055FB4F82818093EA
:10372000B200FF91EF91BF91AF919F918F917F91E7
:103730006F915F914F913F912F910F900BBE0F9022
:103740000FBE0F901F90189520919B048E2F90E034
:10375000FC01EE0FFF1FE80FF91FE055FB4F8181C1
:103760008217F8F6E0919C048E2F90E0FC01EE0F9A
:10377000FF1FE80FF91FE055FB4F808185FF10C048
:10378000E0919C048E2F90E0FC01EE0FFF1FE80FEC
:10379000F91FE055FB4F808160E08F710E94C401EA
:1037A00080919C048F5F80939C0410929B041092E4
:1037B000B20080919C04882319F180919C04893087
:1037C000F8F4E0919C048E2F90E0FC01EE0FFF1FB7
:1037D000E80FF91FE055FB4F808185FFA2CFE091F4
:1037E0009C048E2F90E0FC01EE0FFF1FE80FF91FE5
:1037F000E055FB4F808161E08F710E94C40191CF41
:1038000080919C04893008F48CCF10929C0489CF5D
:103810001F920F920FB60F9211240BB60F921F93A7
:103820002F933F934F935F936F937F938F939F93C8
:10383000AF93BF93CF93DF93EF93FF938091CE0429
:10384000882319F18091CB0491E0980F9093CB04D9
:1038500081111BC0C091CD04109100028091CF0452
:10386000C81778F160E08AE00E94C40160E0812F0F
:103870000E94C4011092CE048091990490919A0400
:10388000019690939A04809399048091CB04883098
:1038900010F01092CB04FF91EF91DF91CF91BF9187
:1038A000AF919F918F917F916F915F914F913F91D8
:1038B0002F911F910F900BBE0F900FBE0F901F9076
:1038C0001895EC2FF0E0EF5EFD4F60812091CC0465
:1038D000D1E0D20FD093CC0481E090E001C0880FFA
:1038E0002A95EAF76823812F0E94C401D63098F206
:1038F0001092CC04CF5FC093CD04C7CF81E090E09D
:103900000E94F9260F931F93CF93DF93C7E6DDE064
:1039100083E094E09983888383E79DE00E94440BD1
:103920000BE014E01983088381E79DE00E94440BBB
:103930008FE69DE00E94440B8DE69DE00E94440BC3
:10394000C5E7DDE083E194E09983888381E89DE029
:103950000E94440B198308838FE79DE00E94440B6B
:103960008DE79DE00E94440B8BE79DE00E94440B95
:1039700081EB9DE0DF91CF911F910F910C94E20AB2
:103980000F931F93CF93DF931092CA081092C90828
:1039900048EE53E060E070E04093CB085093CC08D1
:1039A0006093CD087093CE0881EF93E09093C808A0
:1039B0008093C7082DEC30E03093D4082093D308CF
:1039C0002CEC30E03093D6082093D50828EC30E07A
:1039D0003093D8082093D70829EC30E03093DA08E8
:1039E0002093D9082AEC30E03093DC082093DB08E0
:1039F0002EEC30E03093DE082093DD081092E008D2
:103A00001092E1081092E2081092E3081092670900
:103A100010926609409368095093690960936A0996
:103A200070936B09909365098093640985EC90E02D
:103A3000909371098093700984EC90E090937309DE
:103A40008093720980EC90E09093750980937409DB
:103A500081EC90E0909377098093760982EC90E076
:103A6000909379098093780986EC90E090937B0994
:103A700080937A0910927D0910927E0910927F0935
:103A80001092800969E174E081EB9DE00E941014BE
:103A9000EDE0FDE08091010A883008F011C18F5FF0
:103AA0008093010A808331968DE0E632F80791F722
:103AB000E6E0FAE0168A178A108E118E128E138EA7
:103AC000148E158E168E7F968DE0ED30F80791F7E7
:103AD0000E947E036093020A7093030A8093040A93
:103AE0009093050A81E390E09093940D8093930D59
:103AF00085E390E09093960D8093950D80E896E98C
:103B0000A8E9B0E08093970D9093980DA093990D3C
:103B1000B0939A0D80E280939C0D1092A30D1092A9
:103B2000A40D85E08093A60D81E08093A70D85E02C
:103B300090E0A0E0B0E08093AD0D9093AE0DA09327
:103B4000AF0DB093B00D86E29DE09093920D8093FF
:103B5000910D10929D0D10928E0D10928D0D109260
:103B6000900D10928F0D1092870D1092850D10926E
:103B7000890D10928A0D10928B0D10928C0D10925F
:103B8000880D85E79DE00E94B21783E194E0909351
:103B9000760D8093750D46E050E066E070E081E8B8
:103BA0009DE00E94341687E69DE00E94B21783E0F4
:103BB00094E09093680D8093670D46E050E066E0D6
:103BC00070E083E79DE00E94341600E010E020E002
:103BD0003EE30093530D1093540D2093550D3093F5
:103BE000560D40E050E060E072E44093570D509372
:103BF000580D6093590D70935A0D80E090ECAFE72B
:103C0000B4E480935F0D9093600DA093610DB09329
:103C1000620D10925B0D10925C0D10925D0D109272
:103C20005E0D00933F0D1093400D2093410D309396
:103C3000420D4093430D5093440D6093450D709396
:103C4000460D80934B0D90934C0DA0934D0DB0936A
:103C50004E0D1092470D1092480D1092490D109282
:103C60004A0D88E290E00E94D3219093340D809316
:103C7000330D9093360D8093350DCAE0D0E0D0938C
:103C8000380DC093370D10923A0D1092390D88E21D
:103C900090E00E94D3219093280D8093270D90935C
:103CA0002A0D8093290DD0932C0DC0932B0D1092CB
:103CB0002E0D10922D0DDF91CF911F910F91089530
:103CC0001082F1CECF93DF93CDB7DEB760970FB6FA
:103CD000F894DEBF0FBECDBF789484B5826084BDFA
:103CE00084B5816084BD85B5826085BD85B5816000
:103CF00085BD80916E00816080936E00109281007E
:103D00008091810082608093810080918100816038
:103D100080938100809180008160809380008091F9
:103D2000B10084608093B1008091B0008160809385
:103D3000B000809191008260809391008091910009
:103D400081608093910080919000816080939000C9
:103D50008091A10082608093A1008091A100816088
:103D60008093A1008091A00081608093A000809149
:103D700021018260809321018091210181608093E3
:103D800021018091200181608093200180917A003F
:103D9000846080937A0080917A00826080937A00B8
:103DA00080917A00816080937A0080917A008068A7
:103DB00080937A001092C1000E94950B9E012F5FA4
:103DC0003F4F79018091D6049091D704A091D804F7
:103DD000B091D9040196A11DB11D8093D604909392
:103DE000D704A093D804B093D90484E699E00E9444
:103DF000E9031816190604F584E699E00E94C70342
:103E00002091D4043091D5042E3841E034070CF0D1
:103E10004FC18D3051F3F901E95CF84F8E3219F042
:103E20008A3009F039C110821092D5041092D4045E
:103E30000E949F0E109237070E947E030091D004CB
:103E40001091D1042091D2043091D304601B710BE6
:103E5000820B930B693E73408105910508F44FC0B6
:103E600060E084E00E94C40160E086E00E94C4013A
:103E700060E085E00E94C40160E087E00E94C40128
:103E800062E070E080E090E00E944C0304EC13E0FC
:103E9000EEE9CE2EE4E0DE2E61E0F80181918F01A3
:103EA0000E94C4010E942703F601619371938193DC
:103EB00091936F01603571058105910534F40E947D
:103EC000E00661E080E10E94C401F3E0083C1F07C6
:103ED00019F76AE070E080E090E00E944C0360E037
:103EE00084E00E94C40160E086E00E94C40160E0BA
:103EF00085E00E94C40160E087E00E94C4018091D7
:103F00003507882309F448C07FEBC72E72E0D72E0F
:103F1000912C812CF601A080B12CC5010E94550581
:103F20000E940A03F601478150E0440F551F0581A6
:103F30001681040F151F23813481241B350B418109
:103F400050E0BC01C5010E947705892B19F0FFEFF5
:103F50008F1A9F0A24E1C20ED11C37E3C31633E047
:103F6000D306C1F6892809F4AAC08091AE049091C5
:103F7000AF0401969093AF048093AE048091AE0499
:103F80009091AF04039741F461E081E10E94C40184
:103F90001092AF041092AE04809139038823C9F1C6
:103FA0005FEBC52E52E0D52EF601A080B12CC501E5
:103FB0000E9455050E940A03F6010581168123819E
:103FC0003481418150E0BC01C5010E947705892BF5
:103FD00019F0C5010E948C06F4E1CF0ED11C2BE430
:103FE00033E02C153D0501F74AE0B70180912B0322
:103FF00090912C030E941623F70101900020E9F70D
:104000003197AF014E195F09B70181EB9DE00E9426
:104010005F0B0E947E030091020A1091030A209117
:10402000040A3091050A601B710B820B930B6333FA
:1040300071058105910508F410C180913607882328
:1040400009F453C04FEBC42E42E0D42EF601028592
:1040500060847184A080B12CC5010E945505182F81
:104060000E940A034C01F6018281081709F488C0F6
:10407000812F0E940A03F601058116812381348174
:10408000418150E0BC01C5010E947705892BE1F018
:10409000C5010E948C0620C02F5F3F4F3093D5048E
:1040A0002093D4048083295C384FF90110829DCE7F
:1040B000109237071092D5041092D404BDCE1092FE
:1040C000AF041092AE045ACFF6018385813009F017
:1040D00050C068147904E4F2F4E1CF0ED11C2BE453
:1040E000C21623E0D20609F0B1CF0E947E0360938E
:1040F000020A7093030A8093040A9093050A38EC2D
:10410000A32E33E0B32E06E01AE0D12CC12CF5012A
:1041100081915F0118160CF5F80185858823E9F077
:1041200046845784608871880E947E03461657062D
:104130006806790690F4F601E35FF24FE0818E2F76
:1041400090E0FC01EE0FFF1FE80FF91FE055FB4F59
:1041500080818F7D8083F8011586FFEFCF1ADF0AFB
:10416000015E1F4F29E1C216D10489F602E110E079
:1041700049C08111B1CF861497040CF0ADCF88CF20
:10418000C3018819990997FF03C0919581959109F9
:10419000F6012781281719068CF584858F5F84879F
:1041A000843009F099CF818186149704BCF465E0CE
:1041B00070E0813011F06FEA70E050E040E0C5013E
:1041C0000E94D00521E0F60123876AE874E0C70168
:1041D0000E941014C7010E94E20A7ECF6FEA70E0CD
:1041E000813011F065E070E050E040E0C5010E94D0
:1041F000D005F60113866EE874E0E9CF14866CCF23
:1042000006E110E005311105D9F3C8010E947005DF
:10421000A82EB12C34E13A9DC0013B9D900D112494
:10422000AC0141545D4F6A01FA018389882381F012
:10423000C8010E9455050E940A03F60127853089AE
:104240004585568542175307B4F582179307B4F591
:104250000F5F1F4F09311105A9F60E947E032B0144
:104260003C0106E01AE082E0C82ED12CF801868DD0
:104270008823A9F0828C938CA48CB58C2388312C54
:1042800084149504A604B70434F550E040E0B1016D
:10429000C6010E94D005F801168E158A148AFFEF18
:1042A000CF1ADF0A015E1F4F21E1C216D104F1F6D9
:1042B0000E94980487CD8217930754F624E12A9D23
:1042C000F0012B9DF00D1124E154FD4F138AC8011C
:1042D0000E948C06BDCF6289262F30E03C872B8759
:1042E000B4016419750977FF03C07195619571096F
:1042F000072E000C880B990B0E945A236D877E872E
:104300008F87988BF80186899789A08DB18DA5013B
:104310009401281B390B4A0B5B0BCA01B9010E949F
:104320005A239B01AC016D857E858F8598890E94FB
:10433000E4249B01AC0160E070E080E89FE30E9410
:1043400077244B015C01B1014B855C85641B750BC7
:10435000072E000C880B990B0E945A239B01AC017D
:10436000C501B4010E94B9234B015C01EB85FC85BA
:10437000BF01FF0F880B990B0E945A239B01AC01D0
:10438000C501B4010E9478240E945625F8012081BD
:1043900031812617370709F482CF50E040E0C6018B
:1043A0000E94D0057CCF0F931F93CF93DF93823071
:1043B000910510F482E090E0E091B90DF091BA0D12
:1043C00030E020E0B0E0A0E0309799F4211531050D
:1043D00009F44AC0281B390B24303105D8F58A81ED
:1043E0009B816115710589F1FB0193838283FE0135
:1043F00011C0408151810281138148175907E0F0B3
:104400004817590799F4109761F012960C93129778
:1044100013961C933296CF01DF91CF911F910F918C
:1044200008950093B90D1093BA0DF4CF21153105FD
:1044300051F04217530738F0A901DB019A01BD0181
:10444000DF01F801C1CFEF01F9CF9093BA0D80934E
:10445000B90DCDCFFE01E20FF31F8193919322504E
:10446000310939832883D7CF2091B70D3091B80D0A
:10447000232B41F420913C0330913D033093B80D40
:104480002093B70D20913A0330913B03211531055C
:1044900041F42DB73EB740913E0350913F03241B9A
:1044A000350BE091B70DF091B80DE217F307A0F4CA
:1044B0002E1B3F0B2817390778F0AC014E5F5F4F7A
:1044C0002417350748F04E0F5F1F5093B80D4093E7
:1044D000B70D819391939FCFF0E0E0E09CCFCF9315
:1044E000DF930097E9F0FC01329713821282A091CA
:1044F000B90DB091BA0DED0130E020E01097A1F4B4
:1045000020813181820F931F2091B70D3091B80D1A
:104510002817390709F061C0F093B80DE093B70D83
:10452000DF91CF910895EA01CE17DF07E8F54A81C0
:104530005B819E0141155105B1F7E901FB83EA83D7
:1045400049915991C40FD51FEC17FD0761F4808183
:1045500091810296840F951FE90199838883828156
:1045600093819B838A83F0E0E0E012968D919C9189
:1045700013970097B9F52D913C911197CD010296B3
:10458000820F931F2091B70D3091B80D281739076E
:1045900039F6309751F51092BA0D1092B90DB093CB
:1045A000B80DA093B70DBCCFD383C2834081518196
:1045B000840F951FC817D90761F44E5F5F4F88813C
:1045C0009981480F591F518340838A819B8193832E
:1045D00082832115310509F0B0CFF093BA0DE09335
:1045E000B90D9ECFFD01DC01C0CF13821282D7CF5F
:1045F000FC0188279927E89421912032E9F329309A
:1046000010F02E30C8F32B3241F02D3239F468947B
:1046100004C00E942123820F911D219120532A3032
:10462000C0F31EF4909581959F4F0895BB274A30A3
:1046300031F4992322F4BDE2909581959F4F0C941B
:104640002A237AE0979F902D879F802D910D11242A
:104650000895BB27FB015527AA27880F991FAA1F7A
:10466000A41710F0A41B83955051B9F7A05DAA338D
:1046700008F0A95DA193009779F7B111B193119258
:10468000CB010C944323DC01FC01672F719177234C
:10469000E1F7329704C07C916D9370836291AE17FD
:1046A000BF07C8F308950E94952308F481E0089598
:1046B000E89409C097FB3EF49095809570956195BC
:1046C0007F4F8F4F9F4F9923A9F0F92F96E9BB2772
:1046D0009395F695879577956795B795F111F8CFEE
:1046E000FAF4BB0F11F460FF1BC06F5F7F4F8F4F59
:1046F0009F4F16C0882311F096E911C0772321F04F
:104700009EE8872F762F05C0662371F096E8862FE6
:1047100070E060E02AF09A95660F771F881FDAF73D
:10472000880F9695879597F90895990F0008550F6A
:10473000AA0BE0E8FEEF16161706E807F907C0F027
:1047400012161306E407F50798F0621B730B840B2F
:10475000950B39F40A2661F0232B242B252B21F409
:1047600008950A2609F4A140A6958FEF811D811DA9
:1047700008950E94CC230C943D240E942F2438F0ED
:104780000E94362420F0952311F00C9426240C94DA
:104790002C2411240C9471240E944E2470F3959FB4
:1047A000C1F3950F50E0551F629FF001729FBB2728
:1047B000F00DB11D639FAA27F00DB11DAA1F649FC4
:1047C0006627B00DA11D661F829F2227B00DA11D77
:1047D000621F739FB00DA11D621F839FA00D611DFD
:1047E000221F749F3327A00D611D231F849F600D1E
:1047F000211D822F762F6A2F11249F5750409AF047
:10480000F1F088234AF0EE0FFF1FBB1F661F771FD2
:10481000881F91505040A9F79E3F510580F00C949D
:1048200026240C9471245F3FE4F3983ED4F38695DC
:1048300077956795B795F795E7959F5FC1F7FE2B3D
:10484000880F911D9695879597F9089597F99F6719
:1048500080E870E060E008959FEF80EC0895002408
:104860000A941616170618060906089500240A94D5
:1048700012161306140605060895092E0394000C5B
:1048800011F4882352F0BB0F40F4BF2B11F460FFEA
:1048900004C06F5F7F4F8F4F9F4F089557FD905813
:1048A000440F551F59F05F3F71F04795880F97FBF4
:1048B000991F61F09F3F79F08795089512161306AE
:1048C0001406551FF2CF4695F1DF08C016161706DD
:1048D0001806991FF1CF8695710561050894089512
:1048E000E894BB2766277727CB0197F9089550589E
:1048F000BB27AA270E948F240C943D240E942F24BA
:1049000038F00E94362420F039F49F3F19F426F441
:104910000C942C240EF4E095E7FB0C942624E92F4C
:104920000E944E2458F3BA1762077307840795074D
:1049300020F079F4A6F50C9470240EF4E0950B2E7B
:10494000BA2FA02D0B01B90190010C01CA01A001E1
:104950001124FF27591B99F0593F50F4503E68F13C
:104960001A16F040A22F232F342F4427585FF3CF7D
:10497000469537952795A795F0405395C9F77EF44E
:104980001F16BA0B620B730B840BBAF09150A1F097
:10499000FF0FBB1F661F771F881FC2F70EC0BA0F1D
:1049A000621F731F841F48F4879577956795B795A5
:1049B000F7959E3F08F0B0CF9395880F08F09927A0
:1049C000EE0F9795879508950E94F8240C943D2446
:1049D0000E94362458F00E942F2440F029F45F3FB3
:1049E00029F00C94262451110C9471240C942C243D
:1049F0000E944E2468F39923B1F3552391F3951B3C
:104A0000550BBB27AA2762177307840738F09F5FEF
:104A10005F4F220F331F441FAA1FA9F335D00E2E5C
:104A20003AF0E0E832D091505040E695001CCAF7C9
:104A30002BD0FE2F29D0660F771F881FBB1F26178C
:104A400037074807AB07B0E809F0BB0B802DBF0163
:104A5000FF2793585F4F3AF09E3F510578F00C9432
:104A600026240C9471245F3FE4F3983ED4F386959A
:104A700077956795B795F7959F5FC9F7880F911D53
:104A80009695879597F90895E1E0660F771F881F3F
:104A9000BB1F621773078407BA0720F0621B730BF2
:104AA000840BBA0BEE1F88F7E09508950E945D25F0
:104AB0006894B1110C94712408950E94562488F0D2
:104AC0009F5798F0B92F9927B751B0F0E1F0660FD2
:104AD000771F881F991F1AF0BA95C9F714C0B13013
:104AE00091F00E947024B1E008950C947024672F17
:104AF000782F8827B85F39F0B93FCCF38695779542
:104B00006795B395D9F73EF490958095709561952A
:104B10007F4F8F4F9F4F08950E94952308F48FEF8A
:104B2000089597FB072E16F4009407D077FD09D05F
:104B30000E94EF2507FC05D03EF4909581959F4F8C
:104B40000895709561957F4F0895A1E21A2EAA1BD2
:104B5000BB1BFD010DC0AA1FBB1FEE1FFF1FA2172D
:104B6000B307E407F50720F0A21BB30BE40BF50B2A
:104B7000661F771F881F991F1A9469F760957095B3
:104B8000809590959B01AC01BD01CF010895052E44
:104B900097FB1EF400940E94DE2557FD07D00E946B
:104BA000A52507FC03D04EF40C94DE2550954095C6
:104BB000309521953F4F4F4F5F4F089590958095C9
:104BC000709561957F4F8F4F9F4F0895EE0FFF1F98
:104BD0000024001C0BBE0790F691E02D0994AA1B3F
:104BE000BB1B51E107C0AA1FBB1FA617B70710F0D8
:104BF000A61BB70B881F991F5A95A9F7809590950A
:104C0000BC01CD0108954F925F926F927F928F9277
:104C10009F92AF92BF92CF92DF92EF92FF920F934B
:104C20001F93CF93DF938C01009799F4CB01DF9111
:104C3000CF911F910F91FF90EF90DF90CF90BF9099
:104C4000AF909F908F907F906F905F904F900C945B
:104C5000D321FC01E60FF71F9C0122503109E21716
:104C6000F30708F4AEC0D901CD91DC911197C617B6
:104C7000D70720F1C530D10578F0CE01049786170B
:104C8000970750F0C61BD70B2297C193D1936D9312
:104C90007C93CF010E946F22C801DF91CF911F91B9
:104CA0000F91FF90EF90DF90CF90BF90AF909F90CB
:104CB0008F907F906F905F904F9008955B01AC1A3A
:104CC000BD0A4C018C0E9D1EA091B90DB091BA0D7C
:104CD000512C412CF12CE12C109731F58091B70D1E
:104CE0009091B80D8815990509F05CC046165706D5
:104CF00008F058C080913A0390913B03009741F42B
:104D00008DB79EB740913E0350913F03841B950B96
:104D1000E817F90708F055C0F093B80DE093B70D08
:104D2000F90171836083B8CF8D919C911197129690
:104D30006C90129713967C901397A815B90559F5A6
:104D40006C0142E0C40ED11CCA14DB0420F1AC019A
:104D50004A195B09DA011296159780F06282738214
:104D600051834083D9016D937C93E114F10471F078
:104D7000D7011396FC93EE9312978ECF22968C0F49
:104D80009D1FF90191838083F301EFCFF093BA0D5A
:104D9000E093B90D81CF4816590608F42C017D0126
:104DA000D3019ACFCB010E94D3217C01009749F017
:104DB000AE01B8010E94E926C8010E946F22870156
:104DC0006BCF10E000E068CF81E090E0F8940C94A5
:104DD000F926FB01DC0102C001900D9241505040C8
:104DE000D8F70895FB01DC0101900D920020E1F756
:104DF000089511E0C9E0D1E004C0FE010E94E6255B
:0C4E00002196CA30D107C9F7F894FFCF03
:104E0C000C8A038A038A038A038A038A038A038A25
:104E1C00032A2A2A2A2A2A382C0000000000000023
:104E2C000000000000000000000000000000000076
:104E3C000000000000000000000000000000000066
:104E4C000000000000000000000000000000000056
:104E5C000000000000000000000000000000000046
:104E6C000000000000000000000000000000000036
:104E7C000000000000000000000000000000000026
:104E8C000000000000000000000000000000000016
:104E9C000000000000000000000000000000000006
:104EAC0000000000000000000000000000000000F6
:104EBC00000000000000000000646464646464127C
:104ECC00016C4C03CA030A00000000000000000043
:104EDC0000000013016D2C014402140000000000BE
:104EEC00000000000000001401468C0030020A0093
:104EFC0000000000000000000000001600502B0213
:104F0C00EC020A0000000000000000000000001786
:104F1C00014EFE01CF020A0000000000000000005C
:104F2C0000000018014B670123020A00000000007A
:104F3C0000000000000000FFFF010000BB0D80001E
:104F4C000000000000000000000000000000000055
:104F5C000000000000000000000000000000000045
:104F6C000000000000000000000000000000000035
:104F7C000000000001000800400000010004050DC5
:104F8C002627282902551BA0035510B20455179E3D
:104F9C0005550DB206552BB207B22BB208A333B28E
:104FAC000988299B0A73007D0B2A00B20CB223B22C
:104FBC000D7600B20E5C5A700F410F87100C016910
:104FCC001A57019B04060507161718191B1A2E2FC2
:104FDC00301C1D1E1F2021002C2A2B0023252400F1
:104FEC000C363738393A3B08090A0B3C3D000000B7
:104FFC00002B048B03B8037804E903C703DB03001D
:10500C000000008E187818000000005D0B5D0B008E
:10501C00000000E917D3170D0A002C004900442D9D
:10502C003E003B00412D3E003E5345435F4F4B2D10
:10503C00003E5345435F4552524F522D003E53455F
:10504C00435F4552524F525F4D41585F53454300A9
:10505C003E52554E5F4F4B2D003E53544F505F4FB9
:10506C004B003E52455345545F4F4B003E504F53FF
:10507C00494E495F4F4B00562D3E00312D3E0032BC
:10508C002D3E00552D3E003D3E0043313200433154
:02509C003300DF
:00000001FF
