:100000000C940A010C94D72E0C94AC2E0C94812ED7
:100010000C94562E0C942B2E0C94002E0C94D52D53
:100020000C94AA2D0C9400300C9400300C940030E9
:100030000C9434010C9434010C9434010C94C22FB0
:100040000C9434010C940A300C9434010C94340157
:100050000C9434010C9434010C9434010C94602DF4
:100060000C9434010C948C2F0C94622F0C9434015A
:100070000C9434010C9434010C9434010C9434012C
:100080000C9434010C9434010C9434010C9434011C
:100090000C942C2F0C94022F0C9434010C94563099
:1000A0000C9434010C9434010C9434010C943401FC
:1000B0000C9434010C9434010C9434010C943401EC
:1000C0000C9434010C9434010C9434010C943401DC
:1000D0000C9434010C9434010C9434010C943401CC
:1000E0000C9434010A0B0C0D0E0F000021002400AB
:1000F00027002A002D003000330001010000040118
:1001000007010A0100002200250028002B002E0014
:100110003100340002010000050108010B0100005C
:1001200020002300260029002C002F0032000001AF
:10013000000003010601090105050505070508087A
:100140000808020202020A0A080804040404010161
:100150000101010101010303030303030303040776
:1001600007070C0C0C0C0C0C0C0C0202020206060D
:100170000606060606060B0B0B0B0B0B0B0B010200
:1001800010202008081020401020408002010201A9
:100190000804020101020408102040808040201061
:1001A00008040201800402018040201008040201BA
:1001B0000804020101020408102040800102040822
:1001C0001020408000000A0B02090C0D0E080703E6
:1001D000040100000000000000000000000000001A
:1001E000000000000000000000000000000000000F
:1001F00012111000000000000000000000000000CC
:1002000000000000000000000000000102030405DF
:10021000E031843C11241FBECFEFD1E2DEBFCDBF61
:1002200015E0A0E0B2E0E6E6F4E800E00BBF02C0B3
:1002300007900D92A03BB107D9F722E1A0EBB5E002
:1002400001C01D92AA3BB207E1F711E0C9E0D1E07D
:1002500004C02197FE010E941841C830D107C9F798
:100260000E9455330C9426420C940000CF93DF93E8
:1002700000D000D0CDB7DEB719821A821B821C8253
:1002800089819A81AB81BC818A3F9105A105B10525
:1002900068F4000089819A81AB81BC810196A11D1F
:1002A000B11D89839A83AB83BC83EACF80E00F9032
:1002B0000F900F900F90DF91CF9108954F925F9222
:1002C0006F927F928F929F92AF92BF92CF92DF9266
:1002D000EF92FF920F931F93CF93F9010FEF1FEF50
:1002E000980100831183228333834A015B01B3E0C9
:1002F000B694A79497948794BA95D1F76A017B0135
:1003000027E0C222DD24EE24FF2495018401C0E011
:10031000063011052105310508F041C0C1113FC06B
:10032000DC01A00FB11F6C91412C512C32018016C1
:100330009106A206B30649F470E00C2C02C0759534
:1003400067950A94E2F726013701462F50E060FFD7
:1003500017C0B901A801A3E0440F551F661F771FFE
:10036000AA95D1F7440E551E661E771E4082518213
:1003700062827382C1E00F5F1F4F2F4F3F4FC8CF84
:10038000BA01759567954FEF441A540A640A740AC6
:1003900048E04416510461047104B9F6ECCFCF91E2
:1003A0001F910F91FF90EF90DF90CF90BF90AF9093
:1003B0009F908F907F906F905F904F9008958150A5
:1003C000823108F058C0E82FF0E0E751FE4F0C945E
:1003D000184109020D02FB01010205023B02100255
:1003E00016021A022002240228022E0232023B02C6
:1003F00036023C024002809180008F77809380001B
:100400000895809180008F7DF9CF80918000877F53
:10041000F5CF84B58F7784BD089584B58F7DFBCFEC
:100420008091B0008F778093B00008958091B000E4
:100430008F7DF9CF809190008F7780939000089501
:10044000809190008F7DF9CF80919000877FF5CFCC
:100450008091A0008F778093A00008958091A000E4
:100460008F7DF9CF8091A000877FF5CF809120010B
:100470008F77809320010895809120018F7DF9CF9F
:1004800080912001877FF5CFCF93DF93282F30E035
:10049000F901EC53FE4F8491F901E258FE4FD491DB
:1004A000F901E85CFE4FC491CC23A1F081110E94B8
:1004B000DF01EC2FF0E0EE0FFF1FE25EFE4FA59193
:1004C000B491EC91ED2381E090E009F480E0DF91BC
:1004D000CF91089580E090E0FACF1F93CF93DF9300
:1004E000282F30E0F901EC53FE4F8491F901E258D6
:1004F000FE4FD491F901E85CFE4FC491CC23A9F0E2
:10050000162F81110E94DF01EC2FF0E0EE0FFF1F8C
:10051000EC5FFE4FA591B4918FB7F894EC91111157
:1005200008C0D095DE23DC938FBFDF91CF911F9160
:100530000895DE2BF8CF682F809194120E946D02EF
:100540008091AC129091AD128230910538F0880FF5
:10055000991F880F991F05970197F1F7089581E07A
:100560000C949B02CF93DF9390E0FC01E258FE4F86
:100570002491885C9E4FFC0184918823D1F090E007
:10058000880F991FFC01E651FF4FA591B491FC0122
:10059000EC5FFE4FC591D49161110EC09FB7F894E6
:1005A0008C91E22FE0958E238C932881E223E883BF
:1005B0009FBFDF91CF9108958FB7F894EC91E22B14
:1005C000EC938FBFF6CFCF93DF93EC0161E08DE02A
:1005D0000E94B202209731F460E08DE0DF91CF916C
:1005E0000C946D02CF3FD10511F461E0F6CFE1ED3F
:1005F000F1E0E491E150E23108F0B0C0F0E0ED5FED
:10060000FC4F0C94184115031C0321032B033503E5
:10061000AE033F0347034F03590363036D037C039A
:100620008603AE0390039A03A40384B5806884BD57
:10063000C7BDDF91CF91089584B5806284BDC8BDE8
:10064000F8CF80918000806880938000D0938900EB
:10065000C0938800EECF80918000806280938000FC
:10066000D0938B00C0938A00E4CF80918000886093
:1006700080938000D0938D00C0938C00DACF80915E
:10068000B00080688093B000C093B300D2CF809157
:10069000B00080628093B000C093B400CACF809154
:1006A0009000806880939000D0939900C093980048
:1006B000C0CF80919000806280939000D0939B0087
:1006C000C0939A00B6CF809190008860809390008C
:1006D000D0939D00C0939C00ACCF8091A000806817
:1006E0008093A0008091A0008F7B8093A000D09386
:1006F000A900C093A8009DCF8091A0008062809344
:10070000A000D093AB00C093AA0093CF8091A0002B
:1007100088608093A000D093AD00C093AC0089CFD7
:1007200080912001806880932001D0932901C0939B
:1007300028017FCF80912001806280932001D09397
:100740002B01C0932A0175CF80912001886080938E
:100750002001D0932D01C0932C016BCFC038D1055F
:100760000CF043CF39CF863308F0865320917B00BD
:10077000982F9870277F922B90937B0087708064CE
:1007800080937C0080917A00806480937A008091CD
:100790007A0086FDFCCF80917800909179000895D1
:1007A0003FB7F8948091060990910709A091080934
:1007B000B091090926B5A89B05C02F3F19F00196F5
:1007C000A11DB11D3FBFBA2FA92F982F8827BC01AB
:1007D000CD01620F711D811D911D42E0660F771FD3
:1007E000881F991F4A95D1F708958F929F92AF92D3
:1007F000BF92CF92DF92EF92FF924B015C010E9479
:10080000D0036B017C010E94D0036C197D098E0915
:100810009F09683E734081059105A8F321E0821A83
:100820009108A108B10888EEC80E83E0D81EE11C2B
:10083000F11C81149104A104B10429F7FF90EF90F9
:10084000DF90CF90BF90AF909F908F9008952FB77B
:10085000F8946091020970910309809104099091C4
:1008600005092FBF08950895AF92BF92CF92DF92EE
:10087000EF92FF920F931F93CF93DF936C017B0155
:100880008B01040F151FEB015E01AE18BF08C017E6
:10089000D10759F06991D601ED91FC910190F08159
:1008A000E02DC6010995892B79F7C501DF91CF911C
:1008B0001F910F91FF90EF90DF90CF90BF90AF907E
:1008C0000895FC01538D448D252F30E0842F90E056
:1008D000821B930B541710F0CF960895019708953B
:1008E000FC01918D828D981761F0A28DAE0FBF2F04
:1008F000B11D5D968C91928D9F5F9F73928F90E05A
:1009000008958FEF9FEF0895FC01918D828D9817C8
:1009100031F0828DE80FF11D858D90E008958FEF05
:100920009FEF0895FC01918D228D892F90E0805CCE
:100930009F4F821B91098F739927089582E09BE056
:100940000E94920421E0892B09F420E0822F08956F
:100950008FE99BE00E94920421E0892B09F420E0BA
:10096000822F0895FC01A48DA80FB92FB11DA35AA1
:10097000BF4F2C91848D90E001968F739927848FBF
:10098000A689B7892C93A089B1898C9183708064E2
:100990008C93938D848D981306C00288F389E02D83
:1009A00080818F7D80830895EF92FF920F931F9334
:1009B000CF93DF93EC0181E0888F9B8D8C8D981312
:1009C0001AC0E889F989808185FF15C09FB7F8941E
:1009D000EE89FF896083E889F9898081837080646A
:1009E00080839FBF81E090E0DF91CF911F910F91B5
:1009F000FF90EF900895F62E0B8D10E00F5F1F4FC4
:100A00000F731127E02E8C8D8E110CC00FB607FCD2
:100A1000FACFE889F989808185FFF5CFCE010E9460
:100A2000B204F1CFEB8DEC0FFD2FF11DE35AFF4F18
:100A3000F0829FB7F8940B8FEA89FB8980818062EE
:100A4000CFCFCF93DF93EC01888D8823B9F0AA89AB
:100A5000BB89E889F9898C9185FD03C0808186FD79
:100A60000DC00FB607FCF7CF8C9185FFF2CF8081C8
:100A700085FFEDCFCE010E94B204E9CFDF91CF9187
:100A8000089580E090E0892B29F00E94A80481114C
:100A90000E94000080E090E0892B29F00E949E04D3
:100AA00081110E94000080E090E0892B49F080E0F5
:100AB00090E0892B29F00E94000081110E94000023
:100AC00080E090E0892B49F080E090E0892B29F0CC
:100AD0000E94000081110C94000008958EBD00005A
:100AE0000DB407FEFDCF8EB508951F93CF93DF930E
:100AF000EC01653B710514F064EB70E0DB0177FFFE
:100B000002C0B0E0A0E0A9831C812D81211B330B22
:100B1000032E000C440B550B542F432F322F22274A
:100B20000E94284124EB30E040E050E00E94F94070
:100B3000612F70E090E080E0982F872F762F662756
:100B4000620F731F841F951F20E430E040E050E0E7
:100B50000E94F9403B832A83DF91CF911F91089532
:100B6000089508950895E0915C0680915B06E8176A
:100B700030F4F0E0E35AF94F808190E008958FEF70
:100B80009FEF089590915C0680915B062FEF3FEFF9
:100B9000981748F4E92FF0E0E35AF94F208130E04C
:100BA0009F5F90935C06C901089580915B069091C8
:100BB0005C06891B990B089590E080E008952091D0
:100BC000D805260F3327331F21323105ECF420914D
:100BD0005506FC0190E080E0243069F082E0089541
:100BE000A091D8052191AC014A545A4FA40FB52FBA
:100BF000B11D2C930196861798F38091D805680F44
:100C00006093D80580E0089581E00895CF92DF9247
:100C1000EF92FF920F931F93CF93DF937C01CB0151
:100C20008A0120912E06222389F0EB016B01C40E6C
:100C3000D51ECC15DD0569F06991D701ED91FC91C8
:100C40000190F081E02DC7010995F3CF642F0E9438
:100C5000DF05C801DF91CF911F910F91FF90EF90B9
:100C6000DF90CF900895CF93DF931F92CDB7DEB77B
:100C7000698320912E062223F9F020912B06203241
:100C800058F021E030E0FC013383228390E080E0E3
:100C90000F90DF91CF91089580912C06E82FF0E01E
:100CA000E350FA4F998190838F5F80932C06809355
:100CB0002B0681E090E0ECCF61E0CE0101960E942E
:100CC000DF05F7CF1092550681E08093540610920D
:100CD0004F0661E084E10E946D0261E085E10E94BF
:100CE0006D02E9EBF0E080818E7F808380818D7FD3
:100CF000808388E48093B80085E48093BC000895E5
:100D0000CF93DF9391E09093B5058823B9F0C0911C
:100D1000B800D091BA008091BC008A7B8093BC005F
:100D200060E084E10E946D0260E085E10E946D0256
:100D30000E946206D093BA00C093B800DF91CF91B1
:100D40000895CF92DF92EF92FF920F931F93CF936C
:100D5000DF93D0912B0681E0D13208F09CC0C09186
:100D60002D060E94D0036B017C01809155068111F4
:100D70006CC082E08093550681E0809354068FEF2B
:100D80008093530610925206D0935106ADEFB5E012
:100D9000EFE2F6E080E0D8138DC01092500680910B
:100DA0005006CC0FC82BC093500680914F0681305F
:100DB00009F084C010924F060E94D0036B017C01A1
:100DC000809150068093BB00809157069091580601
:100DD000A0915906B0915A06892B8A2B8B2BA1F032
:100DE0000E94D00300915706109158062091590691
:100DF00030915A066C197D098E099F09061717074D
:100E00002807390708F442C08091BC0083FDD8CF81
:100E100085EC8093BC000E94D0036B017C01809123
:100E20005506823009F44CC0809153068F3F09F477
:100E300069C080915306803209F466C080915306E0
:100E4000803309F463C084E026C0809157069091F6
:100E50005806A0915906B0915A06892B8A2B8B2BE4
:100E600009F483CF0E94D0030091570610915806D1
:100E70002091590630915A066C197D098E099F09F7
:100E8000061717072807390708F06FCF8091560615
:100E90000E94800685E010922C0610922B0610927C
:100EA0002E06DF91CF911F910F91FF90EF90DF9071
:100EB000CF9008959D9191938F5F6DCF85EEA9CFCF
:100EC0008091570690915806A0915906B0915A0604
:100ED000892B8A2B8B2B09F4A2CF0E94D00300917F
:100EE0005706109158062091590630915A066C19F0
:100EF0007D098E099F09061717072807390708F08B
:100F00008ECFC4CF80E0C7CF82E0C5CF83E0C3CF10
:100F10008F929F92AF92BF92CF92DF92EF92FF9209
:100F20000F931F93CF93DF936A014801E70191E08C
:100F300090932E0680932D0610922C0610922B066D
:100F4000E881F9810190F081E02DC70109958C0CB1
:100F50009D1CC814D90459F0E881F9810190F081F1
:100F6000E02DD6016D916D01CE010995F2CFCE0134
:100F70000E94A10690E080E0DF91CF911F910F9138
:100F8000FF90EF90DF90CF90BF90AF909F908F90A9
:100F90000895EF92FF920F931F93AB01FC01EB5B5F
:100FA000FE4FE080F1808F5B9E4F06E010E020E076
:100FB00030E060EBFC0180810E948807892B31F0D2
:100FC0008CEE1F910F91FF90EF90089580E0F9CF84
:100FD000EF92FF920F931F93CF93DF9300D0CDB783
:100FE000DEB7FC01EF5BFE4F70813496E080F1804C
:100FF0004A83598302E010E020E030E0AE014F5F09
:101000005F4F872F0E948807892B51F08CEE0F903D
:101010000F90DF91CF911F910F91FF90EF90089566
:1010200080E0F5CFEF92FF920F931F93CF93DF9362
:101030001F92CDB7DEB7FC01EF5BFE4F7081349697
:10104000E080F180498301E010E020E030E0AE0173
:101050004F5F5F4F872F0E948807892B49F08CEEE6
:101060000F90DF91CF911F910F91FF90EF90089516
:1010700080E0F6CF9C014297079720F481E025316C
:10108000310509F480E0089542978730910540F4D6
:1010900088529C4FFC018081082E000C990B08950A
:1010A00090E080E008958631910514F4825108950E
:1010B00083510895CF92DF92EF92FF920F931F9387
:1010C000CF93DF937C016B01EA0141305105F1F4CC
:1010D000621773074CF40E945308E82FF0E0EC5FAE
:1010E000FC4F8081853690F50C151D05CCF5C701A8
:1010F0000E945308E82FF0E0EC5FFC4FC1E0D0E025
:101100008081843600F1D0E0C0E01DC06217730713
:101110005CF40E945308E82FF0E0EC5FFC4F808104
:10112000C1E0D0E0843690F00C151D05CCF4C70169
:101130000E945308E82FF0E0EC5FFC4FC1E0D0E0E4
:101140008081853600F3D195C195D109CE01DF911B
:10115000CF911F910F91FF90EF90DF90CF90089566
:10116000D0E0C0E0F3CF8091B1059091B205A0919D
:10117000B305B091B4050196A11DB11D8093B105D1
:101180009093B205A093B305B093B40508954F9220
:101190005F926F927F928F929F92AF92BF92CF9207
:1011A000DF92EF92FF920F931F93CF93DF93D82F8D
:1011B0006A01480181E080932E06D0932D0610929B
:1011C0002C0610922B06D701ED91FC910190F08135
:1011D000E02DC7010995C7010E94A1060E94D00316
:1011E0002B013C0180915506811166C0C82D81E01C
:1011F00080935506809354069FEF90935306109268
:101200005206980D90935106809350068091500697
:10121000DD0FD82BD093500680914F06813009F016
:1012200086C010924F060E94D0032B013C01809192
:1012300050068093BB008091570690915806A0916C
:101240005906B0915A06892B8A2B8B2BA1F00E944C
:10125000D0030091570610915806209159063091FD
:101260005A0664197509860997090617170728078A
:10127000390708F442C08091BC0083FDD8CF85ECCB
:101280008093BC000E94D0032B013C018091550645
:10129000813009F44EC0809152068C1710F4C09131
:1012A0005206EFE2F6E0ADE5B6E080E08C1751F1D2
:1012B00091919D938F5FFACF809157069091580638
:1012C000A0915906B0915A06892B8A2B8B2B09F4D1
:1012D00089CF0E94D00300915706109158062091A3
:1012E000590630915A066419750986099709061737
:1012F00017072807390708F075CF809156060E9416
:101300008006C0E010925C06C0935B068C0C9D1CAE
:10131000C814D90481F1D701ED91FC910284F385C1
:10132000E02DC7010995F60181936F01F1CF85EE9C
:10133000A7CF8091570690915806A0915906B09179
:101340005A06892B8A2B8B2B09F4A0CF0E94D0033D
:1013500000915706109158062091590630915A066F
:1013600064197509860997090617170728073907A9
:1013700008F08CCFC2CF90E080E0DF91CF911F9139
:101380000F91FF90EF90DF90CF90BF90AF909F9024
:101390008F907F906F905F904F9008952F923F9223
:1013A0004F925F926F927F928F929F92AF92BF9275
:1013B000CF92DF92EF92FF920F931F93CF93DF9321
:1013C000CDB7DEB72F970FB6F894DEBF0FBECDBFF7
:1013D0009C878B876D875F874E87390117012801AE
:1013E0002F82388649865A8610E000E0EE24E39486
:1013F000F12C0A151B0509F461C09E01295F3F4FBE
:10140000B201A1018E859F850E945E014F815885A2
:1014100069857A854F3F2FEF52076207720709F4FB
:101420009CC0DB01CA018C549F4FAF4FBF4FE6E019
:10143000B695A79597958795EA95D1F7880F991F47
:10144000880F991F865B9B4F21E0FC018081918171
:10145000A281B381892B8A2B8B2B09F420E0FD8597
:10146000F2137BC01A012B0133E056944794379452
:1014700027943A95D1F7DB01CA0187709927AA27EB
:10148000BB2726E0221631044104510468F4F3011D
:10149000E20DF31D970102C0220F331F8A95E2F778
:1014A000C9019081892B80831A012B013FEF231AF8
:1014B000330A430A530A0F5F1F4F9BCFB12CF4012D
:1014C0002082318242825382B1102DC0B3018B85BC
:1014D0009C850E94C907B82E811125C0EB85FC852B
:1014E000EB5BFE4FE080F180EB85FC85EF5BFE4F10
:1014F00006E010E020E030E0AE014F5F5F4F60EBB0
:1015000080810E94C708892B11F09CEEB92EF3014F
:10151000DE011196C301069631912D91321320C040
:10152000E817F907C9F78B2D2F960FB6F894DEBF91
:101530000FBECDBFDF91CF911F910F91FF90EF9024
:10154000DF90CF90BF90AF909F908F907F906F90E3
:101550005F904F903F902F9008952EECB22EAFCF1A
:101560008EECB82EE0CFCF92DF92EF92FF920F93E6
:101570001F93CF93DF9300D000D0CDB7DEB76A01C1
:10158000FC01EB5BFE4FE080F1808F5B9E4F04E03F
:1015900010E020E030E0AE014F5F5F4FFC01808142
:1015A0000E94C70849815A8154274527542770E073
:1015B00060E0762F652F542F44272B81422B762F06
:1015C000652F542F44272C81422BF60140835183F1
:1015D00062837383892B71F480E00F900F900F90DA
:1015E0000F90DF91CF911F910F91FF90EF90DF90BF
:1015F000CF9008958CEEF1CFCF92DF92EF92FF92D1
:101600000F931F93CF93DF9300D0CDB7DEB76A015E
:10161000FC01EB5BFE4FE080F1808F5B9E4F02E0B0
:1016200010E020E030E0AE014F5F5F4FFC018081B1
:101630000E94C70829813A81322723273227F601E1
:1016400031832083892B61F480E00F900F90DF912C
:10165000CF911F910F91FF90EF90DF90CF90089561
:101660008CEEF3CFEF92FF920F931F93CF93DF9304
:1016700000D0CDB7DEB78C017A016330710509F473
:1016800049C090F46130710509F162307105E1F1F2
:10169000F80181A992A9A3A9B4A9F7018083918334
:1016A000A283B38380E049C06630710588F7AE013C
:1016B0004F5F5F4F64E60E94FC0A81113EC02981A2
:1016C00080E0922F990FB0E0A0E0E7CFAE014F5F2E
:1016D0005F4F64E40E94FC0A81112FC0998120E0D1
:1016E000392F330FA90170E060E0232BD1F0F7010F
:1016F0004083518362837383F80145AB56AB67AB7C
:1017000070AF91E096A319C0FC0181AD92ADA3AD7D
:10171000B4ADC3CFFC01FD9680819181A281B381DC
:10172000BCCFF80145A956A967A970ADF701408360
:10173000518362837383F80116A20F900F90DF919B
:10174000CF911F910F91FF90EF9008958F929F92EC
:10175000AF92BF92CF92DF92EF92FF920F931F93BF
:10176000CF93DF9300D0CDB7DEB7962ED42E822E46
:10177000FC01EF5BFE4FC0805C012BEBA21A2EEF49
:10178000B20AF501E080F18001E010E020E030E0F5
:10179000AE014E5F5F4F8C2D0E94C708892BA9F4C4
:1017A0002A812D2128292A83F501E080F1802983CF
:1017B00001E010E020E030E0AE014F5F5F4F692DA7
:1017C0008C2D0E948807892B81F08CEE0F900F9052
:1017D000DF91CF911F910F91FF90EF90DF90CF900D
:1017E000BF90AF909F908F90089580E0EFCFEF92E1
:1017F000FF920F931F93FC01EB5BFE4FE080F180A3
:101800008F5B9E4F01E010E020E030E0FC01808122
:101810000E94C708892B31F08CEE1F910F91FF9029
:10182000EF90089580E0F9CFEF92FF920F931F930E
:10183000CF93DF931F92CDB7DEB77C0100E041E08C
:101840006BE0C7010E941208182F40E06BE0C7014F
:101850000E941208182BAE014F5F5F4F63E1C70172
:101860000E94F70B812B0F5F9981977061F0033015
:1018700061F0882321F30F90DF91CF911F910F9199
:10188000FF90EF9008950330B1F784EFF4CF9F926B
:10189000AF92BF92CF92DF92EF92FF920F931F937E
:1018A000CF93DF931F92CDB7DEB77C015B016A0156
:1018B000922E198241E06FEF0E941208182F40E02B
:1018C00060E0C7010E941208182B40E06FEFC701CB
:1018D0000E941208182B992031F0A5016BECC7016A
:1018E0000E94F70B182B002341F0AE014F5F5F4FB2
:1018F0006EEEC7010E94F70B182B41E06FEFC70196
:101900000E941208182B41E060E0C7010E941208F3
:10191000182B40E06FEFC7010E94120899819F7E4B
:10192000F6019083812B0F90DF91CF911F910F9142
:10193000FF90EF90DF90CF90BF90AF909F90089571
:101940000F931F93CF93DF931F92CDB7DEB78A011A
:10195000AE014F5F5F4F613081F060E50E94F70B91
:10196000811105C099819F5F990FF80190830F90B5
:10197000DF91CF911F910F91089560E7EFCFCF9244
:10198000DF92EF92FF921F93CF93DF931F92CDB719
:10199000DEB77C0140E063E80E941208182F811135
:1019A00017C0D12CC12CAE014F5F5F4F63E8C70158
:1019B0000E94F70B182F898181110AC0111108C0EC
:1019C0008FEFC81AD80A88ECC816D10461F719EF4E
:1019D00041E063E8C7010E941208812B0F90DF915C
:1019E000CF911F91FF90EF90DF90CF900895CF920D
:1019F000DF92EF92FF920F931F93CF93DF931F928B
:101A0000CDB7DEB77C0110E000E06C018EECC80EB3
:101A1000D11CF6018081AE014F5F5F4F8430A9F485
:101A200063E1C7010E94F70B9981292F27709871F4
:101A300011F58823D9F00F90DF91CF911F910F916D
:101A4000FF90EF90DF90CF90089564E1C7010E946E
:101A5000F70B8111F0CF998190FDEDCF0F5F1F4FF4
:101A6000083C110531F00E943601D3CF2430B1F784
:101A7000E2CF89EFE0CF8AEFDECFCF93DF93EC01A7
:101A8000462F416060E00E941208811111C0CE0112
:101A90000E94F70C81110CC0CE010E94140C811120
:101AA00007C040E060E0CE01DF91CF910C941208B6
:101AB000DF91CF9108957F928F929F92AF92BF92C4
:101AC000CF92DF92EF92FF920F931F93CF93DF930A
:101AD0001F92CDB7DEB77C015B016A01722E4C010B
:101AE00083EE881A8EEF980AF4011081198241E082
:101AF00061E0C7010E94120881114AC060E4C70179
:101B00000E943D0D811144C0F1E07F121AC000E037
:101B100021E0AE014F5F5F4FB501C7010E94470C46
:101B2000882389F00F90DF91CF911F910F91FF9043
:101B3000EF90DF90CF90BF90AF909F908F907F906D
:101B40000895F501108242E061E0C7010E94120889
:101B5000811124C060E0C7010E943D0D81111EC0AB
:101B6000F1E07F1218C001E020E0A601BE016F5F26
:101B70007F4FC7010E94470C8111D4CF412F61E0F4
:101B8000C7010E9412088111CDCFF4011083CACF82
:101B9000F5011082C7CFF6011082F0CFF601F9CF20
:101BA0002F923F924F925F926F927F928F929F926D
:101BB000AF92BF92CF92DF92EF92FF920F931F935B
:101BC000CF93DF93CDB7DEB7EC970FB6F894DEBFB7
:101BD0000FBECDBF6C015B01DC0150961C9241E051
:101BE00060E80E94120841E06FEFC6010E941208EF
:101BF00040E060E0C6010E941208F601E95DFE4F78
:101C0000408161E9C6010E94120841E060E0C6011E
:101C10000E94120840E06FEFC6010E94120840E0E7
:101C200060E8C6010E94120841E060E0C6010E941F
:101C30001208811116C091E09983412C512C320178
:101C4000BFEF4B1A5B0A6B0A7B0A998190FF2AC08F
:101C50008111B6C2E8EC4E16510461047104D1F44E
:101C600089EFEC960FB6F894DEBF0FBECDBFDF91C3
:101C7000CF911F910F91FF90EF90DF90CF90BF9089
:101C8000AF909F908F907F906F905F904F903F901C
:101C90002F900895AE014F5F5F4F60E0C6010E9434
:101CA000F70BCECFF8EC4F16510461047104C1F26A
:101CB0008111D7CFC6010E94F70C8111D2CF83E0EA
:101CC000F601E15EFE4F8083B696E080F1800CE085
:101CD00010E020E030E0AE01465E5F4F64E13497F3
:101CE00080810E94C708892B11F08CEEBACFD501F4
:101CF00056961C925697F501108211821282138219
:101D00006CA170E0762F66272DA1620F711D1496CD
:101D10001D921D921D921C921797E9A1F0E0FE2FD3
:101D2000EE27FF0F2F01712C612C1C964D925D92B6
:101D30006D927C921F978BA190E0982F8827990F26
:101D40008C0130E020E050960D931D932D933C9331
:101D500053970C8D10E0102F00272D8D7801E20E87
:101D6000F11CFCAEEBAE5596FC92EE9254979A8C19
:101D7000D601A75CBE4F2D913C9111975B978C903B
:101D8000283E03E03007E9F1629FC001639F900D98
:101D9000729F900D11248C509E4F68EE73E00E944C
:101DA000AF40D6015D96ED90FD900D911C919097FE
:101DB0005A962C91222329F12BAD3CAD2E9DA001EA
:101DC0002F9D500D3E9D500D1124452F5527E41792
:101DD000F50741F460EE7AE8882009F4E3C068EB87
:101DE00072E212C09F01DB010E94713F83017F01FB
:101DF000E41AF50A01091109A80197010E94D740C8
:101E0000B901882009F4CEC0CB01969587959695A7
:101E10008795D50119969C938E9318976295660FB6
:101E2000660F607C57966C931FA61EA6892D90E0C6
:101E30007C0173E0F594E7947A95E1F7FAAEE9AEA8
:101E400009AD0F70902E09F4B2C089AD8D7011E00C
:101E500018AB853029F084EF800F843008F018AA81
:101E600041E06FEFC6010E941208811107C0AE0168
:101E7000425D5F4F66EBC6010E94FC0A9EA520E012
:101E8000392F330F790110E000E0E9AAFAAA0BAB71
:101E90001CAB811105C040E06FEFC6010E94120823
:101EA000F601EE5CFE4FE9A8FAA80BA91CA9E08296
:101EB000F18202831383811178C1D60195968C90AB
:101EC0009597882009F47FC0F501E484F5840685A0
:101ED00017855A968C9120E030E0A901882399F06B
:101EE000A489B589F601258D368D478D50A10E94B4
:101EF000663F9B01AC0120583F4F4F4F5F4F232F50
:101F0000342F452F55272E0D3F1D401F511FA8EE82
:101F1000B3E00E94663F70588F4F9F4FBC018827E7
:101F20009927F601E65DFE4F672B682B692B09F0B8
:101F300041C08EEA97E8AFE8B2E080839183A28344
:101F4000B3831EEAE12E17E8F12E0FE812E0EDAAA6
:101F5000FEAA0FAB18AFD5011B961C921E921A97C2
:101F6000AE01465D5F4F70E060E0C6010E94320B3B
:101F70004AA55BA56CA57DA54115510561057105B7
:101F800059F0FF24F3940DA91EA92FA938AD4017CD
:101F900051076207730708F0F12C8823A9F0212C60
:101FA000312C07C1F50171876087178A3DCF01E0A9
:101FB00008AB56CF10821182128213821DAA1EAA6C
:101FC0001FAA18AEC8CFF12CD60197963C903320AB
:101FD00009F4C5C0AE014A5D5F4F62E070E0C60122
:101FE0000E94320B4EA15FA168A579A5411551054C
:101FF0006105710559F0EE24E39409A91AA92BA9EA
:102000003CA9401751076207730708F0E12C212C07
:1020100090E0811132C0D60198962C90222009F4CC
:10202000A4C00BAD1CAD0115110509F49AC0962D85
:10203000852D742D6627980150E040E00E94D7401E
:1020400029013A01AE014F5F5F4F63E070E0C601C6
:102050000E94320B49815A816B817C814115510567
:102060006105710531F091E0441655066606770664
:1020700008F090E0882309F479C0D5011B961C92E2
:102080001E921A9780E0811002C0FF24F394F6019B
:1020900036A1F3A6F4E09F1609F4B0C021E0311197
:1020A00020E0D6019C962C93311002C0EE24E394DC
:1020B000F601E5A6211001C091E0D6019E969C9301
:1020C000F501808F9601265B3F4F99E1F901DE0112
:1020D000119601900D929A95E1F7D5011896ED9120
:1020E000FC91199757969C9157971A966D917C91F0
:1020F0001B971C96ED90FD900D911C911F9750968B
:102100004D905D906D907C90539754964D915C915D
:10211000559714968D909D90AD90BC9017978D8299
:102120009E82AF82B886FA87E9877C876B87ED86C7
:10213000FE860F87188B498A5A8A6B8A7C8A5E8B47
:102140004D8B988F898F89E1FE013196D9010190DD
:102150000D928A95E1F7C6010E94140C82CDE12C04
:102160005ACF412C512C32016DCF90E018A98FEF3E
:10217000113009F488CF890D8330F0F026E09216F3
:1021800039F139E0931621F189AD8D708830B1F0C5
:1021900041E0E41699F054E0951639F1913001F1DF
:1021A000F41601F19F2DEF2C68CF212C312C812CBE
:1021B000F12C90E0E12C61CF85E065CF83E063CF27
:1021C000B8EC4B1651046104710409F04ACD48CDB6
:1021D00084E081105CCFF60136A121E023A75ECF19
:1021E00082E0F7CFE92E81E0F4CF82E081104FCF7B
:1021F00081E0D6019B968C93E12C82E021E051CFC7
:10220000AF92BF92DF92EF92FF920F931F93CF9303
:10221000DF93CDB7DEB769970FB6F894DEBF0FBE78
:10222000CDBF8C015B017C0183EEE81A8EEFF80ACA
:10223000F701D08040EC61E0C8010E9412088111D2
:1022400026C0BE016F5F7F4FC8010E94D00D811173
:102250001EC041E06FEFC8010E941208811117C033
:10226000A50166EBC8010E94FC0A811110C040E084
:102270006FEFC8010E941208811109C04D2D61E065
:10228000C8010E941208811102C0F701D08269962C
:102290000FB6F894DEBF0FBECDBFDF91CF911F9177
:1022A0000F91FF90EF90DF90BF90AF9008952F9225
:1022B0003F924F925F926F927F928F929F92AF92D6
:1022C000BF92CF92DF92EF92FF920F931F93CF9323
:1022D000DF93CDB7DEB7AC970FB6F894DEBF0FBE75
:1022E000CDBF1C017FA36EA359A748A71F821886E4
:1022F00019861A861B861C861D861E86198A1A8ACE
:10230000FC01E85DFE4F20813181398F288FAC01BF
:102310004F5E5E4F5B8F4A8FDA011C922C01BEEE3E
:102320004B1ABEEF5B0AF20110823C01FDEE6F1A00
:10233000FEEF7F0AD3011C92FC01EC5EFE4F10827F
:10234000319610823196108241E06FEF0E941208A0
:102350008B8B81111DC140E06FE4C1010E94120806
:102360008B8B811115C14CE26EE4C1010E941208F1
:102370008B8B81110DC140E06FEFC1010E941208EB
:102380008B8B811105C144EB66EBC1010E941208E1
:102390008B8B8111FDC040E060E8C1010E941208F2
:1023A0008B8B8111F5C020E0AE014E5E5F4FBE0108
:1023B0006F5E7F4FC1010E945B0D8B8B8111E8C066
:1023C0001F82188619861A86F101E95EFE4FFD8F7D
:1023D000EC8F9E01295F3F4F4901A3E0AA2EB12C4B
:1023E000C12CD12CE12CF12C87012A8D3B8DAF0122
:1023F00060E0C1010E94CE098B8B8111C9C04F8161
:10240000588569857A854C8B5D8B6E8B7F8BBE0181
:10241000615F7F4FC1010E9400118B8B8111B8C099
:102420008F859889688D798D6817790708F0D3C0F2
:10243000AA8DBB8D1C92F2011082D3011C923296A0
:10244000108231961082319610828C899D89AE89D6
:10245000BF898C549F4FAF4FBF4FE6E0B695A7950D
:1024600097958795EA95D1F7880F991F880F991F3F
:10247000865B9B4FFC0180819181A281B381892B76
:102480008A2B8B2B91F42C893D894E895F892C32C4
:1024900031054105510548F42F5F3F4F4F4F5F4FC6
:1024A0002C8B3D8B4E8B5F8BD0CFAE01495F5F4F46
:1024B0004A0173E0A72EB12CC12CD12CEC88FD88E9
:1024C0000E891F892A8D3B8D4C8D5D8D61E0C10188
:1024D0000E94CE09811159C16F81788589859A85BD
:1024E0006C8B7D8B8E8B9F8BBE01615F7F4FC1019B
:1024F0000E940011811149C18F859889A88DB98DDD
:1025000011E063E0462E512C612C712CA817B907FD
:1025100020F010E0412C512C3201C12CD12C76013D
:10252000C39460C0D501C4010196A11DB11D8C8B5F
:102530009D8BAE8BBF8B86E0EAA5FBA5ACA5B02F2B
:1025400001900D928A95E1F74E8C5F8C68A079A07E
:102550004AA35BA36CA37DA36FC04E8C5F8C68A065
:1025600079A0AEA1BFA14D925D926D927C9213971E
:10257000E8A5F9A51083F101EC5FFE4F81E08083AF
:1025800032978C918083A8A5B9A58C9131968083D0
:102590008B89AC960FB6F894DEBF0FBECDBFDF912E
:1025A000CF911F910F91FF90EF90DF90CF90BF9050
:1025B000AF909F908F907F906F905F904F903F90E3
:1025C0002F900895BEECBB8BE3CFEEECEB8BE0CF0E
:1025D000FEECFB8BDDCF10E0412C512C3201C12CE5
:1025E000D12C76018F859889288D398D8217930794
:1025F00008F0B7CF46E0EA8DFB8D9E012F5F3F4F7D
:10260000D90101900D924A95E1F7E88DF98D8E1B65
:102610009F0BAC0170E060E04AA35BA36CA37DA3B9
:1026200053E0452E512C612C712CB1016F5E7E4F11
:102630007BA76AA72CA7032F9E01255F3F4F4C89DC
:102640005D896E897F898C8D9D8D0E945E018B8452
:102650009C84AD84BE847FEF87169706A706B706D5
:1026600009F4B0CFD301C2010196A11DB11D8E8F17
:102670009F8FA8A3B9A3D501C4018C549F4FAF4F1E
:10268000BF4F36E0B695A795979587953A95D1F7C0
:10269000880F991F880F991F865B9B4F11E0FC01E3
:1026A00080819181A281B381892B8A2B8B2B09F4A4
:1026B00010E0812F90E0B0E0A0E08C159D05AE0504
:1026C000BF0509F082CFD501C40123E0B695A795D7
:1026D000979587952A95D1F7B501A401477055279D
:1026E0006627772786309105A105B10508F070CFE0
:1026F000EA8DFB8DE80FF91F21E030E001C0220FC9
:102700004A95EAF78081822B80836A8D7B8DC10197
:102710000E94C907811139C0BE01615F7F4FC101AD
:102720000E940011811131C08F859889288D398DC3
:10273000AC01421B530B8217930711F450E040E0A9
:1027400070E060E0A88DB98DA817B90708F0EACE4F
:102750008AA19BA1ACA1BDA184179507A607B707C5
:1027600008F0FBCEBE016F5F7F4FC1010E94C90719
:1027700096E0FE013196D101AF5EBE4F01900D9201
:102780009A95E1F7882309F4ECCE8B8B01CF0F9358
:102790001F93CF93DF931F92CDB7DEB78B011982C2
:1027A000AE014F5F5F4F61E00E94F70B811116C0D1
:1027B000998194FB332730F9F801308393FB332759
:1027C00030F9328392FB332730F9318396FB22278D
:1027D00020F92383991F9927991F94830F90DF91E4
:1027E000CF911F910F9108952F923F924F925F9238
:1027F0006F927F928F929F92AF92BF92CF92DF9211
:10280000EF92FF921F93CF93DF93CDB7DEB72B9755
:102810000FB6F894DEBF0FBECDBF6C011A011B8648
:102820001F821E82623009F06EC0AE01465F5F4FAC
:1028300060E00E94A00C182F811108C0AE01455F16
:102840005F4F66E4C6010E94F70B182FAA85B0E01F
:1028500020E03FE24AE350E00E94663F2B013C014A
:1028600024EF420E21E0521E611C711CCB84D12C3E
:10287000F12CE12C8FEFC81AD80AE80AF80A98EE72
:10288000892E93E0992EA12CB12CC301B201A50190
:1028900094010E94D740CA01B901A70196010E9484
:1028A0009F406B017C01C301B20120ED37E040E0A5
:1028B00050E00E94D740C701B601620F731F841F0A
:1028C000951FA50194010E94D740F1012083318317
:1028D00042835383812F2B960FB6F894DEBF0FBE31
:1028E000CDBFDF91CF911F91FF90EF90DF90CF9000
:1028F000BF90AF909F908F907F906F905F904F9020
:102900003F902F900895633009F043C0AE01465FB9
:102910005F4F60E00E94A00C182F20E030E0A9017A
:102920008111D3CFAE01465F5F4F60E0C6010E94C8
:10293000A00C182F811108C0AE014A5F5F4F61E5FE
:10294000C6010E94FC0A182FEE81FF81AA85B0E023
:1029500020E03FE24AE350E00E94663F2B013C0149
:1029600024EF420E21E0521E611C711C6F01DD2418
:10297000F12CE12C04C0CC0CDD1CEE1CFF1CFA95E4
:10298000D2F78FEFC81AD80AE80AF80AEE24FF2413
:1029900076CFBE016F5F7F4F0E94C7138C81882363
:1029A00051F1AE01465F5F4F60E0C6010E94A00C8E
:1029B000182FF12CE12C81111BC0AE014A5F5F4F33
:1029C00061E5C6010E94FC0A182F2E813F81C901D2
:1029D0009927B0E0A0E004C0880F991FAA1FBB1F71
:1029E0003A95D2F70196A11DB11D7C01112329F062
:1029F000D12CC12C25C0F12CE12CAE01465F5F4FDC
:102A000061E0C6010E94A00C182F8111F1CFAE0128
:102A1000485F5F4F61E7C6010E94FC0A182F2885B6
:102A20003985C9019927B0E0A0E004C0880F991F3B
:102A3000AA1FBB1F3A95D2F70196A11DB11D6C01CB
:102A4000AA85B0E020E03FE24AE350E00E94663F02
:102A50002B013C01E4EF4E0EE1E05E1E611C711C97
:102A600088EE882E83E0982EA12CB12CC301B201F0
:102A7000A50194010E94D740D601AE19BF090E945A
:102A8000663F0FCF2F923F924F925F926F927F924D
:102A90008F929F92AF92BF92CF92DF92EF92FF926E
:102AA0000F931F93CF93DF93CDB7DEB769970FB620
:102AB000F894DEBF0FBECDBF00ED17E020E030E0A0
:102AC0000B871C872D873E871F86188A198A1A8ACA
:102AD00040322EE4520761057105E0F45CEFB52E3B
:102AE0008B2D69960FB6F894DEBF0FBECDBFDF9178
:102AF000CF911F910F91FF90EF90DF90CF90BF90FB
:102B0000AF909F908F907F906F905F904F903F908D
:102B10002F9008954E8B5F8B688F798F8C01BE014B
:102B20006A5F7F4F0E94C713B82E8111D9CFCE881C
:102B3000DF88E88CF98C88EEC81A88E0D80AE108AA
:102B4000F1088E81811106C08F81811103C08885B3
:102B50008823C1F1AE01455F5F4F62E0C8010E946A
:102B6000F41381110AC18E81882391F08B859C8595
:102B7000AD85BE85825B9D4FAF4FBF4F8C159D05C8
:102B8000AE05BF0508F0AACFC81AD90AEA0AFB0A9F
:102B90008885882309F471C08B859C85AD85BE85A9
:102BA0008E549D4FAF4FBF4F880F991FAA1FBB1F59
:102BB0008C159D05AE05BF0508F090CFC81AD90A3F
:102BC000EA0AFB0A89858823D9F0AE01415F5F4F8D
:102BD00063E0C8010E94F4134F85588969897A8996
:102BE0004C565D4F6F4F7F4F4C155D056E057F0551
:102BF00008F074CF8111C1C0C41AD50AE60AF70AD9
:102C00008A85882309F46CCFBE016F5F7F4FC801AE
:102C10000E94C7138C818823E9F1AE014B5E5F4FA0
:102C200060E0C8010E94A00CB82E81111CC0AE014A
:102C30004D5E5F4F61E5C8010E94FC0AB82E8B898A
:102C40009C891C013324512C412C04C0220C331CC0
:102C5000441C551C9A95D2F79FEF291A390A490A44
:102C6000590ABB20C9F08E899F89A88DB98DF801BA
:102C7000828B938BA48BB58B33CF8F81882309F400
:102C8000A1CF8B859C85AD85BE858C569D4FAF4F62
:102C9000BF4F8ECF312C212CAE014B5E5F4F61E0D8
:102CA000C8010E94A00CB82E8111DDCFA6E2CA1A7D
:102CB000A2E0DA0AE108F108AD89B0E020E03FE2E5
:102CC0004AE350E00E94663F4B015C01B4EF8B0E7B
:102CD000B1E09B1EA11CB11CA8EEB3E0A7019601B8
:102CE0000E94663F2B013C01C501B40120ED37E095
:102CF00040E050E00E94D740420E531E641E751EF5
:102D0000C501B40128EE33E040E050E00E94D74016
:102D1000C301B2010E94D740220E331E2114310498
:102D2000E1F04101B12CA12CE1E08E1A9108A1083B
:102D3000B10890E080E0B501A4014427452B462B63
:102D4000472B31F0B694A794979487940196F3CFCC
:102D5000982F88271C01280C391CA10161E7C801A4
:102D60000E94E807B82E81117ECFF801E153FF4F92
:102D7000C082D182E282F38276CFB82EB1CE4F925A
:102D80005F926F927F92BF92CF92DF92EF92FF920B
:102D90000F931F93CF93DF9300D000D0CDB7DEB752
:102DA0008A01AE014F5F5F4F0E94F413B82E81116C
:102DB0002AC069817A818B819C8128EE422E23E092
:102DC000522E612C712CA30192010E94D7406901FF
:102DD0007A019B01AC01AFEFBFEF0E94663F6C50E0
:102DE0007E4F8F4F9F4FA30192010E94D7407601E3
:102DF000DD24CC24C20ED31EE41EF51EF801C082D1
:102E0000D182E282F3828B2D0F900F900F900F9062
:102E1000DF91CF911F910F91FF90EF90DF90CF90B6
:102E2000BF907F906F905F904F9008955F926F92E8
:102E30007F928F929F92AF92BF92CF92DF92EF924A
:102E4000FF920F931F93CF93DF93CDB7DEB76197B8
:102E50000FB6F894DEBF0FBECDBF7C018B01FC0125
:102E60008089FB018083AE014A5F5F4F68EFC70135
:102E70000E94FC0A582E81113AC1AE014F5F5F4F8C
:102E800064E0C7010E94B30A582E811130C12E811F
:102E90003F812115310569F050E040E069817A8178
:102EA0008B819C810E94D740F8012683378340871D
:102EB0005187F80186819781A085B185F701868BBE
:102EC000978BA08FB18FF8011286AE014F5F5F4FD5
:102ED00060E2C7010E94FC0A582E811108C1898155
:102EE0009A81009709F01AC1F701858D968DA78DFB
:102EF000B0A1F80185879687A787B08BF701128E5E
:102F0000AE014F5F5F4F68E2C7010E94FC0A582E76
:102F10008111EDC089819A819F708115F8E09F072A
:102F200008F090514AEF489F9001499F300D1124BD
:102F3000C901330FAA0BBB0BF801818B928BA38BBA
:102F4000B48B5801F1E2AF0EB11C470125E2820EAD
:102F5000911C380185E1680E711CD12CC12CA50192
:102F6000B601C7010E94320B582E8111C0C0F40176
:102F700081914F01F30181933F01FFEFCF1ADF0AE7
:102F800024E0A20EB11C86E0C816D10441F7AE01C0
:102F90004F5F5F4F61E0C7010E94F70B582E811110
:102FA000A6C08981F701E35EFE4F808387FFCAC018
:102FB00081E0F80181AFF80181ADF701E75BFF4FD8
:102FC000808380ED97E0A0E0B0E08A879B87AC87A4
:102FD000BD871E821F821886198686E39BE0A0E0CB
:102FE000B0E0F80182839383A483B583BE016F5F51
:102FF0007F4FC7010E94C713582E811178C0898165
:10300000811107C08A81811104C08B81882309F452
:103010003EC0AE01465F5F4F62E0C7010E94F413FD
:103020008111C1C089818823A9F08A859B85AC85DF
:10303000BD85825B9D4FAF4FBF4FF80142815381E9
:1030400064817581840F951FA61FB71F82839383A8
:10305000A483B5838B81882309F477C08A859B85F7
:10306000AC85BD858E549D4FAF4FBF4F880F991FC4
:10307000AA1FBB1FF8014281538164817581840FAF
:10308000951FA61FB71F82839383A483B5838C816A
:10309000811168C08D81882301F1AE01425F5F4FCD
:1030A00064E0C7010E94F4138E849F84A888B988C5
:1030B000F6E28F0EF2E09F1EA11CB11CF8014281C6
:1030C000538164817581480D591D6A1D7B1D4283A2
:1030D000538364837583811166C0F8018281938173
:1030E000A481B581F701828B938BA48BB58B852D41
:1030F00061960FB6F894DEBF0FBECDBFDF91CF91C2
:103100001F910F91FF90EF90DF90CF90BF90AF9005
:103110009F908F907F906F905F90089533E0880F1D
:10312000991F3A95E1F7B0E0A0E0F801858796870E
:10313000A787B08BF701858F968FA78FB0A381E00B
:10314000828FDECEF80111AE36CF8A81882309F452
:103150009ECF8A859B85AC85BD858C569D4FAF4F94
:10316000BF4F88CFAE014A5F5F4F63E0C7010E9447
:10317000F4138E809F80A884B984F4E98F0EF2E066
:103180009F1EA11CB11CF80142815381648175818D
:10319000480D591D6A1D7B1D4283538364837583CB
:1031A000882309F477CF582EA2CFCF93DF93CDB7E2
:1031B000DEB769970FB6F894DEBF0FBECDBFBE0174
:1031C0006F5F7F4F8091E8119091E9110E94D00DBF
:1031D000898D843059F089859A8569960FB6F8945F
:1031E000DEBF0FBECDBFDF91CF9108958FEF9FEF70
:1031F000F4CFCF93DF93CDB7DEB7A8970FB6F8948F
:10320000DEBF0FBECDBF84E1FE01BD96DE0111968B
:1032100001900D928A95E1F786E190E00E94C23C10
:1032200024E1FE013196DE01559601900D922A951A
:10323000E1F724E1FE017596DC01129601900D92F2
:103240002A95E1F7DC0111961C921E92E0918E12F4
:10325000F0918F123097B1F490938F1280938E1269
:1032600080918C1290918D12019690938D12809383
:103270008C12A8960FB6F894DEBF0FBECDBFDF91BB
:10328000CF910895ED93FC9390938F1280938E12BB
:103290000190F081E02D3097D9F7E2CFFC01019049
:1032A0000020E9F73197AF01481B590BBC018FE9AA
:1032B0009BE00C9434048F929F92AF92BF920F9335
:1032C0001F93CF93DF93CDB7DEB7A1970FB6F894D6
:1032D000DEBF0FBECDBF19A2423008F44AE08E0116
:1032E0000F5D1F4F842E912CB12CA12CA5019401B0
:1032F0000E94D740E62FB901CA01EA30F4F4E05D3C
:10330000D801EE938D01232B242B252B79F790E008
:1033100080E0109719F0CD010E944E19A1960FB6CA
:10332000F894DEBF0FBECDBFDF91CF911F910F91FB
:10333000BF90AF909F908F900895E95CE1CFCF92BE
:10334000DF92EF92FF92CF93DF9397FF1BC06B0149
:103350007C016DE28FE99BE00E94D404EC016627BA
:103360007727CB016C197D098E099F094AE00E94DD
:103370005B198C0F9D1FDF91CF91FF90EF90DF9035
:10338000CF9008954AE0DF91CF91FF90EF90DF90CA
:10339000CF900C945B19BC01990F880B990B0C947E
:1033A0009F196091B1057091B2058091B30590911C
:1033B000B4050C949F19CF93DF930E94CB19EC01B5
:1033C00086E994E00E944E198C0F9D1FDF91CF91EA
:1033D0000895CF93DF93D0E0C0E0009719F00E94EA
:1033E0004E19EC0186E994E00E944E198C0F9D1F46
:1033F000DF91CF9108954F925F926F927F928F925B
:103400009F92AF92BF92CF92DF92EF92FF920F9373
:103410001F93CF936B017C01742EAC019B010E9422
:103420009A40882399F089E994E0CF911F910F91F8
:10343000FF90EF90DF90CF90BF90AF909F908F90D4
:103440007F906F905F904F900C944E1946015701FA
:10345000E894B7F82FEF3FEF4FE75FE7C501B401FE
:103460000E949A4081110DC02FEF3FEF4FE75FE7B9
:10347000C501B4010E94423E18161CF48DE994E087
:10348000D4CF2FEF3FEF4FE75FE4C701B6010E94B3
:10349000954018161CF481EA94E0C7CF2FEF3FEF58
:1034A0004FE75FECC701B6010E94423E87FDF3CFB4
:1034B00020E030E0A901C701B6010E94423E10E0C1
:1034C00000E087FF0AC06DE28FE99BE00E94D40410
:1034D0008C01F7FAF094F7F8F094C0E060E070E047
:1034E00080E09FE37C1641F020E030E040E251E4D0
:1034F0000E94ED3FCF5FF6CFA70196010E94813F6A
:103500002B013C010E9466404B015C014AE00E9495
:103510005B197C01E00EF11ECC23C1F1C501B401A1
:103520000E94473E9B01AC01C301B2010E94803F53
:103530004B015C016EE28FE99BE00E94D404E80E2F
:10354000F91EC15018F120E030E040E251E4C5011D
:10355000B4010E94A83E2B013C010E9466404B0131
:10356000B12CA12C4AE0C501B4010E945B19E80E00
:10357000F91EC501B4010E94473E9B01AC01C30185
:10358000B2010E94803F4B015C01DBCFC701CF91AC
:103590001F910F91FF90EF90DF90CF90BF90AF9071
:1035A0009F908F907F906F905F904F9008950097BD
:1035B00011F00C944E1990E080E00895CF93DF93C2
:1035C000C2E1D0E0C231D10571F4CE010E944408BD
:1035D0000E94B3030E94CB192196C931D10591F7FE
:1035E000DF91CF91089585EA94E00E94D71AC53102
:1035F000D10559F786EE94E00E94D71AEDCF0F93CC
:103600001F93CF93DF9301EF18E0D0E0C0E0F80103
:10361000819191918F010E94CB192196C430D105DF
:1036200029F4DF91CF911F910F91089585EA94E0DD
:103630000E94D71AECCF2F923F924F925F926F92D7
:103640007F928F929F92AF92BF92CF92DF92EF9232
:10365000FF920F931F93CF93DF9300D000D0CDB78D
:10366000DEB71C012A013B0109831A832B833C83AB
:1036700087EA94E00E94D71AC1010E94D71A8DEA06
:1036800094E00E94D71AC301B2010E949F198DEAEB
:1036900094E00E94D71A69817A818B819C810E9473
:1036A0009F198DEA94E00E94D71A42E0C701B60143
:1036B0000E94FB198DEA94E00E94D71A42E0C501EE
:1036C000B4010E94FB1980EB94E00F900F900F90D3
:1036D0000F90DF91CF911F910F91FF90EF90DF90AE
:1036E000CF90BF90AF909F908F907F906F905F90A2
:1036F0004F903F902F900C94E9193F924F925F9218
:103700006F927F928F929F92AF92BF92CF92DF92F1
:10371000EF92FF920F931F93CF93DF9300D000D0CF
:10372000CDB7DEB7452B09F09EC09C012250310970
:103730002B31310508F097C07C836B832C013EEF61
:10374000F32EF80E6F2C712C0E943A08382E81113E
:10375000D7C0F2013B972AE1421651040CF4F30161
:10376000EE0FFF1FEE0FFF1FE152FC4F838192818E
:10377000EB81FC819E171F0611F00CF074C08E17B0
:103780001F060CF470C021E2269DC001279D900DFC
:1037900011249C01245B334F3A832983F9018485EA
:1037A0008823E9F1830193E0000F111F9A95E1F757
:1037B0000953104F9585992309F46BC06B817C8167
:1037C000C8010E9475050E942704AB01BC0188EB6B
:1037D0009BE0311002C088E592E021E2269DF001D5
:1037E000279DF00D1124E45BF34F092E000CAA0B6A
:1037F000BB0B840F951FA61FB71F86879787A08BCB
:10380000B18B81E2869DF001879DF00D1124E45B70
:10381000F34F2B813C81318320831382128233202A
:1038200011F1C2010E94530834E1839FF001112479
:10383000E45FFC4F8B81828782812B813C818217E0
:10384000130689F48FEF838714860E94270421E2F0
:10385000269DF001279DF00D1124E45BF34F668750
:103860007787808B918B0F900F900F900F90DF9147
:10387000CF911F910F91FF90EF90DF90CF90BF906D
:10388000AF909F908F907F906F905F904F903F9000
:103890000895F894F80180839FEF91831382128238
:1038A0002091F9083091FA08378326831093FA089B
:1038B0000093F90860E00E946D0261E0F8018081E8
:1038C0000E94B2026B817C81C8010E9475054F2D58
:1038D00050E070E060E0812C912C5401750164018E
:1038E0008B819C818C01990F220B330B82EB94E02E
:1038F0000E941B1B789481E0E981FA81858763CF60
:103900008B819C8197FD8DCF843B91050CF089CFF5
:103910003ACF0F931F93CF93DF938C010E945308EC
:1039200094E1899FF0011124E45FFC4FC281D0E053
:10393000C8010E943A08882331F050E040E0BE01FF
:10394000C8010E947D1BCE01DF91CF911F910F9185
:1039500008951F93CF93DF931092FB08CCE0D3E040
:103960001FEF6A8170E0888150E040E090E00E94A3
:103970007D1B8A818A87888190E00E9444080E948A
:10398000B303998788871B871B8A649683E0C438B2
:10399000D80739F7CFEDD3E0698170E0888150E036
:1039A00040E090E00E947D1B249684E0C732D80757
:1039B00099F7DF91CF911F9108950F931F93009175
:1039C000961210919712209198123091991240E01E
:1039D00052E16AE770E080E0041715072607370711
:1039E00040F476956795579547958F5F8630A1F798
:1039F00087E0982F906A9695809581709CBD8DBDCB
:103A000080E01F910F910C949B02CF93C82F0E94CE
:103A1000DD1C8C2F0E946E0580939A128FEF0E94FE
:103A20006E05C82F0E94AF028C2FCF910895CF93BF
:103A3000DF93D82FC62F0E94DD1C8D2F80620E943D
:103A40006E0580939A128C2F0E946E05DF91CF91A4
:103A50000C94AF02CF93C82F82E00E94051DEC2F7B
:103A6000F0E0E65FFD4FE49161E070E001C0660FB9
:103A7000EA95EAF7682B82E0CF910C94171DFF922C
:103A80000F931F93CF93DF93C82FF62E072F142F7A
:103A90000E94DD1C8C2F80620E946E0580939A121A
:103AA000CF2DD02F115020F089910E946E05FACFB2
:103AB000DF91CF911F910F91FF900C94AF020E9464
:103AC000DD1C80E50E946E0580939A1283E70E94B8
:103AD0006E050C94AF029F92AF92BF92CF92DF928D
:103AE000EF92FF920F931F93CF93DF93CDB7DEB783
:103AF000A0970FB6F894DEBF0FBECDBF6C012FEDBF
:103B0000C20ED11CF601A080F7E0F12CAF1609F42B
:103B1000EEC0B62E8C0141E060E80E941208F82E3B
:103B200041E06FEFC8010E941208F82A40E060E00F
:103B3000C8010E941208F82A46E06FEFC8010E94EF
:103B40001208F82AAE01425E5F4F63E8C8010E9486
:103B5000F70BF82A4E8D446063E8C8010E941208F2
:103B6000F82A47E06FEFC8010E941208F82A41E0E6
:103B700061E8C8010E941208F82A0E943601F82A5A
:103B800041E060E8C8010E941208F82A21E0B21260
:103B9000C1C0A0FC02C24BE664E9C8010E94120841
:103BA000E82EC8010E94BF0C8E29F82AAE01465E9D
:103BB0005F4F60E9C8010E94B30AF82A8A8D9B8D85
:103BC000AC8DBD8D992EE89497F897FBEE24E0F824
:103BD00044E264E9C8010E941208F82AC8010E9460
:103BE000BF0CF82AAE01465E5F4F60E9C8010E9433
:103BF000B30AF82A8A8D9B8D2C8D3D8D3C8B2D8BA5
:103C00009E8B8F8B45E264E9C8010E941208F82A56
:103C1000C8010E94BF0CF82AAE01465E5F4F60E902
:103C2000C8010E94B30AF82A8C8D9D8D988F898FC8
:103C300040E061E8C8010E941208F82A46E06FEFF0
:103C4000C8010E941208F82AAE01425E5F4F63E885
:103C5000C8010E94F70BF82A4E8D4B7F63E8C8011C
:103C60000E941208F82A41E06FEFC8010E94120872
:103C7000F82A41E060E0C8010E941208F82A40E0FA
:103C80006FEFC8010E941208F82A40E060E8C801FE
:103C90000E941208F82A59F5F1E0BF1699F0A1FC2C
:103CA00023C0F801E052FF4F8F8D8083319688A1A9
:103CB0008083BE016F5F7F4FC8018E519F4F0E946E
:103CC0001F4212C0A0FC10C0F801EE5FFE4F9082B0
:103CD0003196E082DE0154967496035E1E4F8D91FC
:103CE00081930E171F07D9F7BA28F601B0828F2DDE
:103CF000A0960FB6F894DEBF0FBECDBFDF91CF9177
:103D00001F910F91FF90EF90DF90CF90BF90AF90F9
:103D10009F900895A1FC41C142E064E9C8010E945E
:103D20001208E82EC8010E94BF0C8E29F82AAE01A5
:103D3000415E5F4F60E9C8010E94F70BF82A4BE72C
:103D400064E9C8010E941208F82AC8010E94BF0C49
:103D5000F82AAE01405E5F4F60E9C8010E94F70B90
:103D6000F82A47E764E9C8010E941208F82AC80146
:103D70000E94BF0CF82AAE01465E5F4F60E9C801A1
:103D80000E94B30AF82A4A8D5B8D6C8D7D8DDB0114
:103D9000CA0129E1B695A795979587952A95D1F7F8
:103DA0008983DB01CA0132E1B695A795979587957E
:103DB0003A95D1F78F778A83DB01CA01EBE0B6959C
:103DC000A79597958795EA95D1F78F778B83DB0138
:103DD000CA01F4E0B695A79597958795FA95D1F71E
:103DE0008F778C83440F440F440F48774E8F48E7FA
:103DF00064E9C8010E941208F82AC8010E94BF0C99
:103E0000F82AAE01465E5F4F60E9C8010E94B30A1E
:103E1000F82A8A8D9B8DAC8DBD8DAC01BD012DE145
:103E200076956795579547952A95D1F72E8D240F4E
:103E30002D83AC01BD0136E1769567955795479581
:103E40003A95D1F74F774E83AC01BD01EFE07695FF
:103E5000679557954795EA95D1F74F774F83292F67
:103E60002F772887AC01BD017695679557954795C3
:103E70004F774987982F9295990F990F90749E8F3D
:103E800049E764E9C8010E941208F82AC8010E94A3
:103E9000BF0CF82AAE01465E5F4F60E9C8010E9480
:103EA000B30AF82A8A8D9B8DAC8DBD8DAC01BD0106
:103EB0002AE176956795579547952A95D1F72E8DE6
:103EC000240F2A87AC01BD0133E17695679557959C
:103ED00047953A95D1F74F774B87AC01BD01ECE0A0
:103EE0007695679557954795EA95D1F74F774C8723
:103EF000AC01BD01F5E07695679557954795FA9524
:103F0000D1F74F774D87982F990F990F9C779E8FF8
:103F10004AE764E9C8010E941208F82AC8010E9411
:103F2000BF0CF82AAE01465E5F4F60E9C8010E94EF
:103F3000B30AF82A8A8D9B8DAC8DBD8DAC01BD0175
:103F40002EE176956795579547952A95D1F72E8D51
:103F5000240F2E87AC01BD0137E176956795579503
:103F600047953A95D1F74F774F872A2F2F77288B90
:103F7000AC01BD01E9E07695679557954795EA95BF
:103F8000D1F74F77498BF2E0B695A795979587952E
:103F9000FA95D1F78F778A8B1B8AE12C912C48CE2A
:103FA0002F923F924F925F926F927F928F929F9249
:103FB000AF92BF92CF92DF92EF92FF920F931F9337
:103FC000CF93DF93CDB7DEB7C355D1090FB6F894C1
:103FD000DEBF0FBECDBFE091E811F091E911EF5BBC
:103FE000FE4F89E28083E091E811F091E911EE5BE8
:103FF000FE4F81E08083E091E811F091E911ED5BE3
:10400000FE4F80E991E091838083E091E811F09187
:10401000E911EB5BFE4F8CE39CE09183808310926F
:104020005C0610925B0610922C0610922B060E94E2
:10403000620680EB95E09093D7058093D60581EBDF
:1040400095E09093DB058093DA0521E04EEF69E877
:1040500081EA90E10E94A60B811106C040E068E869
:1040600081EA90E10E9412082E018BE3480E511C58
:10407000A20160EC81EA90E10E94F70B109280119E
:1040800088EE93E09093DB118093DA1180E991E060
:104090009093DD118093DC1185E89BE6A1E0B0E010
:1040A0008093DE119093DF11A093E011B093E111A2
:1040B00084EA90E7A9E0B0E08093691190936A11D7
:1040C000A0936B11B0936C111092BE101092BF10A0
:1040D0001092C0101092C110FE0131962A96FFAFC7
:1040E000EEAF2A97BF0181EA90E10E941617182FC0
:1040F00081110BC019821A828AE3FE013196A1EB6D
:10410000B0E101900D928A95E1F784E690E09093FA
:10411000C3118093C21184E893E09093C5118093FA
:10412000C41184EF91E09093C7118093C61180E091
:104130009AE09093CA118093C91181E08093D911BC
:1041400041E060E881EA90E10E941208D82E41E047
:104150006FEF81EA90E10E941208D82AD12A40E04C
:1041600060E081EA90E10E941208D82AAE01415C29
:104170005F4F61E981EA90E10E94F70BD82A8FAD89
:104180008093C81141E060E081EA90E10E9412084A
:10419000D82A40E06FEF81EA90E10E941208D82A05
:1041A00040E060E881EA90E10E941208D82A10E01D
:1041B00000E0FF24F394D11083C10330110509F40A
:1041C0009CC07CF401301105D9F00230110509F4CE
:1041D00091C0F092C610F801E056FF4EF6A280E0C2
:1041E00025C00430110509F48BC020E04FEE0530E6
:1041F000110579F760E681EA90E10E94A60B14C0F0
:104200004091D6105091D7106091D8107091D9106C
:10421000B9E07695679557954795BA95D1F764E4D7
:1042200081EA90E10E94E8078823A9F20F5F1F4FFF
:10423000D82E0630110509F0BECF81116EC0109244
:10424000C8101092C91022E04EEF60E681EA90E1BA
:104250000E94A60B811161C01092CA1020E14FEE9E
:1042600060E681EA90E10E94A60B811156C010928F
:10427000CB1080E090E0A2E1B0E08093D210909368
:10428000D310A093D410B093D5108091C710811192
:104290003AC080E090E4A0E0B0E08093D610909324
:1042A000D710A093D810B093D91080E090E0A3E28B
:1042B000B0E08093DA109093DB10A093DC10B09301
:1042C000DD101092DE101092DF101092E0101092AC
:1042D000E1108FEF8093BE114FEF61E081EA90E132
:1042E0000E94120891E09093C011811116C01092A3
:1042F000A51113C0F092C8106ECFF092C9106BCF09
:1043000020E04EEF77CF40E250E064E481EA90E1B4
:104310000E94E807882309F4BCCF8093A01049E2EB
:104320006AE88091E8119091E9110E941208809347
:10433000A0106AE070E080E090E00E94F5038091B8
:10434000A0108111BFC0E091E811F091E911EF5B7D
:10435000FE4F89E2808362E081EA90E10E946B1D5A
:10436000882309F4D9C08093A01081110BC08091DB
:104370004B12813021F480914C12813019F08BEF77
:104380008093A0108091A010811124C16090E81149
:104390007090E9118AE32A96EEADFFAD2A9711924B
:1043A0008A95E9F725961FAE1EAE259728961FAE73
:1043B000289727961FAE279723961CAE1DAE1EAEDC
:1043C0001FAE239761E0C3010E946B1DF301ED5FF7
:1043D000FE4F3080F1E0F31508F4EDC0F301EE5F1D
:1043E000FE4F2080A22CB12CD12CC12C81E03812A0
:1043F000DBC091E2A916B104C104D10408F0DBC00E
:1044000041E06FEFC3010E94120881111AC040E021
:104410006FE4C3010E941208811113C04CE26EE4E4
:10442000C3010E94120881110CC040E06FEFC3016C
:104430000E941208811105C044EB66EBC3010E9483
:10444000120893012F5E3E4FF901108231961082BF
:1044500031961082319610823196108231961082F8
:10446000E12CF12C8701332009F41CC1D801C701CC
:104470008C549F4FAF4FBF4FF6E0B695A7959795D9
:104480008795FA95D1F7880F991F880F991F865B3A
:104490009B4FFC0180819181A281B381892B8A2B62
:1044A0008B2B09F0FFC0FCE2EF16F10401051105AA
:1044B00009F4F8C08FEFE81AF80A0F4F1F4FD6CF54
:1044C0008D2D2BCF812C912C54017501640100E0BE
:1044D00010E0980140E050E0BA0184EB94E00E94C3
:1044E0001B1B80E0CD5ADF4F0FB6F894DEBF0FBE26
:1044F000CDBFDF91CF911F910F91FF90EF90DF9093
:10450000CF90BF90AF909F908F907F906F905F9073
:104510004F903F902F9008958091811181112CC070
:1045200068E974E08AE292E10E941F426CED74E057
:104530008AEE91E10E941F4265E175E08AE092E116
:104540000E941F424AE452E160EC81EA90E10E943D
:10455000F70B811108CFAE014F5F5F4F62EC81EA2C
:1045600090E10E94F70B91E090934B129981929504
:104570009F7090934C12F7CE1091821163E871E115
:104580008AE292E10E941F42112381F2133238F431
:1045900068EE74E0103261F664EF74E0C9CF60E059
:1045A00075E0173228F6F8CFEDE0AE16B104C1047D
:1045B000D10408F425CFAE014A5B5F4FBE01615CB8
:1045C0007F4FC3010E945711B82EBB2009F47EC053
:1045D000B092A0108091A01081110EC0AE014D5B71
:1045E0005F4FBE016F5F7F4F8091E8119091E9119D
:1045F0000E9457118093A0108091A01081110DC0CE
:1046000021E0A201BE01615C7F4F8091E811909191
:10461000E9110E945B0D8093A0108091A010811180
:1046200051CFE091E811F091E911108AE091E81181
:10463000F091E911FF24F394F5A20091E811109193
:10464000E911F80145A956A967A970AD99E07695D9
:104650006795579547959A95D1F764E4C8010E94EC
:10466000E807811102C0F801F6A28093A010811121
:1046700029CFE091E811F091E91181E080A7E09164
:10468000E811F091E911FD9684ED98E0A0E0B0E02A
:1046900080839183A283B3838091A010811112CF74
:1046A00081E020CF4201A301495E5E4F632DC3012B
:1046B0000E94CE09B82E811188CF81E0F301EC5F12
:1046C000FE4F80833297208231963082F301E85C7E
:1046D000FE4F80818111C5C13297C080D18030E00A
:1046E00020E04301FBEB8F1AFEEF9F0AC3018F5BB3
:1046F0009E4F2C969FAF8EAF2C97F301ED5DFE4F32
:104700002E96FFAFEEAF2E97809760969FAF8EAF3D
:10471000609732966296FFAFEEAF62970796649607
:104720009FAF8EAF649703C0ECEFBE2E9101F601F0
:10473000E20FF31F0081002309F484C0B11048CFB9
:1047400019019FEF291A390AD601A20DB31D6C91E8
:104750000F3F09F04DC0190182E0280E311CD6012F
:10476000A20DB31D8C91613029F198F0623089F16E
:104770006330D1F6190194E0290E311C238190E0B9
:10478000982F8827820F911D6496EEADFFAD649738
:104790000EC0190194E0290E311C238190E0982F5E
:1047A0008827820F911D6096EEADFFAD60979183D3
:1047B0008083BCCF190194E0290E311C238190E045
:1047C000982F8827820F911D2E96EEADFFAD2E9764
:1047D000EECF190194E0290E311C238190E0982F2F
:1047E0008827820F911D6296EEADFFAD6297DFCFF5
:1047F000053008F099CF2E5F3F4FD601A20FB31FAF
:10480000F201202E312CCF018419950982159305D0
:104810001CF48D918193F7CF220E331EF401E080BA
:10482000F18010E030E020E0A2012C96EEADFFAD6B
:104830002C9780810E948807892B09F477CF7CEE22
:10484000B72E74CFB110C4CE44E06AE0C3010E9419
:104850001208B82E8111BCCE20E04FEE64E8C301EF
:104860000E94A60BB82E8111B3CE84E0F301E2536F
:10487000FF4F8083C3010E94140CB82E8111A8CE73
:1048800041E06FEFC3010E941208B82EAE014D5BEC
:104890005F4F64E8C3010E94FC0AB82A40E06FEF52
:1048A000C3010E941208B82A09F092CEF301E8531E
:1048B000FF4F25968EAD9FAD259724E0880F991F59
:1048C0002A95E1F7B0E0A0E080839183A283B383CF
:1048D000BE016F5F7F4FC3010E941617B82E811172
:1048E00077CEAE01495B5F4F69E0C3010E94F70BD1
:1048F000B82E81116DCE28968FAD2897817028969D
:104900008FAF2897F301E25EFE4F80838AE3FE01BA
:104910003196D301509601900D928A95E1F7AE0140
:10492000495B5F4F61E0C3010E94F70BB82E811114
:104930004FCE8301035E1E4F28968FAD2897F80156
:1049400080831BAEA20161E0C3010E94F70BB82E69
:1049500081113ECE8BADF82EE894F4F884FF12C09E
:104960004F2D61E0C3010E941208B82E811130CE94
:10497000F801F082F3014289538964897589C30182
:104980000E9442151BAEA20161E0C3010E94F70B19
:10499000B82E81111DCE8BADF82EE894F2F882FF6F
:1049A00012C04F2D61E0C3010E941208B82E811180
:1049B0000FCEF801F082F301428953896489758929
:1049C000C3010E94421583E0F301E15EFE4F808344
:1049D000AE014B5B5F4F60E0C3010E94A00CB82E9C
:1049E0008111F6CD26968FAD2697F301E852FF4F41
:1049F0008083AE014B5B5F4F61E0C3010E94A00C5E
:104A0000B82E8111E5CD26968FAD2697F301ED5294
:104A1000FF4F8083A20163E0C3010E94BF16B82E3E
:104A20008111D6CD8BAD9CADADADBEADF301EC52D9
:104A3000FF4F80839183A283B383A20164E0C3010B
:104A40000E94BF16B82E8111C3CDF301E153FF4F71
:104A50008BAD9CADADADBEAD80839183A283B3839E
:104A6000B7CD80E0C82E82E0D82E39CE0F931F93A9
:104A7000CF93DF93CDB7DEB7E2970FB6F894DEBFE2
:104A80000FBECDBF8A0120918C0330918D033A83F4
:104A90002983FE01339620E3DF011D922A95E9F771
:104AA000FC01E65FF64F50819E012F5F3F4FD90119
:104AB000FD01E21BF30B561739F05D930196FC01E3
:104AC000E65FF64F5081F4CFE20FF31F1082F8013A
:104AD00091838083C9010E94E73DE2960FB6F89466
:104AE000DEBF0FBECDBFDF91CF911F910F91089513
:104AF0000E9411420F931F93CF93DF93EC018881A3
:104B00009981009759F02A813B812617370730F0A9
:104B100081E0DF91CF911F910F9108958B016F5F1D
:104B20007F4F0E943041009759F0998388831B83FF
:104B30000A832C813D81232B59F7FC011082E8CF99
:104B400080E0E7CFCF93DF93EC01888199810097D4
:104B500011F00E945E3D198218821D821C821B8208
:104B60001A82DF91CF910895EF92FF920F931F93D6
:104B7000CF93DF93EC017B01198218821B821A828A
:104B80001D821C82FB0101900020E9F731978F0103
:104B9000061B170BB8010E947A25811109C0CE01AE
:104BA000DF91CF911F910F91FF90EF900C94A22570
:104BB0001D830C83B70188819981DF91CF911F916B
:104BC0000F91FF90EF900C941F420F931F93CF9380
:104BD000DF938C01EC0109900020E9F72197C81BB5
:104BE000D90BBE0180EB92E10E947A25811108C0A9
:104BF00080EB92E1DF91CF911F910F910C94A22550
:104C0000D093B512C093B412B8018091B0129091B4
:104C1000B112DF91CF911F910F910C941F424F92CF
:104C20005F926F927F928F929F92AF92BF92CF923C
:104C3000DF92EF92FF920F931F93CF93DF93CDB745
:104C4000DEB7A4970FB6F894DEBF0FBECDBF8DE1DF
:104C500095E00E94E525109200091092FF0810923D
:104C6000FB081092FE0881E0809385030E942704D0
:104C700007E214E0EBE2EE2EE4E0FE2E60E0F80145
:104C800081918F010E94B20261E0F70181917F0161
:104C90000E94B202F4E00B321F0781F760E082E06D
:104CA0000E94B20283EB98E09093F5028093F402A5
:104CB00080916A008C7F816080936A00EC9A61E049
:104CC00080E10E94B20261E081E10E94B20261E0F3
:104CD0008FE00E94B20261E085E40E94B20261E0CE
:104CE00081E10E946D0261E080E10E946D0261E05D
:104CF0008FE00E946D0261E085E40E946D0260E039
:104D000082E10E94B20260E083E10E94B20260E0B0
:104D100083E00E94B202E091AF0BF091B00B82E011
:104D20008083E091AB0BF091AC0B1082E091AD0B66
:104D3000F091AE0B80E180831092B70BE091B30B42
:104D4000F091B40B86E08083E091B10BF091B20B4F
:104D5000808180618083E091B10BF091B20B808102
:104D600088608083E091B10BF091B20B8081806804
:104D70008083E091B10BF091B20B80818F7D8083B5
:104D80000CE41CE06FE2862E64E0962E77ECE72EB2
:104D90007FE0F72ED12CC12CAA24A39477247A94F7
:104DA000F80110A2F401B1904F01F8011B140CF0AE
:104DB0002AC215821482B4860E942704F8016687ED
:104DC0007787808B918BF9E1CF16D1041CF0F80125
:104DD00015861AC0F801A586F701B0827182138288
:104DE00012828091F9089091FA0897838683F09255
:104DF000FA08E092F90860E08B2D0E946D0261E0F4
:104E0000F70180810E94B202F80111821082148A97
:104E1000158A168A178AFFEFCF1ADF0A0F5D1F4F18
:104E200028E0E20EF11C3BE1C316D10409F0B8CF33
:104E30000E94A91C8DE28093F3028EE0EEEBF3E07A
:104E40008E010F5F1F4FD80101900D928A95E1F7F7
:104E50006E0143E0C40ED11CFF24F394812C44E284
:104E6000942E44EFA42EB12C50E2452E5EE4552E34
:104E7000612C712CF601219131916F0150E040E0DD
:104E8000C501B4010E94D740CA01B901A301920132
:104E90000E94D740223031054105510508F0C1C1BB
:104EA000F394F7E0FF12E6CFFFB6F8948091B005D7
:104EB000811127C0EDE6F1E08491E3EBF1E09491FC
:104EC000E82FF0E0EE0FFF1FE651FF4FA591B491E0
:104ED000EC91E92321F461E085E30E946D0261E039
:104EE00085E30E94B2028CB580618CBD8CB5806474
:104EF0008CBD61E084E30E94B20261E083E30E9422
:104F0000B2028091B0058F5F8093B005FFBE8091A3
:104F10009212909193128F3F980709F49FC02091AD
:104F20009412309195122F3F320709F497C08217DF
:104F3000930741F061E00E94B20261E08091941217
:104F40000E94B20280919212909193122091941239
:104F5000309195128217930719F060E00E946D025C
:104F600081E00E949B0265E070E080E090E00E949A
:104F7000F5036FE584E00E94171D85E590E0A0E051
:104F8000B0E08093A8129093A912A093AA12B093B4
:104F9000AB1267E086E00E94171D8DE10E94051D9F
:104FA000F82E0E945F1D8DE10E94051D91E0F81210
:104FB00090E09093A212882341F0F81202C00E9460
:104FC0005F1D60E08DE10E94171D1092A41260E049
:104FD0008CE10E94171D1092A6126FE381E00E94DF
:104FE000171D63E082E00E94171D80E280939B12F0
:104FF00021E1F22E60919B128F2D0E94171DF394D8
:1050000087E1F812F7CF63E083E00E94171D85E087
:105010008093A5126CE40E94171D60E787E00E9450
:10502000171D0E94DD1C82EE0E946E0580939A126D
:105030000E94AF020E94DD1C81EE0E946E058093EB
:105040009A120E94AF026CE080E00E94171D80E07F
:105050000E94051D81FFD9C08093A11281EE8D8B26
:105060001E8A1F8A188E198E1A8E1B8E1C8EE5EED4
:10507000F0E084914091A512BE016B5E7F4F0E94CB
:105080003F1D81E00E942A1D82EE8D8F1E8E1F8E95
:1050900018A219A21AA21BA21CA2E6EEF0E08491AB
:1050A00041E0BE01635E7F4F0E943F1D82E00E948F
:1050B0002A1D6CE685E00E94171D63E384E00E94D0
:1050C000171D6FE381E00E94171D8CECE82E83E032
:1050D000F82E98EDC92E93E0D92E61E0F701819169
:1050E0007F010E94B202CE14DF04B9F781E090E0A4
:1050F000A0E0B0E089839A83AB83BC839E838D83D9
:1051000098878F832AE530E0388B2F879C8B8B8B99
:1051100084E090E09A8B898B8AE090E09A87898777
:105120009C878B879E878D872DB73EB72451310989
:105130000FB6F8943EBF0FBE2DBFADB7BEB71196E8
:1051400084E1F80101900D928A95E1F70E94F91827
:1051500082E090E0A0E0B0E089839A83AB83BC83D7
:105160009E838D8382ED90E09A8789878DB79EB765
:1051700044970FB6F8949EBF0FBE8DBFADB7BEB7B4
:10518000119684E1F80101900D928A95E1F70E9451
:10519000F9180FB6F894DEBF0FBECDBF0E94D01F26
:1051A0008FE195E00E94D71A8091B6129091B712C4
:1051B000009711F48AEB92E19801281B390BC90181
:1051C0000E94CB1980EB94E00E94E91960ED77E032
:1051D00080E090E00E94F503A4960FB6F894DEBF3D
:1051E0000FBECDBFDF91CF911F910F91FF90EF9038
:1051F000DF90CF90BF90AF909F908F907F906F90F7
:105200005F904F9008951486E3CD682F626060939D
:10521000A11280E00E94171D8BE19EE40197F1F737
:105220001DCF86E0F81609F43FCE1092800088E08A
:105230008093810080918100F82AF0928100309360
:1052400089002093880080916F00826080936F00B6
:1052500061E08091F3020E94B20260E08BE00E9464
:10526000B20261E08AE00E94B20260E08AE00E943D
:105270006D021ACEFC0180819181009711F00C948F
:105280005E3D08950F931F93CF93DF938C01D0E081
:10529000C0E0F8018081918126813781C217D30750
:1052A00070F49E01220F331F820F931FFC01808137
:1052B0009181009711F00E945E3D2196EACF009700
:1052C00031F0DF91CF911F910F910C945E3DDF91F2
:1052D000CF911F910F910895CF93DF93FC01C0816F
:1052E000D1818A859B8501979B878A87892B51F479
:1052F000209741F0CE010E944229CE01DF91CF914B
:105300000C945E3DDF91CF910895EF92FF920F9341
:105310001F93CF93DF938C017B01DB01ED91FC9117
:1053200082859385019693878287F801C081D18118
:105330008A859B8501979B878A87892B41F42097D3
:1053400031F0CE010E944229CE010E945E3DD7017C
:105350008D919C91F80191838083C801DF91CF9159
:105360001F910F91FF90EF9008957F928F929F92DF
:10537000AF92BF92CF92DF92EF92FF920F931F9363
:10538000CF93DF93CDB7DEB7EDB6FEB60E9427040C
:10539000AB01BC018091230690912406A0912506C3
:1053A000B0912606481759076A077B0748F04496CC
:1053B000A11DB11D481759076A077B0708F493C060
:1053C0004093230650932406609325067093260687
:1053D000E091F908F091FA08DF0110E0109761F010
:1053E00012968D919C911397892B09F01F5F169649
:1053F0000D90BC91A02DF2CF112309F474C0812F20
:1054000090E0880F991F2DB73EB7281B390B0FB6B8
:10541000F8943EBF0FBE2DBF8DB79EB701966C01AD
:1054200020E0309789F042815381452B49F0A22F2B
:10543000B0E0AA0FBB1FAC0DBD1DED93FC932F5F19
:105440000680F781E02DEDCF5601F601712C01E0C9
:105450000117D9F08281938121913191DC0112965B
:105460006D917C91D90112964D915C9164177507ED
:1054700050F4318320839F0122503109D9018D934B
:105480009C93772473940F5FE3CF7110DDCF00E01E
:10549000D601ED91FD916D0161E080810E946D0268
:1054A0000F5F1013F5CF06B5D12CC12C802E912C97
:1054B000D501ED91FD915D0182819381880D991D4A
:1054C000202F06B5021708F4D394202FA601400F11
:1054D000511D84179507A8F760E080810E946D0236
:1054E00073941711E5CF0FB6F894FEBE0FBEEDBE54
:1054F0000FB6F894FEBE0FBEEDBEDF91CF911F91A7
:105500000F91FF90EF90DF90CF90BF90AF909F9062
:105510008F907F9008954F925F926F927F928F92BB
:105520009F92AF92BF92CF92DF92EF92FF920F9332
:105530001F93CF93DF938C014CE1A42EB12CC12C8F
:10554000D12C50EAE52E51E4F52EE3E34E2E542CF7
:10555000642CE0E47E2E892B89F49BE1A92EB12CEA
:10556000C12CD12C20E2E22E22E4F22E3AE9432E85
:1055700039E9532E39E1632E30E4732E10939B0AE0
:1055800000939A0A70939D0A60939C0ACEE9DAE030
:105590008AE9882E8AE0982EC701B6010E945F40F2
:1055A00050E040E0C5010E947D1B0E94B5290E9489
:1055B000D51889939993A3019201C701B6010E945E
:1055C000813F6B017C018BE0C230D80729F750E0A6
:1055D00040E06AE570E0C5010E947D1B82E395E032
:1055E000012B11F48EE295E00E94D71AF40181910B
:1055F00091914F010E94CB1985EA94E00E94D71A3D
:10560000C815D90599F780EB94E0DF91CF911F91F0
:105610000F91FF90EF90DF90CF90BF90AF909F9051
:105620008F907F906F905F904F900C94E91985ED6B
:105630008093BC008091570690915806A09159061E
:10564000B0915A060796A11DB11D23E0B695A79506
:10565000979587952A95D1F72091BC0024FD03C02A
:105660001092550608954091570650915806609142
:10567000590670915A06452B462B472B69F3009724
:10568000A105B10541F02AE22A95F1F700C0019782
:10569000A109B109E1CF809156060C9480064F9282
:1056A0005F926F927F928F929F92AF92BF92CF92B2
:1056B000DF92EF92FF920F931F93CF93DF93EC0152
:1056C0004B017A0169017B836A837F836E835D83EB
:1056D0004C835987488781E090E09B878A878FEFCA
:1056E0009FEF611520E4720738F4CB01880F991FF2
:1056F000009711F481E090E00E94C23C8883998376
:105700003701660C771C660C771C9301E114E0E20C
:10571000FE0610F02FEF3FEF522E432E232B19F4ED
:1057200055245394412CEC015C0110E000E0081575
:105730001905C1F0852D942D0E94C23CF50181937D
:1057400091935F01C114D10451F0F801EE0FFF1FD6
:10575000EC0DFD1D60817181A3010E9416420F5F57
:105760001F4FE5CFCD28E9F430E020E00217130702
:10577000C1F090E080E0E816F90679F0AC01440F42
:10578000551F440F551FE881F981E40FF51F108262
:105790001182128213820196EECF2F5F3F4F229625
:1057A000E5CFDF91CF911F910F91FF90EF90DF90A8
:1057B000CF90BF90AF909F908F907F906F905F90B1
:1057C0004F9008958F929F92AF92BF92CF92DF92A7
:1057D000EF92FF920F931F93CF93DF938C01EB0116
:1057E000DC01ED91FC91E280F3806E157F0528F4D9
:1057F000A480B580A114B10421F481E090E00E945E
:105800002642828593858230910594F0C080D180B4
:105810000197938782878CE090E00E94C23C4C0104
:105820009601A501B7010E944F2BF8019182808259
:10583000D801ED91FC91CC0FDD1F80819181C80FC3
:10584000D91F88819981DF91CF911F910F91FF908E
:10585000EF90DF90CF90BF90AF909F908F90089582
:10586000CF92DF92EF92FF920F931F93CF93DF932C
:105870008C017B016A018CE090E00E94C23CEC014B
:1058800030E020E0A601B7010E944F2BF801D18340
:10589000C083DF91CF911F910F91FF90EF90DF9028
:1058A000CF9008950F931F93CF93DF93EC018A015C
:1058B00041E050E062E070E00E94302CB801CE017F
:1058C0000E948529CE01DF91CF911F910F910895FC
:1058D0004F925F926F927F928F929F92AF92BF9200
:1058E000CF92DF92EF92FF920F931F93CF93DF93AC
:1058F000EC017A01FB016281738141E050E00E947A
:10590000302C10E000E0B801C7010E94E22BFC013E
:105910004080518062807380B8016E5F7F4FC70105
:105920000E94E22BFC0180809180A280B380B801AC
:10593000CE010E94E22B6C01A5019401C301B201CA
:105940000E94813FF60160837183828393830130DB
:10595000110519F001E010E0D6CF62E070E0C70158
:105960000E94E22B8C0162E070E0CE010E94E22BEB
:10597000F8014081518162817381FC014083518330
:105980006283738363E070E0C7010E94E22B8C01A5
:1059900063E070E0CE010E94E22BF801408151816A
:1059A00062817381FC014083518362837383CE01E2
:1059B000DF91CF911F910F91FF90EF90DF90CF90EB
:1059C000BF90AF909F908F907F906F905F904F901F
:1059D00008950F931F93CF93DF93EC018A0141E069
:1059E00050E061E070E00E94302CB801CE010E94CE
:1059F0008529CE01DF91CF911F910F9108954F928C
:105A00005F926F927F928F929F92AF92BF92EF922E
:105A1000FF920F931F93CF93DF93EC018A01FB0159
:105A20006281738141E050E00E94302C70E060E0C0
:105A3000C8010E94E22BFC0140805180628073808B
:105A400061E070E0C8010E94E22BFC01808091803F
:105A5000A280B38070E060E0CE010E94E22B7C0166
:105A6000A5019401C301B2010E94813FF701608347
:105A700071838283938361E070E0C8010E94E22B0E
:105A80008C0161E070E0CE010E94E22BF8014081C0
:105A9000518162817381FC014083518362837383EE
:105AA000CE01DF91CF911F910F91FF90EF90BF90AA
:105AB000AF909F908F907F906F905F904F900895E0
:105AC0001F920F920FB60F9211242F933F938F9333
:105AD0009F93AF93BF938091020990910309A09186
