:100000000C9404010C94F70C0C94CC0C0C94A10CE3
:100010000C94760C0C944B0C0C94200C0C94F50B5B
:100020000C94CA0B0C942E010C942E010C942E01EE
:100030000C942E010C942E010C942E010C942E0184
:100040000C942E010C94AC0D0C942E010C942E01EA
:100050000C942E010C942E010C942E010C94800B08
:100060000C942E010C944A0B0C94200B0C942E0132
:100070000C942E010C942E010C942E010C942E0144
:100080000C947E0D0C942E010C942E010C942E01D8
:100090000C942E010C942E010C942E010C942E0124
:1000A0000C942E010C942E010C94500D0C942E01E6
:1000B0000C942E010C942E010C942E010C94220D04
:1000C0000C942E010C942E010C942E010C942E01F4
:1000D0000C942E010C942E010C942E010C942E01E4
:1000E0000C942E0100002100240027002A002D007E
:1000F0003000330001010000040107010A01000083
:100100002200250028002B002E00310034000201BF
:100110000000050108010B0100002000230026005B
:1001200029002C002F00320000010000030106010D
:10013000090105050505070508080808020202026D
:100140000A0A080804040404010101010101010173
:100150000303030303030303040707070C0C0C0C3E
:100160000C0C0C0C02020202060606060606060627
:100170000B0B0B0B0B0B0B0B0102102020080810B4
:100180002040102040800201020108040201010207
:1001900004081020408080402010080402018004E0
:1001A000020180402010080402010804020101023B
:1001B0000408102040800102040810204080000044
:1001C0000A0B02090C0D0E080703040100000000D1
:1001D000000000000000000000000000000000001F
:1001E00000000000000000000000121110000000DC
:1001F00000000000000000000000000000000000FF
:1002000000000000DA0D821511241FBECFEFD1E2ED
:10021000DEBFCDBF13E0A0E0B2E0E4ECF5E300E028
:100220000BBF02C007900D92A03BB107D9F729E0A0
:10023000A0EBB3E001C01D92A739B207E1F711E0CE
:10024000C3E0D1E004C02197FE010E94A218C23091
:10025000D107C9F70E946F0E0C94D51A0C940000B8
:10026000E1ECF7E0A089B18982E08C93A485B585A3
:100270001C92A685B78580E18C93108EA489B589E0
:1002800086E08C93A289B3898C9180618C93A2893A
:10029000B3898C9188608C93A289B3898C91806892
:1002A0008C930288F389E02D80818F7D808308956F
:1002B000AF92BF92CF92DF92EF92FF920F931F9374
:1002C000CF93DF936C017B018B01040F151FEB01B2
:1002D0005E01AE18BF08C017D10759F06991D60169
:1002E000ED91FC910190F081E02DC6010995892BDB
:1002F00079F7C501DF91CF911F910F91FF90EF909A
:10030000DF90CF90BF90AF900895FC01538D448D46
:10031000252F30E0842F90E0821B930B541710F0B0
:10032000CF96089501970895FC01918D828D9817BD
:1003300061F0A28DAE0FBF2FB11D5D968C91928D95
:100340009F5F9F73928F90E008958FEF9FEF0895C6
:10035000FC01918D828D981731F0828DE80FF11D8F
:10036000858D90E008958FEF9FEF0895FC01918DAA
:10037000228D892F90E0805C9F4F821B91098F73A3
:100380009927089581EC97E00E94B60121E0892B1E
:1003900009F420E0822F0895FC01A48DA80FB92F45
:1003A000B11DA35ABF4F2C91848D90E001968F739D
:1003B0009927848FA689B7892C93A089B1898C91BC
:1003C000837080648C93938D848D981306C002880B
:1003D000F389E02D80818F7D80830895EF92FF92D5
:1003E0000F931F93CF93DF93EC0181E0888F9B8D58
:1003F0008C8D98131AC0E889F989808185FF15C012
:100400009FB7F894EE89FF896083E889F989808134
:100410008370806480839FBF81E090E0DF91CF9103
:100420001F910F91FF90EF900895F62E0B8D10E025
:100430000F5F1F4F0F731127E02E8C8D8E110CC094
:100440000FB607FCFACFE889F989808185FFF5CFDF
:10045000CE010E94CC01F1CFEB8DEC0FFD2FF11DF1
:10046000E35AFF4FF0829FB7F8940B8FEA89FB891C
:1004700080818062CFCFCF93DF93EC01888D88237A
:10048000B9F0AA89BB89E889F9898C9185FD03C0F7
:10049000808186FD0DC00FB607FCF7CF8C9185FFDC
:1004A000F2CF808185FFEDCFCE010E94CC01E9CF54
:1004B000DF91CF91089580E090E0892B29F00E9490
:1004C000C20181110E94000080E090E0892B49F078
:1004D00080E090E0892B29F00E94000081110E94A9
:1004E000000080E090E0892B49F080E090E0892BCB
:1004F00029F00E94000081110E94000080E090E03D
:10050000892B49F080E090E0892B29F00E940000BF
:1005100081110C94000008958150823108F058C078
:10052000E82FF0E0EA56FD4F0C94A218B602BA028A
:10053000A802AE02B202E802BD02C302C702CD02A7
:10054000D102D502DB02DF02E802E302E902ED029A
:10055000809180008F778093800008958091800043
:100560008F7DF9CF80918000877FF5CF84B58F771D
:1005700084BD089584B58F7DFBCF8091B0008F77C7
:100580008093B00008958091B0008F7DF9CF809165
:1005900090008F77809390000895809190008F7DD8
:1005A000F9CF80919000877FF5CF8091A0008F7761
:1005B0008093A00008958091A0008F7DF9CF809155
:1005C000A000877FF5CF809120018F778093200155
:1005D0000895809120018F7DF9CF80912001877F40
:1005E000F5CFCF93DF93282F30E0F901E254FE4F8F
:1005F0008491F901E858FE4FD491F901EE5CFE4F69
:10060000C491CC23A1F081110E948C02EC2FF0E068
:10061000EE0FFF1FE85EFE4FA591B491EC91ED2324
:1006200081E090E009F480E0DF91CF91089580E0CF
:1006300090E0FACF1F93CF93DF93282F30E0F9019A
:10064000E254FE4F8491F901E858FE4FD491F9012C
:10065000EE5CFE4FC491CC23A9F0162F81110E94AD
:100660008C02EC2FF0E0EE0FFF1FE250FF4FA59140
:10067000B4918FB7F894EC91111108C0D095DE2396
:10068000DC938FBFDF91CF911F910895DE2BF8CFC0
:10069000CF93DF9390E0FC01E858FE4F24918E5CED
:1006A0009E4FFC0184918823D1F090E0880F991F20
:1006B000FC01EC51FF4FA591B491FC01E250FF4FBA
:1006C000C591D49161110EC09FB7F8948C91E22F1F
:1006D000E0958E238C932881E223E8839FBFDF91EE
:1006E000CF9108958FB7F894EC91E22BEC938FBFE4
:1006F000F6CFCF93DF93EC0161E08AE00E944803DC
:10070000209731F460E08AE0DF91CF910C941A03D6
:10071000CF3FD10511F461E0F6CFE8ECF1E0E491D0
:10072000E150E23108F0B0C0F0E0E756FC4F0C9425
:10073000A218AB03B203B703C103CB034404D50330
:10074000DD03E503EF03F903030412041C0444046E
:10075000260430043A0484B5806884BDC7BDDF91A7
:10076000CF91089584B5806284BDC8BDF8CF8091D3
:100770008000806880938000D0938900C0938800B7
:10078000EECF80918000806280938000D0938B00B8
:10079000C0938A00E4CF80918000886080938000BD
:1007A000D0938D00C0938C00DACF8091B000806828
:1007B0008093B000C093B300D2CF8091B00080622C
:1007C0008093B000C093B400CACF8091900080683D
:1007D00080939000D0939900C0939800C0CF8091EF
:1007E0009000806280939000D0939B00C0939A0009
:1007F000B6CF80919000886080939000D0939D0048
:10080000C0939C00ACCF8091A00080688093A00032
:100810008091A0008F7B8093A000D093A900C0930B
:10082000A8009DCF8091A00080628093A000D0930B
:10083000AB00C093AA0093CF8091A0008860809302
:10084000A000D093AD00C093AC0089CF809120016F
:10085000806880932001D0932901C09328017FCF25
:1008600080912001806280932001D0932B01C0935E
:100870002A0175CF80912001886080932001D09358
:100880002D01C0932C016BCFC038D1050CF043CFA4
:1008900039CF863308F0865320917B00982F9870CB
:1008A000277F922B90937B008770806480937C00DD
:1008B00080917A00806480937A0080917A0086FD2E
:1008C000FCCF809178009091790008953FB7F8941B
:1008D0008091BD039091BE03A091BF03B091C0036E
:1008E00026B5A89B05C02F3F19F00196A11DB11D8B
:1008F0003FBFBA2FA92F982F8827BC01CD01620FC7
:10090000711D811D911D42E0660F771F881F991F81
:100910004A95D1F708958F929F92AF92BF92CF924E
:10092000DF92EF92FF924B015C010E9466046B0123
:100930007C010E9466046C197D098E099F09683E3E
:10094000734081059105A8F321E0821A9108A1085E
:10095000B10888EEC80E83E0D81EE11CF11C81149A
:100960009104A104B10429F7FF90EF90DF90CF909C
:10097000BF90AF909F908F9008952FB7F89460919B
:10098000B9037091BA038091BB039091BC032FBF50
:1009900008950895AF92BF92CF92DF92EF92FF92A7
:1009A0000F931F93CF93DF936B017A01EC01CC542B
:1009B000DC4F28813CE0389F8001399F100D1124C5
:1009C000A0903409B12C27FF1FC0FB0111821082B7
:1009D00088818F5F888388819801280F311D87FD6A
:1009E0003A95F6012A153B051CF488818C30C4F138
:1009F00080819181049680349C4908F473C0F6018B
:100A000080819181049670C088819801280F311DE2
:100A100087FD3A952A153B05DCF68881A801480F29
:100A2000511D87FD5A95FA01EE0FFF1FE40FF51FC8
:100A3000EC55F74F808186FFCBCF8881F801E80F16
:100A4000F11D87FDFA95CF01EE0FFF1FE80FF91F8B
:100A5000EC55F74F808160E08F730E941A03B8CF86
:100A6000808191812881A801420F511D27FD5A954F
:100A70009A01FA01EE0FFF1FE20FF31FEC55F74F3B
:100A800021813281820F931FF701918380838881B6
:100A90009801280F311D87FD3A95F901EE0FFF1FD0
:100AA000E20FF31FEC55F74F808186FF22C088814B
:100AB000080F111D87FD1A95F801EE0FFF1FE00FBB
:100AC000F11FEC55F74F808161E08F73DF91CF917B
:100AD0001F910F91FF90EF90DF90CF90BF90AF905C
:100AE0000C941A0380E49CE9F701918380838FEFD3
:100AF0008883DF91CF911F910F91FF90EF90DF904E
:100B0000CF90BF90AF90089584319105F1F034F407
:100B100082319105B9F0439761F0089587319105CD
:100B200059F08831910559F04697B9F789E090E07E
:100B300008958CE090E008958BE090E0089588E0BF
:100B400090E008958DE090E008958FE090E00895A2
:100B50008631910514F48251089583510895CF92FE
:100B6000DF92EF92FF920F931F93CF93DF937C015D
:100B70006B01EA0141305105F1F4621773074CF43F
:100B80000E94A805E82FF0E0E05FFD4F80818536E8
:100B900090F50C151D05CCF5C7010E94A805E82F9E
:100BA000F0E0E05FFD4FC1E0D0E08081843600F1ED
:100BB000D0E0C0E01DC0621773075CF40E94A80576
:100BC000E82FF0E0E05FFD4F8081C1E0D0E08436A7
:100BD00090F00C151D05CCF4C7010E94A805E82F64
:100BE000F0E0E05FFD4FC1E0D0E08081853600F3AA
:100BF000D195C195D109CE01DF91CF911F910F9170
:100C0000FF90EF90DF90CF900895D0E0C0E0F3CF59
:100C10004F925F926F927F92AF92BF92CF92DF928C
:100C2000EF92FF920F931F93CF93DF937C018B0181
:100C3000452BE9F4029789319105C8F4409707974D
:100C400020F485E1E816F10409F5EEEFEE0D94E0ED
:100C5000E99FF0011124E454FD4F838192819017A4
:100C6000110609F024F4D12C80171106BCF4DF9191
:100C7000CF911F910F91FF90EF90DF90CF90BF9099
:100C8000AF907F906F905F904F90089577FD6AC00E
:100C9000643B71050CF066C0DD24D394EEEFEE0DDD
:100CA0008E2F90E0FC01EE0FFF1FE80FF91FE75CAD
:100CB000F64FC0808FE28C1508F451C0828148E560
:100CC000A42E42E0B42EA81AB10887FDB394AA0C52
:100CD000BB1CAA0CBB1C8181C8E8D0E0C81BD10991
:100CE00087FDD395CC0FDD1FCC0FDD1F2E010D2E00
:100CF000000C66087708D801053B110514F0A4EB39
:100D0000B0E095010B2C000C440B550B2419350950
:100D1000460957090E94511724EB30E040E050E0AB
:100D20000E942717420E531E641E751E4C165D0648
:100D30002CF0E5014A145B040CF4E2012297CC0F7D
:100D4000DD1F2FB7F8948C2D90E0FC01EE0FFF1FF4
:100D5000E80FF91FEC55F74FD283C1832FBFDD2079
:100D600009F485CFC7010E94A8059DE0899FF00185
:100D70001124E85EFD4F028782818017110609F079
:100D800076CF8FEF8387148672CF0F931F93CF9305
:100D9000DF938C010E94A8059DE0899FF00111243A
:100DA000E85EFD4FC281D0E0C8014297079748F442
:100DB0000531110531F050E040E0BE01C8010E944C
:100DC0000806CE01DF91CF911F910F9108951F93D7
:100DD000CF93DF9310922506C8E1D2E01FEF6A811E
:100DE00070E0888150E040E090E00E9408068A812F
:100DF0008A87888190E00E9484050E94490499872F
:100E000088871B872D9682E0C636D80741F7CCEB42
:100E1000D2E0698170E0888150E040E090E00E947B
:100E20000806249682E0CC3FD80799F7DF91CF914E
:100E30001F910895CF93DF93C0911106D0911206B0
:100E4000C233D1055CF0CE010E94790362E070E00C
:100E500080E090E00E948B042197F2CF90E080E048
:100E60000E94790360E08AE00E941A031092100643
:100E700010920F06DF91CF9108958F929F92AF92BB
:100E8000BF92CF92DF92EF92FF920F931F93CF9377
:100E9000DF93C82FD0E08E01000F111F000F111F2C
:100EA000F801ED5EF94FC080D180E280F3801C1420
:100EB0001D041E041F040CF04DC00E9466040E9415
:100EC000E6154B015C01C701B6010E94E8159B01C4
:100ED000AC01C501B4010E94681720E030E048E68B
:100EE00052E40E94D5176B017C0120E030E844E811
:100EF00053E40E947D181816D4F120E030E049E355
:100F000053E4C701B6010E94E11587FD30C020E01F
:100F100030E049E353E4C701B6010E9468172AE9AB
:100F200039E949E95FE30E94471620E030E040E8F4
:100F300050E40E946917CC0FDD1FC95FD94F0E9492
:100F4000471879836883F801ED5EF94F10821182AA
:100F500012821382DF91CF911F910F91FF90EF903A
:100F6000DF90CF90BF90AF909F908F90089560E0FA
:100F700070E080E89FEBDFCF80E00C943D0781E0DC
:100F80000C943D0782E00C943D0783E00C943D07F0
:100F90008091B0039091B103A091B203B091B303DB
:100FA0000196A11DB11D8093B0039093B103A0934E
:100FB000B203B093B3030895FC0101900020E9F758
:100FC0003197AF01481B590BBC0181EC97E00C94A1
:100FD00058018F929F92AF92BF920F931F93CF931E
:100FE000DF93CDB7DEB7A1970FB6F894DEBF0FBE83
:100FF000CDBF19A2423008F44AE08E010F5D1F4FA9
:10100000842E912CB12CA12CA50194010E940517CE
:10101000E62FB901CA01EA30F4F4E05DD801EE939D
:101020008D01232B242B252B79F790E080E010975E
:1010300019F0CD010E94DC07A1960FB6F894DEBF2F
:101040000FBECDBFDF91CF911F910F91BF90AF9099
:101050009F908F900895E95CE1CFCF92DF92EF925D
:10106000FF92CF93DF936B017C016DE281EC97E0FF
:101070000E94EE01EC0166277727CB016C197D09F0
:101080008E099F094AE00E94E9078C0F9D1FDF919E
:10109000CF91FF90EF90DF90CF9008956091B003D3
:1010A0007091B1038091B2039091B30397FD0C94BA
:1010B0002D084AE00C94E907BC01990F880B990BA5
:1010C00097FD0C942D084AE00C94E9070C94DC077A
:1010D000CF93DF93C2E1D0E0CE010E9484050E944D
:1010E00049040E945C082196C931D10519F4DF91A9
:1010F000CF91089582E193E00E946608EDCF0F93AF
:101100001F93CF93DF9307E016E0D0E0C0E0F80133
:10111000819191918F010E945C082196C430D10584
:1011200029F4DF91CF911F910F91089582E193E00F
:101130000E946608ECCFCF93DF930E945C08EC011D
:1011400084E193E00E94DC078C0F9D1FDF91CF911B
:101150000895CF93DF930E94DC07EC0184E193E0D4
:101160000E94DC078C0F9D1FDF91CF910895FC0139
:1011700080819181009711F00C945B1908950F9371
:101180001F93CF93DF93CDB7DEB7E2970FB6F894F6
:10119000DEBF0FBECDBF8A0120916D0230916E027D
:1011A0003A832983FE01339620E3DF011D922A95BD
:1011B000E9F7FC01EF5CF94F50819E012F5F3F4F33
:1011C000D901FD01E21BF30B561739F05D9301962F
:1011D000FC01EF5CF94F5081F4CFE20FF31F108256
:1011E000F80191838083C9010E948615E2960FB6AB
:1011F000F894DEBF0FBECDBFDF91CF911F910F914D
:101200000895EF92FF920F931F93CF93DF93EC011A
:101210007B018A0188819981009729F02A813B818D
:101220002417350788F4B8016F5F7F4F0E94E419D7
:10123000009791F0998388831B830A832C813D81D9
:10124000232B11F4FC0110821D830C83B7018881CC
:1012500099810E94CE1A0CC088819981009711F063
:101260000E945B19198218821D821C821B821A82BD
:10127000CE01DF91CF911F910F91FF90EF900895D4
:101280008F929F92AF92BF92CF92DF92EF92FF9296
:101290000F931F93CF93DF931092A0081092A10891
:1012A0001092A2081092A308109260081092610890
:1012B00010926208109263080E94BD046B017C01C9
:1012C0004B015C0188EB880E8BE0981EA11CB11CC1
:1012D0000E94BD046C157D058E059F0528F08616BD
:1012E0009706A806B906A0F768EE73E080E090E0E4
:1012F0000E948B040E9430010E94BD04609360082C
:1013000070936108809362089093630887E193E08B
:101310000E9466080E94BD046B017C014B015C01C8
:10132000EAE08E0E911CA11CB11C0E94BD046C153C
:101330007D058E059F0528F086169706A806B90636
:10134000A0F7C1E0C093740841E050E068E273E0A8
:101350008DE899E00E94010910922C0610922B064C
:101360001092250610922606C09366020E94BD04C4
:1013700060932706709328068093290690932A0687
:10138000C8EBD2E00CEF12E060E089910E944803C4
:1013900061E0F80181918F010E944803F2E0CC3BAB
:1013A000DF0791F760E082E00E94480388EC97E055
:1013B000909301028093000280916A008C7F81608B
:1013C00080936A00EC9A85EC97E0909305028093F5
:1013D0000402809169008C7F826080936900E89AA2
:1013E00082EC97E090930702809306028091690057
:1013F000837F886080936900E99A8FEB97E09093F0
:10140000090280930802809169008F7C806280933A
:101410006900EA9A8CEB97E090930B0280930A02A2
:10142000809169008F73806880936900EB9AC9E3AB
:10143000D9E0F12CE12C0CE012E089E1E816F1048E
:1014400009F459C0F701E156FD4FD0801D140CF08E
:1014500052C08881803308F04EC061E08D2D0E941B
:1014600048038881282F30E0F901EE0FFF1FE20FBB
:10147000F31FEC55F74F2D2D2F739081907C922BFD
:10148000908319821A82602F0E948218809FB00177
:10149000112430E020E0AB01420F531FFA01EE0FA0
:1014A000FF1FE40FF51FEC55F74F908196FD16C016
:1014B0002F5F3F4F2C30310571F7813009F05EC04E
:1014C0001092800010938100109285001092840089
:1014D000B19A80916F00826080936F00E8818E2FB7
:1014E00090E0FC01EE0FFF1FE80FF91FEC55F74FDE
:1014F000808180648083EFEFEE1AFE0A2396FAE182
:10150000EF16F10409F099CF61E080E10E944803F1
:1015100061E081E10E94480361E08FE00E9448039E
:1015200061E081E10E941A0361E080E10E941A03F8
:1015300061E08FE00E941A0360E086E20E944803A7
:1015400060E087E20E94480360E083E00E94480375
:101550000E94E70660ED77E080E090E00E948B0457
:10156000DF91CF911F910F91FF90EF90DF90CF907F
:10157000BF90AF909F908F900C943001823061F4B7
:101580001092900080939100109295001092940018
:1015900088BB80937100A2CF833061F41092A000C9
:1015A0001093A1001092A5001092A40019BB1093F3
:1015B000720094CF811192CF1092200110932101DB
:1015C00010922501109224011ABB1093730086CF4C
:1015D000009781F0FC0101900020E9F73197AF01FD
:1015E000481B590BBC018DE899E00E9401098DE868
:1015F00099E0089580918D0990918E09009711F0DE
:101600000E945B1910928E0910928D091092920916
:10161000109291091092900910928F09E8CFFC0165
:10162000118210821382128215821482FB010190B2
:101630000020E9F73197AF01461B570B0C940109C5
:101640001F920F920FB60F9211240BB60F922F9389
:101650003F934F935F936F937F938F939F93AF933A
:10166000BF93EF93FF9381EC97E00E94CC01FF9131
:10167000EF91BF91AF919F918F917F916F915F910A
:101680004F913F912F910F900BBE0F900FBE0F9077
:101690001F9018951F920F920FB60F9211240BB640
:1016A0000F922F938F939F93EF93FF93E091D10726
:1016B000F091D2078081E091D707F091D80782FDA1
:1016C0001DC090818091DA078F5F8F732091DB07B7
:1016D000821741F0E091DA07F0E0EF53F84F958F71
:1016E0008093DA07FF91EF919F918F912F910F9047
:1016F0000BBE0F900FBE0F901F9018958081F2CFF8
:101700001F920F920FB60F9211242F933F938F9336
:101710009F93AF93BF938091B9039091BA03A09127
:10172000BB03B091BC033091B80323E0230F2D37E6
:1017300058F50196A11DB11D2093B8038093B903FC
:101740009093BA03A093BB03B093BC038091BD03F5
:101750009091BE03A091BF03B091C0030196A11D5B
:10176000B11D8093BD039093BE03A093BF03B093BC
:10177000C003BF91AF919F918F913F912F910F9097
:101780000FBE0F901F90189526E8230F0296A11DFB
:10179000B11DD2CF1F920F920FB60F9211240BB62C
:1017A0000F922F933F934F935F936F937F938F93FA
:1017B0009F93AF93BF93EF93FF93E0910E02F0914D
:1017C0000F020995FF91EF91BF91AF919F918F917A
:1017D0007F916F915F914F913F912F910F900BBE31
:1017E0000F900FBE0F901F9018951F920F920FB67B
:1017F0000F9211240BB60F922F933F934F935F9349
:101800006F937F938F939F93AF93BF93EF93FF93C8
:10181000E0910C02F0910D020995FF91EF91BF91BB
:10182000AF919F918F917F916F915F914F913F9178
:101830002F910F900BBE0F900FBE0F901F90189519
:101840001F920F920FB60F9211240BB60F922F9387
:101850003F934F935F936F937F938F939F93AF9338
:10186000BF93EF93FF93E0910202F0910302099579
:10187000FF91EF91BF91AF919F918F917F916F9168
:101880005F914F913F912F910F900BBE0F900FBE24
:101890000F901F9018951F920F920FB60F92112460
:1018A0000BB60F922F933F934F935F936F937F935A
:1018B0008F939F93AF93BF93EF93FF93E0910002B9
:1018C000F09101020995FF91EF91BF91AF919F9126
:1018D0008F917F916F915F914F913F912F910F90D9
:1018E0000BBE0F900FBE0F901F9018951F920F9276
:1018F0000FB60F9211240BB60F922F933F934F9375
:101900005F936F937F938F939F93AF93BF93EF9367
:10191000FF93E0910A02F0910B020995FF91EF917C
:10192000BF91AF919F918F917F916F915F914F91F7
:101930003F912F910F900BBE0F900FBE0F901F90F5
:1019400018951F920F920FB60F9211240BB60F929B
:101950002F933F934F935F936F937F938F939F93B7
:10196000AF93BF93EF93FF93E0910802F0910902C8
:101970000995FF91EF91BF91AF919F918F917F91C9
:101980006F915F914F913F912F910F900BBE0F90F0
:101990000FBE0F901F9018951F920F920FB60F92C7
:1019A00011240BB60F922F933F934F935F936F9336
:1019B0007F938F939F93AF93BF93EF93FF93E091A8
:1019C0000602F09107020995FF91EF91BF91AF9147
:1019D0009F918F917F916F915F914F913F912F9147
:1019E0000F900BBE0F900FBE0F901F9018951F9277
:1019F0000F920FB60F9211240BB60F922F933F93B5
:101A00004F935F936F937F938F939F93AF93BF9306
:101A1000EF93FF93E0910402F09105020995FF9185
:101A2000EF91BF91AF919F918F917F916F915F9156
:101A30004F913F912F910F900BBE0F900FBE0F90C3
:101A40001F9018951F920F920FB60F9211240BB68C
:101A50000F922F933F934F935F936F937F938F9347
:101A60009F93AF93BF93EF93FF9348E251E064E2FB
:101A700071E090E080E00E94CA04FF91EF91BF9175
:101A8000AF919F918F917F916F915F914F913F9116
:101A90002F910F900BBE0F900FBE0F901F901895B7
:101AA0001F920F920FB60F9211240BB60F922F9325
:101AB0003F934F935F936F937F938F939F93AF93D6
:101AC000BF93EF93FF9348EA50E064EA70E083E04D
:101AD00090E00E94CA04FF91EF91BF91AF919F9156
:101AE0008F917F916F915F914F913F912F910F90C7
:101AF0000BBE0F900FBE0F901F9018951F920F9264
:101B00000FB60F9211240BB60F922F933F934F9362
:101B10005F936F937F938F939F93AF93BF93EF9355
:101B2000FF9348E950E064E970E082E090E00E94B1
:101B3000CA04FF91EF91BF91AF919F918F917F91D7
:101B40006F915F914F913F912F910F900BBE0F902E
:101B50000FBE0F901F9018951F920F920FB60F9205
:101B600011240BB60F922F933F934F935F936F9374
:101B70007F938F939F93AF93BF93EF93FF9348E827
:101B800050E064E870E081E090E00E94CA04FF91B8
:101B9000EF91BF91AF919F918F917F916F915F91E5
:101BA0004F913F912F910F900BBE0F900FBE0F9052
:101BB0001F9018951092C4071092C30788EE93E007
:101BC000A0E0B0E08093C5079093C607A093C70735
:101BD000B093C80784E093E09093C2078093C10755
:101BE00085EC90E09093CE078093CD0784EC90E055
:101BF0009093D0078093CF0780EC90E09093D2072A
:101C00008093D10781EC90E09093D4078093D30721
:101C100082EC90E09093D6078093D50786EC90E015
:101C20009093D8078093D7071092DA071092DB07BA
:101C30001092DC071092DD0710926408109265087C
:101C4000109266081092670810926808109269084E
:101C500010926A0810926B0810926C0810926D082E
:101C600010926E0810926F0810927008109271080E
:101C7000109272081092730866E173E08DE899E0A3
:101C80000E940F0BE9E3F9E02DE839E04FEF68EB34
:101C90007BE080913409803300F591E0980F9093B8
:101CA0003409808390E0DC01AA0FBB1FA80FB91F85
:101CB000AC55B74F12967C936E93119733962E17AF
:101CC0003F0739F70E94BD046093350970933609C8
:101CD000809337099093380908954083EFCFCF93CD
:101CE000DF93CDB7DEB72A970FB6F894DEBF0FBEED
:101CF000CDBF789484B5826084BD84B5816084BD95
:101D000085B5826085BD85B5816085BD80916E0099
:101D1000816080936E0010928100809181008260CA
:101D20008093810080918100816080938100809107
:101D300080008160809380008091B10084608093F6
:101D4000B1008091B00081608093B00080919100DB
:101D500082608093910080919100816080939100D6
:101D6000809190008160809390008091A1008260BA
:101D70008093A1008091A10081608093A100809157
:101D8000A00081608093A0008091210182608093F7
:101D900021018091210181608093210180912001A6
:101DA00081608093200180917A00846080937A0022
:101DB00080917A00826080937A0080917A008160BD
:101DC00080937A0080917A00806880937A001092E4
:101DD000C1000E94400922242A94322C2DE0822E38
:101DE00035E3932E0E94BD04672B682B692B09F401
:101DF000DFC00E94BD0400912D0610912E06209197
:101E00002F0630913006601771078207930708F498
:101E100018C100912D0610912E0620912F063091A9
:101E200030066B017C01C01AD10AE20AF30A97015D
:101E300086010A3F11052105310508F4C1C06093F0
:101E40002D0670932E0680932F069093300624EF74
:101E500031E040E050E020936C0830936D084093EF
:101E60006E0850936F0810927008109271081092CB
:101E70007208109273088091640890916508A0918F
:101E80006608B09167088093680890936908A093EA
:101E90006A08B0936B080E94BD0460936408709355
:101EA000650880936608909367080E94BD0460935C
:101EB00060087093610880936208909363080E94A1
:101EC000BD046B017C018AE293E00E9466084AE04F
:101ED00061E070E080E090E00E94E90781E393E038
:101EE0000E9466084AE0C701B6010E94E90783E341
:101EF00093E00E9466088091640890916508A09123
:101F00006608B0916708A7019601281B390B4A0B98
:101F10005B0BCA01B9014AE00E94E90783E393E041
:101F20000E94660860916408709165088091660857
:101F300090916708009168081091690820916A08DB
:101F400030916B08601B710B820B930B4AE00E946F
:101F5000E90785E393E00E9466080E94BD044AE019
:101F60000E94E90787E393E00E94A9080E94BD044C
:101F70002B013C017C016B0132E0C30ED11CE11C42
:101F8000F11C0E94BD04641575058605970528F0AF
:101F9000C616D706E806F906A0F70E94BD046093AE
:101FA000640870936508809366089093670808C07A
:101FB0000E94BD04623071058105910508F019CFBA
:101FC00081EC97E00E94B601181619060CF054C077
:101FD00081EC97E00E94940120912B0630912C0611
:101FE0002E3841E034070CF041C08D3049F3F9013F
:101FF000EF5CF94F8E3211F08A3061F51082109249
:102000002C0610922B0680913106803409F0DDC138
:10201000AE014F5F5F4F6AE381E090E00E94BF082E
:10202000FC0129813A81D901AF5CB94F90E080E091
:102030004D91442309F460C1840F911D47FD9A9589
:10204000F7CF60932D0670932E0680932F06909302
:102050003006DFCE2F5F3F4F30932C0620932B06A8
:1020600080832F5C394FD9011C92AACF1092310680
:1020700010922C0610922B060E94BD040091270698
:10208000109128062091290630912A06601B710BB9
:10209000820B930B693E73408105910508F44FC094
:1020A00060E084E00E941A0360E086E00E941A0368
:1020B00060E085E00E941A0360E087E00E941A0356
:1020C00062E070E080E090E00E948B040CEF12E090
:1020D000E3E1EE2EE6E0FE2E61E0F80181918F0152
:1020E0000E941A030E946604D7016D937D938D931D
:1020F0009D937D01603571058105910534F40E9441
:102100001A0761E080E10E941A03B3E000301B0768
:1021100019F76AE070E080E090E00E948B0460E0D4
:1021200084E00E941A0360E086E00E941A0360E0E7
:1021300085E00E941A0360E087E00E941A03809104
:102140002606882309F451C078E1E72E72E0F72EC5
:10215000B12CA12CF701C080D12CC6010E948405AE
:102160000E944904D70117964C91179750E0440FED
:10217000551F15960D911C911697040F151F139658
:102180002D913C911497241B350B11964C9150E0E6
:10219000BC01C6010E94AF05892B19F0BFEFAB1A35
:1021A000BB0AEDE0EE0EF11C46E6C42E42E0D42E52
:1021B000CE14DF0479F6AB2809F430C480912306ED
:1021C0009091240601969093240680932306809193
:1021D000230690912406039741F461E081E10E9477
:1021E0001A03109224061092230680916602882317
:1021F000A1F138E1E32E32E0F32ED701CC90D12CBF
:10220000C6010E9484050E944904F70105811681D8
:1022100023813481418150E0BC01C6010E94AF0599
:10222000892B19F0C6010E94C506FDE0EF0EF11CD6
:1022300023E7C22E22E0D22ECE14DF04F1F64AE0CC
:10224000BE016F5F7F4F80916102909162020E9498
:10225000A415CE0101960E94E80A0E94BD040091D7
:102260003509109136092091370930913809601BE2
:10227000710B820B930B633371058105910508F493
:10228000EFC380912506882309F4E0C398E1E92E85
:1022900092E0F92E55245394D7011A960C911A976F
:1022A00018966D907C901997CC90D12CC6010E9405
:1022B0008405182F0E9449045C01F70182810817E8
:1022C00009F4D7C3812F0E944904D70115960D91B7
:1022D0001C91169713962D913C91149711964C9141
:1022E00050E0BC01C6010E94AF05892B09F49BC3D5
:1022F000C6010E94C5069FC364E670E00E948E1866
:10230000E817F90709F061C0C9010296F901EE5C0E
:10231000F94FE081E153E63408F057C00E2E000C6F
:10232000FF0BEB56FE4E0C94A2185F146614E511D9
:10233000E511E511E511E511E511E511E511E511ED
:10234000E511E511E511E511E5112112E511F11194
:102350007D12E511E511E511E5113414E511E511E2
:102360000712E511E511E5114412E511EB131814FC
:10237000E5116D145214E511E511E5111412E51182
:10238000E511E511E511E511E5119B12DB11E811ED
:102390004E12E5115C12E511E5112F14E511E5115E
:1023A000E5111113E511FA11B312E511D8131B143D
:1023B0002414E5116812AE014F5F5F4F6BE30E947A
:1023C000BF08682F80E10E941A031092310654CE94
:1023D000AE014F5F5F4F6BE30E94BF08682F81E142
:1023E000F2CFAE014F5F5F4F6BE30E94BF08682FD3
:1023F0008FE0E9CFAE014F5F5F4F6BE30E94BF08F4
:1024000021E0892B09F420E020932506DECFAE01E0
:102410004F5F5F4F6BE30E94BF0821E0892B09F4F7
:1024200020E020932606D1CFAE014F5F5F4F6BE3D4
:102430000E94BF0821E0892B09F420E02093660266
:10244000C4CFAE014F5F5F4F6BE30E94BF087C01BA
:1024500010E000E00E151F0564F4C8010E94790326
:1024600065E070E080E090E00E948B040F5F1F4FFA
:10247000F1CFF0921206E092110681E090E0909385
:10248000100680930F06A1CF80910F069091100641
:10249000019709F09ACF0E941A0797CFAE014F5FBC
:1024A0005F4F6BE30E94BF0850E040E0BC018AE14F
:1024B00090E00E94080689CFAE014F5F5F4F6BE34B
:1024C0000E94BF0861E0892B09F460E089E07BCFBE
:1024D000AE014F5F5F4F6BE30E94BF0820910F0674
:1024E00030911006232B09F470CF009719F460E0A7
:1024F0008AE069CF0E94790368CFAE014F5F5F4FDA
:102500006BE30E94BF088C018EE393E00E94660893
:10251000C8010E945C0882E193E00E946608000FF7
:10252000111FF801E95FF94F808191810E945C08D9
:1025300082E493E086C1AE014F5F5F4F6BE30E9480
:10254000BF088C0184E493E00E946608C8010E94E1
:102550005C0882E193E00E946608C8010E9484053D
:102560000E944904E3CF8F5C994FFC011081AE01BA
:102570004F5F5F4F6CE2C90103960E94BF087C0168
:1025800089819A81AE014F5F5F4F6BE301960E9494
:10259000BF085C01173671F066246394712C123702
:1025A00059F4C7010E94A805889EF0011124E85E35
:1025B000FD4FA282712C612CC7014297079748F505
:1025C000F5E1EF16F10429F1C7010E94A805C82E14
:1025D000D12C8C9C80018D9C100D1124085E1D4F08
:1025E000D8011C961C92C7010E9484050E944904D0
:1025F000F80191878087F601E05FFD4FA082D80146
:1026000012968C9112978A151B0439F48FEF1B9642
:102610008C93A301B501C7014CCF8EEFF8018387DE
:10262000F8CFE0900506F0900606F3E6EF16F10409
:102630000CF0B9C0AE014F5F5F4F6CE7C901039664
:102640000E94BF089E9CF0019F9CF00D1124ED504C
:10265000FC4F808329813A812F5F3F4F1092C10345
:10266000F901EF5CF94F4081A1ECB3E0FD01E15CC1
:10267000F340C90101964C3739F04D93FC01EF5CF2
:10268000F94F40819C01F2CFEF53FC4F10823A8307
:102690002983AE014F5F5F4F6CE70E94BF089E9C8D
:1026A00090019F9C300D1124F901ED50FC4F928355
:1026B000818390E080E0FC01EE0FFF1FE20FF31F2B
:1026C000ED50FC4F3482238201968731910599F7B2
:1026D000B7E1CB2ED12C412C512C32019E9C5001C4
:1026E0009F9CB00C112489819A81AE014F5F5F4F8E
:1026F0006CE201960E94BF088C01092E000CAA0B07
:10270000BB0B480E591E6A1E7B1E89819A81AE0141
:102710004F5F5F4F6BE301960E94BF08F801EE0F19
:10272000FF1FEA0DFB1DED50FC4F94838383092EA0
:10273000000CAA0BBB0B480E591E6A1E7B1E21E023
:10274000C21AD10881F689819A81AE014F5F5F4F2D
:102750006CE701960E94BF088C01C301B20128EF0B
:102760003FE740E050E00E942717012E000C220BAB
:10277000330B601771078207930791F43FEFE31A59
:10278000F30AF0920606E092050688E493E00E94C0
:10279000660880910506909106060E949B0815CE5A
:1027A00081E593E0F4CF8DE593E00E9466080DCEBD
:1027B000AE014F5F5F4F6BE30E94BF08909317021B
:1027C0008093160280E793E00E94660880911602CB
:1027D00090911702E2CFAE014F5F5F4F6CE2C901EB
:1027E00003960E94BF088C0189819A81AE014F5FD8
:1027F0005F4F6BE301960E94BF087C01C8014297BE
:10280000079708F0E2CD0531110509F4DECDC801C6
:102810000E94C506D82EC8010E94A805889EF00116
:102820001124E85EFD4FD2861486F186E086CDCD78
:102830000E944009CACD309217022092160289E701
:1028400093E00E94A908C1CD1092060610920506D9
:10285000309217022092160282E893E0F2CF0E9493
:10286000E7068CE893E0EDCF1092C103FC01EF5C2A
:10287000F94F2081A1ECB3E0FD01E15CF3402B3383
:1028800039F02D930196FC01EF5CF94F2081F4CFD4
:10289000EF53FC4F10829A83898381EC93E00E946E
:1028A000E80A93CDAE014F5F5F4F6BE30E94BF0814
:1028B00087E993E00E9466080E944E0839CE8BE9B2
:1028C00093E00E9466080E947F0832CE8FE993E071
:1028D0000E9466080E9468082BCE83EA93E00E945B
:1028E00066080E94680882E193E00E9466080E94E0
:1028F0007F0882E193E00E9466080E944E0882E110
:1029000093E00E94660886E20E94F10221E030E036
:10291000019711F030E020E0C9010E945C0887E2D5
:102920000E94F10221E030E0019711F030E020E058
:10293000C9010E945C0883E00E94F10221E030E0BE
:10294000019711F030E020E0C9010E945C0882E1AB
:1029500093E00E946608F8E1EF2EF2E0FF2E10E00F
:1029600000E0D7011A966C9170E090E080E04AE0B8
:102970000E94E9070F5F1F4F82E193E006301105C7
:1029800009F046C00E94660881E10E94F10221E040
:1029900030E0019711F030E020E0C9010E945C08AE
:1029A00080E10E94F10221E030E0019711F030E077
:1029B00020E0C9010E945C088FE00E94F10221E042
:1029C00030E0019711F030E020E0C9010E945C087E
:1029D0008091250690E00E945C088091260690E098
:1029E0000E945C088091660290E00E945C0882E18F
:1029F00093E00E946608409191095091920960917C
:102A00008D0970918E0981EC97E00E94580190CD5C
:102A10000E9466084DE0E40EF11CA3CF109224063C
:102A200010922306D4CBF70183858130E1F46A1438
:102A30007B040CF45DCCFDE0EF0EF11C83E7C82EA7
:102A400082E0D82ECE14DF0409F026CC0E94BD040B
:102A5000609335097093360980933709909338094C
:102A60000E945B02BFC98111E6CFA614B7041CF710
:102A70003FCCC3018A199B0997FF03C091958195AB
:102A80009109D70117962C91179728171906BCF5AD
:102A90001C968C911C978F5F1C968C931C9784308E
:102AA00051F611968C91A614B704C4F465E070E059
:102AB000813011F06FEA70E050E040E0C6010E9402
:102AC0000806F701538667EA73E0CE0101960E947B
:102AD0000F0BCE0101960E94B708ADCF6FEA70E0F0
:102AE000813011F065E070E050E040E0C6010E94E6
:102AF0000806D7011B961C926BEA73E0E6CFF7013C
:102B0000148699CF8DE899E00C94B708FC018827CA
:102B10009927E89421912032E9F3293010F02E30E2
:102B2000C8F32B3241F02D3239F4689404C00E946E
:102B3000AF15820F911D219120532A30C0F31EF44E
:102B4000909581959F4F0895BB274A3031F4992382
:102B500022F4BDE2909581959F4F0C94B8157AE0D0
:102B6000979F902D879F802D910D11240895BB274D
:102B7000FB015527AA27880F991FAA1FA41710F039
:102B8000A41B83955051B9F7A05DAA3308F0A95D45
:102B9000A193009779F7B111B1931192CB010C94E5
:102BA000D115DC01FC01672F71917723E1F7329792
:102BB00004C07C916D9370836291AE17BF07C8F318
:102BC00008950E94231608F481E00895E89409C04E
:102BD00097FB3EF490958095709561957F4F8F4F50
:102BE0009F4F9923A9F0F92F96E9BB279395F69566
:102BF000879577956795B795F111F8CFFAF4BB0FE4
:102C000011F460FF1BC06F5F7F4F8F4F9F4F16C047
:102C1000882311F096E911C0772321F09EE8872FD1
:102C2000762F05C0662371F096E8862F70E060E08D
:102C30002AF09A95660F771F881FDAF7880F969506
:102C4000879597F90895990F0008550FAA0BE0E8AA
:102C5000FEEF16161706E807F907C0F0121613065E
:102C6000E407F50798F0621B730B840B950B39F49E
:102C70000A2661F0232B242B252B21F408950A2604
:102C800009F4A140A6958FEF811D811D08950E9432
:102C90005A160C94CB160E94BD1638F00E94C4162A
:102CA00020F0952311F00C94B4160C94BA1611244C
:102CB0000C94FF160E94DC1670F3959FC1F3950FDC
:102CC00050E0551F629FF001729FBB27F00DB11DB0
:102CD000639FAA27F00DB11DAA1F649F6627B00D40
:102CE000A11D661F829F2227B00DA11D621F739F29
:102CF000B00DA11D621F839FA00D611D221F749F37
:102D00003327A00D611D231F849F600D211D822F7D
:102D1000762F6A2F11249F5750409AF0F1F08823A4
:102D20004AF0EE0FFF1FBB1F661F771F881F9150D1
:102D30005040A9F79E3F510580F00C94B4160C94B6
:102D4000FF165F3FE4F3983ED4F386957795679539
:102D5000B795F795E7959F5FC1F7FE2B880F911DFB
:102D60009695879597F9089597F99F6780E870E0A1
:102D700060E008959FEF80EC089500240A941616F1
:102D8000170618060906089500240A941216130659
:102D9000140605060895092E0394000C11F48823E7
:102DA00052F0BB0F40F4BF2B11F460FF04C06F5F03
:102DB0007F4F8F4F9F4F089557FD9058440F551FD9
:102DC00059F05F3F71F04795880F97FB991F61F0AD
:102DD0009F3F79F087950895121613061406551F24
:102DE000F2CF4695F1DF08C0161617061806991F90
:102DF000F1CF86957105610508940895E894BB2785
:102E000066277727CB0197F90895A1E21A2EAA1B0E
:102E1000BB1BFD010DC0AA1FBB1FEE1FFF1FA2178A
:102E2000B307E407F50720F0A21BB30BE40BF50B87
:102E3000661F771F881F991F1A9469F76095709510
:102E4000809590959B01AC01BD01CF010895052EA1
:102E500097FB1EF400940E943E1757FD07D00E9476
:102E6000051707FC03D04EF40C943E17509540957F
:102E7000309521953F4F4F4F5F4F08959095809526
:102E8000709561957F4F8F4F9F4F08950E945917FE
:102E9000A59F900DB49F900DA49F800D911D1124AE
:102EA0000895B7FF0C9446170E944617821B930B98
:102EB0000895A29FB001B39FC001A39F700D811D13
:102EC0001124911DB29F700D811D1124911D089533
:102ED0005058BB27AA270E9480170C94CB160E943B
:102EE000BD1638F00E94C41620F039F49F3F19F443
:102EF00026F40C94BA160EF4E095E7FB0C94B41685
:102F0000E92F0E94DC1658F3BA176207730784078B
:102F1000950720F079F4A6F50C94FE160EF4E095D2
:102F20000B2EBA2FA02D0B01B90190010C01CA0183
:102F3000A0011124FF27591B99F0593F50F4503E2E
:102F400068F11A16F040A22F232F342F4427585F20
:102F5000F3CF469537952795A795F0405395C9F738
:102F60007EF41F16BA0B620B730B840BBAF09150F0
:102F7000A1F0FF0FBB1F661F771F881FC2F70EC08F
:102F8000BA0F621F731F841F48F487957795679562
:102F9000B795F7959E3F08F0B0CF9395880F08F04E
:102FA0009927EE0F9795879508950E94E9170C943D
:102FB000CB160E94C41658F00E94BD1640F029F4AA
:102FC0005F3F29F00C94B41651110C94FF160C9429
:102FD000BA160E94DC1668F39923B1F3552391F3D6
:102FE000951B550BBB27AA2762177307840738F078
:102FF0009F5F5F4F220F331F441FAA1FA9F335D0D5
:103000000E2E3AF0E0E832D091505040E695001C88
:10301000CAF72BD0FE2F29D0660F771F881FBB1F42
:10302000261737074807AB07B0E809F0BB0B802D20
:10303000BF01FF2793585F4F3AF09E3F510578F04C
:103040000C94B4160C94FF165F3FE4F3983ED4F34F
:10305000869577956795B795F7959F5FC9F7880F20
:10306000911D9695879597F90895E1E0660F771F72
:10307000881FBB1F621773078407BA0720F0621B03
:10308000730B840BBA0BEE1F88F7E09508950E942E
:103090004E186894B1110C94FF1608950E94E4161E
:1030A00088F09F5798F0B92F9927B751B0F0E1F009
:1030B000660F771F881F991F1AF0BA95C9F714C0B9
:1030C000B13091F00E94FE16B1E008950C94FE1606
:1030D000672F782F8827B85F39F0B93FCCF38695F2
:1030E00077956795B395D9F73EF49095809570954F
:1030F00061957F4F8F4F9F4F08950E94231608F4CC
:103100008FEF0895991B79E004C0991F961708F076
:10311000961B881F7A95C9F78095089597FB072E0F
:1031200016F4009407D077FD09D00E94AB1807FC75
:1031300005D03EF4909581959F4F089570956195C7
:103140007F4F0895EE0FFF1F0024001C0BBE079059
:10315000F691E02D0994AA1BBB1B51E107C0AA1FE1
:10316000BB1FA617B70710F0A61BB70B881F991F28
:103170005A95A9F780959095BC01CD0108950F93BC
:103180001F93CF93DF938230910510F482E090E09B
:10319000E0919509F091960930E020E0B0E0A0E0E0
:1031A000309799F42115310509F44AC0281B390BD1
:1031B00024303105D8F58A819B816115710589F12B
:1031C000FB0193838283FE0111C040815181028102
:1031D000138148175907E0F04817590799F41097D9
:1031E00061F012960C93129713961C933296CF01AE
:1031F000DF91CF911F910F9108950093950910933E
:103200009609F4CF2115310551F04217530738F0D4
:10321000A901DB019A01BD01DF01F801C1CFEF0176
:10322000F9CF9093960980939509CDCFFE01E20FD7
:10323000F31F819391932250310939832883D7CF8B
:103240002091930930919409232B41F42091690234
:1032500030916A0230939409209393092091670278
:10326000309168022115310541F42DB73EB74091E8
:103270006B0250916C02241B350BE0919309F09185
:103280009409E217F307A0F42E1B3F0B2817390708
:1032900078F0AC014E5F5F4F2417350748F04E0FB2
:1032A0005F1F5093940940939309819391939FCF0B
:1032B000F0E0E0E09CCFCF93DF930097E9F0FC01D2
:1032C000329713821282A0919509B0919609ED016F
:1032D00030E020E01097A1F420813181820F931F0C
:1032E00020919309309194092817390709F061C09A
:1032F000F0939409E0939309DF91CF910895EA0147
:10330000CE17DF07E8F54A815B819E014115510523
:10331000B1F7E901FB83EA8349915991C40FD51FA5
:10332000EC17FD0761F4808191810296840F951F4F
:10333000E90199838883828193819B838A83F0E06A
:10334000E0E012968D919C9113970097B9F52D911D
:103350003C911197CD010296820F931F2091930902
:10336000309194092817390739F6309751F51092A2
:10337000960910929509B0939409A0939309BCCF34
:10338000D383C28340815181840F951FC817D90709
:1033900061F44E5F5F4F88819981480F591F5183B7
:1033A00040838A819B81938382832115310509F0B3
:1033B000B0CFF0939609E09395099ECFFD01DC0113
:1033C000C0CF13821282D7CF4F925F926F927F92BB
:1033D0008F929F92AF92BF92CF92DF92EF92FF9225
:1033E0000F931F93CF93DF938C01009799F4CB0138
:1033F000DF91CF911F910F91FF90EF90DF90CF90D1
:10340000BF90AF909F908F907F906F905F904F9004
:103410000C94BF18FC01E60FF71F9C0122503109E4
:10342000E217F30708F4AEC0D901CD91DC911197F2
:10343000C617D70720F1C530D10578F0CE01049723
:103440008617970750F0C61BD70B2297C193D193CD
:103450006D937C93CF010E945B19C801DF91CF91DE
:103460001F910F91FF90EF90DF90CF90BF90AF90A2
:103470009F908F907F906F905F904F9008955B0129
:10348000AC1ABD0A4C018C0E9D1EA0919509B091FD
:103490009609512C412CF12CE12C109731F580919B
:1034A0009309909194098815990509F05CC0461616
:1034B000570608F058C08091670290916802009703
:1034C00041F48DB79EB740916B0250916C02841B02
:1034D000950BE817F90708F055C0F0939409E093AD
:1034E0009309F90171836083B8CF8D919C911197F5
:1034F00012966C90129713967C901397A815B905A5
:1035000059F56C0142E0C40ED11CCA14DB0420F151
:10351000AC014A195B09DA011296159780F06282B4
:10352000738251834083D9016D937C93E114F1043C
:1035300071F0D7011396FC93EE9312978ECF2296DB
:103540008C0F9D1FF90191838083F301EFCFF093DE
:103550009609E093950981CF4816590608F42C0185
:103560007D01D3019ACFCB010E94BF187C01009747
:1035700049F0AE01B8010E94C51AC8010E945B194A
:1035800087016BCF10E000E068CFFB01DC0102C0D7
:1035900001900D9241505040D8F70895FB01DC0195
:1035A00001900D920020E1F7089511E0C3E0D1E011
:1035B00004C0FE010E94A2182196C430D107C9F7A9
:0435C000F894FFCFAD
:1035C400C904C904C904C904C904C904C904C9048F
:1035D400646464646464FFFF12016C4C03CA030AEC
:1035E400000000000013016D2C01440214000000CF
:1035F40000001401468C0030020A0000000000168E
:1036040000502B02EC020A000000000017014EFEDD
:1036140001CF020A000000000018014B67012302D9
:103624000A0000000000010000970980000000006B
:103634000000000000000000000000000000000086
:103644000000000000000000000000000000000076
:103654000000000000000000000000000000001650
:103664001718191D1C2E2F303334351F2021002D1F
:103674002A2B0023252400081213141502551BA01D
:10368400035510B20455179E05550DB206552BB2BD
:1036940007B22BB208A333B20988299B0A73007DB1
:1036A4000B2A00B20CB223B20D7600B20E5C5A7033
:1036B4000F410F87100C01691A5501AA040605076A
:1036C40000000000EE01580185013B02B60194019F
:1036D400A8012C000D0A00564D4450565F317C3130
:1036E4005F564D4450560A004900564D4450455FBC
:1036F400003A323A007C005F564D44504500442D58
:103704003E003B00412D3E003E5345435F4F4B2D51
:10371400003E5345435F4552524F522D003E5345A0
:10372400435F4552524F525F4D41585F53454300EA
:103734003E52554E5F4F4B2D003E53544F505F4FFA
:103744004B003E52455345545F4F4B003E504F5340
:10375400494E495F4F4B00562D3E00312D3E0032FD
:103764002D3E00552D3E00433132004331330000DD
:020000021000EC
:10F000000C9472F80C9492F80C9492F80C9492F878
:10F010000C9492F80C9492F80C9492F80C9492F848
:10F020000C9492F80C9492F80C9492F80C9492F838
:10F030000C9492F80C9492F80C9492F80C9492F828
:10F040000C9492F80C9492F80C9492F80C9492F818
:10F050000C9492F80C9492F80C9492F80C9492F808
:10F060000C9492F80C9492F80C9492F80C9492F8F8
:10F070000C9492F80C9492F80C9492F80C9492F8E8
:10F080000C9492F80C9492F80C9492F80C9492F8D8
:10F090000C9492F80C9492F80C9492F80C9492F8C8
:10F0A0000C9492F80C9492F80C9492F80C9492F8B8
:10F0B0000C9492F80C9492F80C9492F80C9492F8A8
:10F0C0000C9492F80C9492F80C9492F80C9492F898
:10F0D0000C9492F80C9492F80C9492F80C9492F888
:10F0E0000C9492F811241FBECFEFD1E2DEBFCDBF4A
:10F0F00012E0A0E0B2E0EEEDFEEF01E00BBF02C0D7
:10F1000007900D92A833B107D9F71BBE13E0A8E30F
:10F11000B2E001C01D92A334B107E1F70E9412FAD8
:10F120000C946DFF0C9400F8982F959595959595F6
:10F130009595905D8F708A301CF1282F295A809107
:10F140003802813019F0823071F008958091C0004A
:10F1500085FFFCCF9093C6008091C00085FFFCCF57
:10F160002093C60008958091C80085FFFCCF90933E
:10F17000CE008091C80085FFFCCF2093CE0008957B
:10F18000282F205DDCCF982F80913802813019F034
:10F19000823041F008958091C00085FFFCCF9093AC
:10F1A000C60008958091C80085FFFCCF9093CE00E3
:10F1B0000895EF92FF920F931F9380913802813050
:10F1C00069F1823031F080E01F910F91FF90EF9054
:10F1D0000895EE24FF2487018091C80087FD17C0A1
:10F1E0000894E11CF11C011D111D81E4E81682E464
:10F1F000F8068FE0080780E0180770F3E0913A0204
:10F20000F0913B0209958091C80087FFE9CF80917A
:10F21000CE001F910F91FF90EF900895EE24FF24F0
:10F2200087018091C00087FD17C00894E11CF11C84
:10F23000011D111D81E4E81682E4F8068FE008073D
:10F2400080E0180770F3E0913A02F0913B020995D3
:10F250008091C00087FFE9CF8091C6001F910F9178
:10F26000FF90EF9008950E94D9F8982F809138026E
:10F27000813049F0823091F091366CF490330CF08B
:10F280009053892F08958091C00085FFFCCF909303
:10F29000C60091369CF39755892F08958091C80038
:10F2A00085FFFCCF9093CE00E7CF1F930E9433F9E8
:10F2B000182F0E9433F91295107F810F1F91089526
:10F2C000982F20913802992339F0213031F02230E3
:10F2D00061F091509923C9F708958091C00087FF8C
:10F2E000FCCF8091C6009150F5CF8091C80087FF78
:10F2F000FCCF8091CE009150EDCF1F93182F0E942C
:10F30000D9F8803249F0809139028F5F80933902B9
:10F31000853091F11F910895809138028130B9F0C4
:10F320008230C1F78091C80085FFFCCF84E18093D3
:10F33000CE008091C80085FFFCCF1093CE00809155
:10F34000C80085FFFCCF80E18093CE00E3CF8091A1
:10F35000C00085FFFCCF84E18093C6008091C0008F
:10F3600085FFFCCF1093C6008091C00085FFFCCFC5
:10F3700080E18093C600CECFE0913A02F0913B024B
:10F3800009951F9108950E94D9F8803241F080912B
:10F3900039028F5F80933902853029F10895809179
:10F3A0003802813089F08230C9F78091C80085FF2A
:10F3B000FCCF84E18093CE008091C80085FFFCCF14
:10F3C00080E18093CE0008958091C00085FFFCCF3E
:10F3D00084E18093C6008091C00085FFFCCF80E16E
:10F3E0008093C6000895E0913A02F0913B0209959E
:10F3F000089540E951E08823A1F02F9A28EE33E0E8
:10F40000FA013197F1F721503040D1F72F9828EECB
:10F4100033E0FA013197F1F721503040D1F78150B4
:10F4200061F708952F923F924F925F926F927F9271
:10F430008F929F92AF92BF92CF92DF92EF92FF9204
:10F440000F931F93CF93DF93000081E080933802E6
:10F4500080E18093C4001092C5001092C00086E045
:10F460008093C20088E18093C1006898709A279ABF
:10F4700081E00E94F9F9E4E1EE2E7EE1D72E67E902
:10F48000C62E53E0B52E40E1A42E9924939431E486
:10F49000832E26E5722E92E5692E80E2582E09E42D
:10F4A000402E13E5312EB0E52B2E0E94D9F8803383
:10F4B000C9F1813309F452C0803409F4C8C08134E1
:10F4C00009F4EAC0823489F1853409F4CAC0803570
:10F4D00049F1823539F1813529F1853509F4ECC0DE
:10F4E000863509F409C1843609F428C1843709F442
:10F4F000ABC1853709F473C2863709F4D9C08132AC
:10F5000009F4B7C2809139028F5F80933902853048
:10F5100061F6E0913A02F0913B0209950E94D9F818
:10F52000803339F60E94C3F9C0CF2091380293E1AD
:10F5300005C0223061F09923A9F391502130C9F719
:10F540008091C00087FFFCCF8091C600F4CF8091EE
:10F55000C80087FFFCCF8091CE00EDCF0E94D9F884
:10F56000803281F6809138028130D1F1823009F009
:10F570009CCF8091C80085FFFCCFE092CE008091A7
:10F58000C80085FFFCCF8092CE008091C80085FF27
:10F59000FCCF7092CE008091C80085FFFCCF6092B6
:10F5A000CE008091C80085FFFCCF5092CE008091A4
:10F5B000C80085FFFCCF4092CE008091C80085FF37
:10F5C000FCCF3092CE008091C80085FFFCCF209206
:10F5D000CE008091C80085FFFCCFA092CE0065CF01
:10F5E0008091C00085FFFCCFE092C6008091C000F2
:10F5F00085FFFCCF8092C6008091C00085FFFCCFC4
:10F600007092C6008091C00085FFFCCF6092C6005A
:10F610008091C00085FFFCCF5092C6008091C00051
:10F6200085FFFCCF4092C6008091C00085FFFCCFD3
:10F630003092C6008091C00085FFFCCF2092C600AA
:10F640008091C00085FFFCCFA092C6002ECF0E9403
:10F65000D9F8863808F466CF0E94D9F80E94C3F919
:10F6600024CF2091380294E0213041F0223069F01B
:10F67000992309F457CF91502130C1F78091C000F0
:10F6800087FFFCCF8091C600F3CF8091C80087FF31
:10F69000FCCF8091CE00ECCF0E94D9F8803841F1A8
:10F6A000813809F447C0823809F4CAC08839E1F0CA
:10F6B00080E00E947DF9F9CE0E94D9F880933C0247
:10F6C0000E94D9F880933D020E94C3F9EECE0E94B9
:10F6D000D9F80E94D9F8182F0E94D9F8112309F4FB
:10F6E0007EC2113009F40AC283E00E947DF9DDCEAA
:10F6F00082E00E947DF9D9CE0E94D9F8803339F397
:10F700002091380292E0213039F0223061F09923C3
:10F7100079F291502130C9F78091C00087FFFCCF6A
:10F720008091C600F4CF8091C80087FFFCCF809104
:10F73000CE00EDCF81E00E947DF9B7CE0E94D9F8CE
:10F7400080933F030E94D9F880933E038091420347
:10F750008E7F809342030E94D9F8853409F4B3C1A7
:10F7600080913E0390913F03892B89F000E010E0E7
:10F770000E94D9F8F801E25CFD4F80830F5F1F4FB4
:10F7800080913E0390913F030817190788F30E9468
:10F79000D9F8803209F0B6CE8091420380FFB2C121
:10F7A00040913C0250913D02440F551F50933D0241
:10F7B00040933C0260913E0370913F0361157105D7
:10F7C000F1F080E090E09A01280F391FFC01E25C23
:10F7D000FD4FE081F999FECF1FBA32BD21BDE0BDDA
:10F7E0000FB6F894FA9AF99A0FBE01968617970702
:10F7F00050F3460F571F50933D0240933C028091B7
:10F800003802813081F0823009F04FCE8091C800FB
:10F8100085FFFCCFE092CE008091C80085FFFCCF31
:10F82000A092CE0042CE8091C00085FFFCCFE09236
:10F83000C6008091C00085FFFCCFA092C60035CEE7
:10F8400080E10E947DF931CE0E94D9F880933F0378
:10F850000E94D9F880933E0320913C0230913D02F2
:10F8600037FD46C1809142038D7F80934203220F72
:10F87000331F30933D0220933C020E94D9F8853417
:10F8800009F430C1809142038E7F809342030E942D
:10F89000D9F8803209F009CE60913802613009F45C
:10F8A0006FC0623009F473C000913E0310913F03B2
:10F8B0000115110509F440C080914203782F717041
:10F8C000F82EF69481E0F82240913C0250913D02DE
:10F8D00020E030E013C0FF2009F060C0FA019491ED
:10F8E000613009F43BC0623009F441C0CA0101969D
:10F8F0002F5F3F4FAC0120173107D0F4772359F326
:10F90000F999FECF52BD41BDF89A90B56130F9F03A
:10F91000623061F78091C80085FFFCCF9093CE00E4
:10F92000CA0101962F5F3F4FAC012017310730F31A
:10F9300090933D0280933C02613009F4CAC062306A
:10F9400009F0B3CD8091C80085FFFCCF46CE8091F1
:10F95000C00085FFFCCF9093C600C8CF8091C00047
:10F9600085FDF9CF8091C00085FFF8CFF4CF80915D
:10F97000C80085FDD3CF8091C80085FFF8CFCECFDA
:10F980008091C00085FFFCCFE092C6008DCF8091B2
:10F99000C80085FFFCCFE092CE0086CFCA01A0E070
:10F9A000B0E080509040AF4FBF4FABBFFC0197918C
:10F9B000613061F0623009F099CF8091C80085FD17
:10F9C000ADCF8091C80085FFF8CFA8CF8091C0004F
:10F9D00085FDC1CF8091C00085FFF8CFBCCF0E94CC
:10F9E000D9F8803209F08ECD80913802813011F142
:10F9F000823009F05ACD8091C80085FFFCCFE0929B
:10FA0000CE008091C80085FFFCCFD092CE008091BF
:10FA1000C80085FFFCCFC092CE008091C80085FF52
:10FA2000FCCFB092CE008091C80085FFFCCFA092A1
:10FA3000CE003BCD8091C00085FFFCCFE092C60098
:10FA40008091C00085FFFCCFD092C6008091C0009D
:10FA500085FFFCCFC092C6008091C00085FFFCCF1F
:10FA6000B092C6008091C00085FFFCCFA092C60076
:10FA70001CCD0E94D9F8813209F017CD0E94D9F827
:10FA8000813209F012CD279A2F98109240032091CD
:10FA90003802E1E491E00EC0223009F4A4C0909352
:10FAA0004003E92FF0E0E050FE4FE0819F5FEE233E
:10FAB00009F4A0C0213081F78091C00085FFFCCF00
:10FAC000E093C600ECCF80914203816080934203B3
:10FAD00047CE8091C00085FDB7CD8091C00085FFE5
:10FAE000F8CFB2CD80914203816080934203CFCEA4
:10FAF00080914203826080934203B9CE87E90E94DD
:10FB00007DF9D3CC80913D028823880F880B892111
:10FB1000809341038BBF80913C0290913D02880FFE
:10FB2000991F90933D0280933C0280913E0380FF99
:10FB300009C080913E0390913F03019690933F034B
:10FB400080933E03F894F999FECF1127E0913C028F
:10FB5000F0913D02CEE3D2E080913E0390913F03CD
:10FB6000103091F40091570001700130D9F303E097
:10FB700000935700E8950091570001700130D9F3C8
:10FB800001E100935700E895099019900091570002
:10FB900001700130D9F301E000935700E895139507
:10FBA000103898F011270091570001700130D9F3F7
:10FBB00005E000935700E89500915700017001306F
:10FBC000D9F301E100935700E8953296029709F0C6
:10FBD000C7CF103011F00296E5CF112410CE8EE180
:10FBE0000E947DF962CC8091C80085FFFCCFE09334
:10FBF000CE0055CF7AE0B72E6DE0A62E5AE3952EB3
:10FC000040E2842E3DE3732E90E3692E81E3582E6B
:10FC1000213009F442C0223009F45FC00E94D9F8B3
:10FC2000982F20913802213089F1223009F44EC0FA
:10FC3000943709F46BC0923709F405C1973709F47A
:10FC40007BC0953799F0923609F4BDC09A3601F71A
:10FC5000E0913A02F0913B02099520913802D8CF09
:10FC60008091C00085FFFCCF9093C6000E94D9F818
:10FC7000982F80913802813099F38230B9F78091C2
:10FC8000C80085FFFCCF9093CE00F0CF8091C000DC
:10FC900085FFFCCF9093C600CBCF8091C00085FF3D
:10FCA000FCCFB092C6008091C00085FFFCCFA0922F
:10FCB000C6008091C00085FFFCCF9092C600809165
:10FCC000C00085FFFCCF8092C600A8CF8091C800FD
:10FCD00085FFFCCF9093CE00ABCF8091C80085FF0D
:10FCE000FCCFB092CE008091C80085FFFCCFA092DF
:10FCF000CE008091C80085FFFCCF9092CE0080910D
:10FD0000C80085FFFCCF8092CE0088CF1F9947C0E6
:10FD10002F9A213051F0223009F07ACF8091C8001B
:10FD200085FFFCCF6092CE0073CF8091C00085FF2D
:10FD3000FCCF6092C6006CCF0E94D9F8982F8091BA
:10FD400038028130F1F0823009F4ABC00E9455F9DD
:10FD5000082F0E9455F9182F0E94D9F8982F8091EA
:10FD600038028130A9F0823009F4A2C00E9455F90E
:10FD7000D02ECC24F601E10FF11D808320913802B2
:10FD800047CF8091C00085FFFCCF9093C600DECFA7
:10FD90008091C00085FFFCCF9093C600E7CF2F98DD
:10FDA000213051F0223009F033CF8091C80085FF17
:10FDB000FCCF5092CE002CCF8091C00085FFFCCFAD
:10FDC0005092C60025CF213041F1223081F080E8E9
:10FDD00085BF109274001092750080E091E1FC01E3
:10FDE000819180E091E13097D1F3CF01F8CF8091FC
:10FDF000C80085FFFCCF82E68093CE008091C800CA
:10FE000085FFFCCF85E78093CE008091C80085FFF9
:10FE1000FCCF83E78093CE00DACF8091C00085FFCE
:10FE2000FCCF82E68093C6008091C00085FFFCCFA6
:10FE300085E78093C6008091C00085FFFCCF83E7F3
:10FE40008093C600C4CF0E94D9F8982F80913802C1
:10FE50008130C9F08230D1F10E9455F9182F0E94EB
:10FE600055F9982F809138028130A1F0823039F114
:10FE7000F12EEE24F701E90FF11D80810E9494F824
:10FE800020913802C5CE8091C00085FFFCCF9093B1
:10FE9000C600E2CF8091C00085FFFCCF7092C60003
:10FEA000E7CF8091C80085FFFCCF9093CE004ECF66
:10FEB0008091C80085FFFCCF9093CE0057CF8091F2
:10FEC000C80085FFFCCF7092CE00D2CF8091C800D1
:0EFED00085FFFCCF9093CE00BFCFF894FFCFFC
:10FEDE0041546D656761424F4F54202F204172642B
:10FEEE0075696E6F204D656761202D20284329208E
:10FEFE0041726475696E6F204C4C43202D20303951
:08FF0E00303933300A0D008088
:040000031000F000F9
:00000001FF